{
	"test/UserStorage(Struct).sol": {
		"UserStorage": {
			"abi": [
				{
					"anonymous": false,
					"inputs": [
						{
							"indexed": true,
							"internalType": "address",
							"name": "user",
							"type": "address"
						},
						{
							"indexed": false,
							"internalType": "uint256",
							"name": "oldScore",
							"type": "uint256"
						},
						{
							"indexed": false,
							"internalType": "uint256",
							"name": "newScore",
							"type": "uint256"
						}
					],
					"name": "ScoreUpdated",
					"type": "event"
				},
				{
					"anonymous": false,
					"inputs": [
						{
							"indexed": true,
							"internalType": "address",
							"name": "user",
							"type": "address"
						},
						{
							"indexed": false,
							"internalType": "string",
							"name": "name",
							"type": "string"
						},
						{
							"indexed": false,
							"internalType": "uint256",
							"name": "age",
							"type": "uint256"
						}
					],
					"name": "UserRegistered",
					"type": "event"
				},
				{
					"inputs": [],
					"name": "getMyInfo",
					"outputs": [
						{
							"internalType": "string",
							"name": "",
							"type": "string"
						},
						{
							"internalType": "uint256",
							"name": "",
							"type": "uint256"
						},
						{
							"internalType": "uint256",
							"name": "",
							"type": "uint256"
						}
					],
					"stateMutability": "view",
					"type": "function"
				},
				{
					"inputs": [
						{
							"internalType": "address",
							"name": "_user",
							"type": "address"
						}
					],
					"name": "getUser",
					"outputs": [
						{
							"internalType": "string",
							"name": "",
							"type": "string"
						},
						{
							"internalType": "uint256",
							"name": "",
							"type": "uint256"
						},
						{
							"internalType": "uint256",
							"name": "",
							"type": "uint256"
						}
					],
					"stateMutability": "view",
					"type": "function"
				},
				{
					"inputs": [
						{
							"internalType": "address",
							"name": "",
							"type": "address"
						}
					],
					"name": "isUser",
					"outputs": [
						{
							"internalType": "bool",
							"name": "",
							"type": "bool"
						}
					],
					"stateMutability": "view",
					"type": "function"
				},
				{
					"inputs": [
						{
							"internalType": "string",
							"name": "_name",
							"type": "string"
						},
						{
							"internalType": "uint256",
							"name": "_age",
							"type": "uint256"
						}
					],
					"name": "register",
					"outputs": [],
					"stateMutability": "nonpayable",
					"type": "function"
				},
				{
					"inputs": [
						{
							"internalType": "uint256",
							"name": "_score",
							"type": "uint256"
						}
					],
					"name": "updateScore",
					"outputs": [],
					"stateMutability": "nonpayable",
					"type": "function"
				},
				{
					"inputs": [
						{
							"internalType": "uint256",
							"name": "",
							"type": "uint256"
						}
					],
					"name": "userList",
					"outputs": [
						{
							"internalType": "address",
							"name": "",
							"type": "address"
						}
					],
					"stateMutability": "view",
					"type": "function"
				},
				{
					"inputs": [
						{
							"internalType": "address",
							"name": "",
							"type": "address"
						}
					],
					"name": "users",
					"outputs": [
						{
							"internalType": "string",
							"name": "name",
							"type": "string"
						},
						{
							"internalType": "uint256",
							"name": "age",
							"type": "uint256"
						},
						{
							"internalType": "uint256",
							"name": "score",
							"type": "uint256"
						}
					],
					"stateMutability": "view",
					"type": "function"
				}
			],
			"devdoc": {
				"kind": "dev",
				"methods": {},
				"version": 1
			},
			"evm": {
				"assembly": "    /* \"test/UserStorage(Struct).sol\":61:1657  contract UserStorage {... */\n  mstore(0x40, 0x80)\n  callvalue\n  dup1\n  iszero\n  tag_1\n  jumpi\n  revert(0x00, 0x00)\ntag_1:\n  pop\n  dataSize(sub_0)\n  dup1\n  dataOffset(sub_0)\n  0x00\n  codecopy\n  0x00\n  return\nstop\n\nsub_0: assembly {\n        /* \"test/UserStorage(Struct).sol\":61:1657  contract UserStorage {... */\n      mstore(0x40, 0x80)\n      callvalue\n      dup1\n      iszero\n      tag_1\n      jumpi\n      revert(0x00, 0x00)\n    tag_1:\n      pop\n      jumpi(tag_2, lt(calldatasize, 0x04))\n      shr(0xe0, calldataload(0x00))\n      dup1\n      0x9f4216e8\n      gt\n      tag_10\n      jumpi\n      dup1\n      0x9f4216e8\n      eq\n      tag_6\n      jumpi\n      dup1\n      0xa87430ba\n      eq\n      tag_7\n      jumpi\n      dup1\n      0xea87152b\n      eq\n      tag_8\n      jumpi\n      dup1\n      0xf853e34d\n      eq\n      tag_9\n      jumpi\n      jump(tag_2)\n    tag_10:\n      dup1\n      0x4209fff1\n      eq\n      tag_3\n      jumpi\n      dup1\n      0x6f77926b\n      eq\n      tag_4\n      jumpi\n      dup1\n      0x7daa10ce\n      eq\n      tag_5\n      jumpi\n    tag_2:\n      revert(0x00, 0x00)\n        /* \"test/UserStorage(Struct).sol\":231:269  mapping(address => bool) public isUser */\n    tag_3:\n      tag_11\n      0x04\n      dup1\n      calldatasize\n      sub\n      dup2\n      add\n      swap1\n      tag_12\n      swap2\n      swap1\n      tag_13\n      jump\t// in\n    tag_12:\n      tag_14\n      jump\t// in\n    tag_11:\n      mload(0x40)\n      tag_15\n      swap2\n      swap1\n      tag_16\n      jump\t// in\n    tag_15:\n      mload(0x40)\n      dup1\n      swap2\n      sub\n      swap1\n      return\n        /* \"test/UserStorage(Struct).sol\":1467:1654  function getUser(address _user) public view returns (string memory, uint256, uint256) {... */\n    tag_4:\n      tag_17\n      0x04\n      dup1\n      calldatasize\n      sub\n      dup2\n      add\n      swap1\n      tag_18\n      swap2\n      swap1\n      tag_13\n      jump\t// in\n    tag_18:\n      tag_19\n      jump\t// in\n    tag_17:\n      mload(0x40)\n      tag_20\n      swap4\n      swap3\n      swap2\n      swap1\n      tag_21\n      jump\t// in\n    tag_20:\n      mload(0x40)\n      dup1\n      swap2\n      sub\n      swap1\n      return\n        /* \"test/UserStorage(Struct).sol\":1263:1459  function getMyInfo() public view onlyRegistered returns (string memory, uint256, uint256) {... */\n    tag_5:\n      tag_22\n      tag_23\n      jump\t// in\n    tag_22:\n      mload(0x40)\n      tag_24\n      swap4\n      swap3\n      swap2\n      swap1\n      tag_21\n      jump\t// in\n    tag_24:\n      mload(0x40)\n      dup1\n      swap2\n      sub\n      swap1\n      return\n        /* \"test/UserStorage(Struct).sol\":276:301  address[] public userList */\n    tag_6:\n      tag_25\n      0x04\n      dup1\n      calldatasize\n      sub\n      dup2\n      add\n      swap1\n      tag_26\n      swap2\n      swap1\n      tag_27\n      jump\t// in\n    tag_26:\n      tag_28\n      jump\t// in\n    tag_25:\n      mload(0x40)\n      tag_29\n      swap2\n      swap1\n      tag_30\n      jump\t// in\n    tag_29:\n      mload(0x40)\n      dup1\n      swap2\n      sub\n      swap1\n      return\n        /* \"test/UserStorage(Struct).sol\":187:224  mapping(address => User) public users */\n    tag_7:\n      tag_31\n      0x04\n      dup1\n      calldatasize\n      sub\n      dup2\n      add\n      swap1\n      tag_32\n      swap2\n      swap1\n      tag_13\n      jump\t// in\n    tag_32:\n      tag_33\n      jump\t// in\n    tag_31:\n      mload(0x40)\n      tag_34\n      swap4\n      swap3\n      swap2\n      swap1\n      tag_21\n      jump\t// in\n    tag_34:\n      mload(0x40)\n      dup1\n      swap2\n      sub\n      swap1\n      return\n        /* \"test/UserStorage(Struct).sol\":762:1024  function register(string memory _name, uint256 _age) public notRegistered {... */\n    tag_8:\n      tag_35\n      0x04\n      dup1\n      calldatasize\n      sub\n      dup2\n      add\n      swap1\n      tag_36\n      swap2\n      swap1\n      tag_37\n      jump\t// in\n    tag_36:\n      tag_38\n      jump\t// in\n    tag_35:\n      stop\n        /* \"test/UserStorage(Struct).sol\":1032:1255  function updateScore(uint256 _score) public onlyRegistered {... */\n    tag_9:\n      tag_39\n      0x04\n      dup1\n      calldatasize\n      sub\n      dup2\n      add\n      swap1\n      tag_40\n      swap2\n      swap1\n      tag_27\n      jump\t// in\n    tag_40:\n      tag_41\n      jump\t// in\n    tag_39:\n      stop\n        /* \"test/UserStorage(Struct).sol\":231:269  mapping(address => bool) public isUser */\n    tag_14:\n      mstore(0x20, 0x01)\n      dup1\n      0x00\n      mstore\n      keccak256(0x00, 0x40)\n      0x00\n      swap2\n      pop\n      sload\n      swap1\n      0x0100\n      exp\n      swap1\n      div\n      0xff\n      and\n      dup2\n      jump\t// out\n        /* \"test/UserStorage(Struct).sol\":1467:1654  function getUser(address _user) public view returns (string memory, uint256, uint256) {... */\n    tag_19:\n        /* \"test/UserStorage(Struct).sol\":1520:1533  string memory */\n      0x60\n        /* \"test/UserStorage(Struct).sol\":1535:1542  uint256 */\n      0x00\n        /* \"test/UserStorage(Struct).sol\":1544:1551  uint256 */\n      0x00\n        /* \"test/UserStorage(Struct).sol\":1564:1580  User memory user */\n      0x00\n        /* \"test/UserStorage(Struct).sol\":1583:1588  users */\n      0x00\n        /* \"test/UserStorage(Struct).sol\":1583:1595  users[_user] */\n      0x00\n        /* \"test/UserStorage(Struct).sol\":1589:1594  _user */\n      dup7\n        /* \"test/UserStorage(Struct).sol\":1583:1595  users[_user] */\n      0xffffffffffffffffffffffffffffffffffffffff\n      and\n      0xffffffffffffffffffffffffffffffffffffffff\n      and\n      dup2\n      mstore\n      0x20\n      add\n      swap1\n      dup2\n      mstore\n      0x20\n      add\n      0x00\n      keccak256\n        /* \"test/UserStorage(Struct).sol\":1564:1595  User memory user = users[_user] */\n      mload(0x40)\n      dup1\n      0x60\n      add\n      0x40\n      mstore\n      swap1\n      dup2\n      0x00\n      dup3\n      add\n      dup1\n      sload\n      tag_43\n      swap1\n      tag_44\n      jump\t// in\n    tag_43:\n      dup1\n      0x1f\n      add\n      0x20\n      dup1\n      swap2\n      div\n      mul\n      0x20\n      add\n      mload(0x40)\n      swap1\n      dup2\n      add\n      0x40\n      mstore\n      dup1\n      swap3\n      swap2\n      swap1\n      dup2\n      dup2\n      mstore\n      0x20\n      add\n      dup3\n      dup1\n      sload\n      tag_45\n      swap1\n      tag_44\n      jump\t// in\n    tag_45:\n      dup1\n      iszero\n      tag_46\n      jumpi\n      dup1\n      0x1f\n      lt\n      tag_47\n      jumpi\n      0x0100\n      dup1\n      dup4\n      sload\n      div\n      mul\n      dup4\n      mstore\n      swap2\n      0x20\n      add\n      swap2\n      jump(tag_46)\n    tag_47:\n      dup3\n      add\n      swap2\n      swap1\n      0x00\n      mstore\n      keccak256(0x00, 0x20)\n      swap1\n    tag_48:\n      dup2\n      sload\n      dup2\n      mstore\n      swap1\n      0x01\n      add\n      swap1\n      0x20\n      add\n      dup1\n      dup4\n      gt\n      tag_48\n      jumpi\n      dup3\n      swap1\n      sub\n      0x1f\n      and\n      dup3\n      add\n      swap2\n    tag_46:\n      pop\n      pop\n      pop\n      pop\n      pop\n      dup2\n      mstore\n      0x20\n      add\n      0x01\n      dup3\n      add\n      sload\n      dup2\n      mstore\n      0x20\n      add\n      0x02\n      dup3\n      add\n      sload\n      dup2\n      mstore\n      pop\n      pop\n      swap1\n      pop\n        /* \"test/UserStorage(Struct).sol\":1614:1618  user */\n      dup1\n        /* \"test/UserStorage(Struct).sol\":1614:1623  user.name */\n      0x00\n      add\n      mload\n        /* \"test/UserStorage(Struct).sol\":1625:1629  user */\n      dup2\n        /* \"test/UserStorage(Struct).sol\":1625:1633  user.age */\n      0x20\n      add\n      mload\n        /* \"test/UserStorage(Struct).sol\":1635:1639  user */\n      dup3\n        /* \"test/UserStorage(Struct).sol\":1635:1645  user.score */\n      0x40\n      add\n      mload\n        /* \"test/UserStorage(Struct).sol\":1606:1646  return (user.name, user.age, user.score) */\n      swap4\n      pop\n      swap4\n      pop\n      swap4\n      pop\n      pop\n        /* \"test/UserStorage(Struct).sol\":1467:1654  function getUser(address _user) public view returns (string memory, uint256, uint256) {... */\n      swap2\n      swap4\n      swap1\n      swap3\n      pop\n      jump\t// out\n        /* \"test/UserStorage(Struct).sol\":1263:1459  function getMyInfo() public view onlyRegistered returns (string memory, uint256, uint256) {... */\n    tag_23:\n        /* \"test/UserStorage(Struct).sol\":1320:1333  string memory */\n      0x60\n        /* \"test/UserStorage(Struct).sol\":1335:1342  uint256 */\n      0x00\n        /* \"test/UserStorage(Struct).sol\":1344:1351  uint256 */\n      0x00\n        /* \"test/UserStorage(Struct).sol\":543:549  isUser */\n      0x01\n        /* \"test/UserStorage(Struct).sol\":543:561  isUser[msg.sender] */\n      0x00\n        /* \"test/UserStorage(Struct).sol\":550:560  msg.sender */\n      caller\n        /* \"test/UserStorage(Struct).sol\":543:561  isUser[msg.sender] */\n      0xffffffffffffffffffffffffffffffffffffffff\n      and\n      0xffffffffffffffffffffffffffffffffffffffff\n      and\n      dup2\n      mstore\n      0x20\n      add\n      swap1\n      dup2\n      mstore\n      0x20\n      add\n      0x00\n      keccak256\n      0x00\n      swap1\n      sload\n      swap1\n      0x0100\n      exp\n      swap1\n      div\n      0xff\n      and\n        /* \"test/UserStorage(Struct).sol\":535:580  require(isUser[msg.sender], \"Not registered\") */\n      tag_50\n      jumpi\n      mload(0x40)\n      0x08c379a000000000000000000000000000000000000000000000000000000000\n      dup2\n      mstore\n      0x04\n      add\n      tag_51\n      swap1\n      tag_52\n      jump\t// in\n    tag_51:\n      mload(0x40)\n      dup1\n      swap2\n      sub\n      swap1\n      revert\n    tag_50:\n        /* \"test/UserStorage(Struct).sol\":1364:1380  User memory user */\n      0x00\n        /* \"test/UserStorage(Struct).sol\":1383:1388  users */\n      0x00\n        /* \"test/UserStorage(Struct).sol\":1383:1400  users[msg.sender] */\n      0x00\n        /* \"test/UserStorage(Struct).sol\":1389:1399  msg.sender */\n      caller\n        /* \"test/UserStorage(Struct).sol\":1383:1400  users[msg.sender] */\n      0xffffffffffffffffffffffffffffffffffffffff\n      and\n      0xffffffffffffffffffffffffffffffffffffffff\n      and\n      dup2\n      mstore\n      0x20\n      add\n      swap1\n      dup2\n      mstore\n      0x20\n      add\n      0x00\n      keccak256\n        /* \"test/UserStorage(Struct).sol\":1364:1400  User memory user = users[msg.sender] */\n      mload(0x40)\n      dup1\n      0x60\n      add\n      0x40\n      mstore\n      swap1\n      dup2\n      0x00\n      dup3\n      add\n      dup1\n      sload\n      tag_54\n      swap1\n      tag_44\n      jump\t// in\n    tag_54:\n      dup1\n      0x1f\n      add\n      0x20\n      dup1\n      swap2\n      div\n      mul\n      0x20\n      add\n      mload(0x40)\n      swap1\n      dup2\n      add\n      0x40\n      mstore\n      dup1\n      swap3\n      swap2\n      swap1\n      dup2\n      dup2\n      mstore\n      0x20\n      add\n      dup3\n      dup1\n      sload\n      tag_55\n      swap1\n      tag_44\n      jump\t// in\n    tag_55:\n      dup1\n      iszero\n      tag_56\n      jumpi\n      dup1\n      0x1f\n      lt\n      tag_57\n      jumpi\n      0x0100\n      dup1\n      dup4\n      sload\n      div\n      mul\n      dup4\n      mstore\n      swap2\n      0x20\n      add\n      swap2\n      jump(tag_56)\n    tag_57:\n      dup3\n      add\n      swap2\n      swap1\n      0x00\n      mstore\n      keccak256(0x00, 0x20)\n      swap1\n    tag_58:\n      dup2\n      sload\n      dup2\n      mstore\n      swap1\n      0x01\n      add\n      swap1\n      0x20\n      add\n      dup1\n      dup4\n      gt\n      tag_58\n      jumpi\n      dup3\n      swap1\n      sub\n      0x1f\n      and\n      dup3\n      add\n      swap2\n    tag_56:\n      pop\n      pop\n      pop\n      pop\n      pop\n      dup2\n      mstore\n      0x20\n      add\n      0x01\n      dup3\n      add\n      sload\n      dup2\n      mstore\n      0x20\n      add\n      0x02\n      dup3\n      add\n      sload\n      dup2\n      mstore\n      pop\n      pop\n      swap1\n      pop\n        /* \"test/UserStorage(Struct).sol\":1419:1423  user */\n      dup1\n        /* \"test/UserStorage(Struct).sol\":1419:1428  user.name */\n      0x00\n      add\n      mload\n        /* \"test/UserStorage(Struct).sol\":1430:1434  user */\n      dup2\n        /* \"test/UserStorage(Struct).sol\":1430:1438  user.age */\n      0x20\n      add\n      mload\n        /* \"test/UserStorage(Struct).sol\":1440:1444  user */\n      dup3\n        /* \"test/UserStorage(Struct).sol\":1440:1450  user.score */\n      0x40\n      add\n      mload\n        /* \"test/UserStorage(Struct).sol\":1411:1451  return (user.name, user.age, user.score) */\n      swap4\n      pop\n      swap4\n      pop\n      swap4\n      pop\n      pop\n        /* \"test/UserStorage(Struct).sol\":1263:1459  function getMyInfo() public view onlyRegistered returns (string memory, uint256, uint256) {... */\n      swap1\n      swap2\n      swap3\n      jump\t// out\n        /* \"test/UserStorage(Struct).sol\":276:301  address[] public userList */\n    tag_28:\n      0x02\n      dup2\n      dup2\n      sload\n      dup2\n      lt\n      tag_59\n      jumpi\n      0x00\n      dup1\n      revert\n    tag_59:\n      swap1\n      0x00\n      mstore\n      keccak256(0x00, 0x20)\n      add\n      0x00\n      swap2\n      pop\n      sload\n      swap1\n      0x0100\n      exp\n      swap1\n      div\n      0xffffffffffffffffffffffffffffffffffffffff\n      and\n      dup2\n      jump\t// out\n        /* \"test/UserStorage(Struct).sol\":187:224  mapping(address => User) public users */\n    tag_33:\n      mstore(0x20, 0x00)\n      dup1\n      0x00\n      mstore\n      keccak256(0x00, 0x40)\n      0x00\n      swap2\n      pop\n      swap1\n      pop\n      dup1\n      0x00\n      add\n      dup1\n      sload\n      tag_61\n      swap1\n      tag_44\n      jump\t// in\n    tag_61:\n      dup1\n      0x1f\n      add\n      0x20\n      dup1\n      swap2\n      div\n      mul\n      0x20\n      add\n      mload(0x40)\n      swap1\n      dup2\n      add\n      0x40\n      mstore\n      dup1\n      swap3\n      swap2\n      swap1\n      dup2\n      dup2\n      mstore\n      0x20\n      add\n      dup3\n      dup1\n      sload\n      tag_62\n      swap1\n      tag_44\n      jump\t// in\n    tag_62:\n      dup1\n      iszero\n      tag_63\n      jumpi\n      dup1\n      0x1f\n      lt\n      tag_64\n      jumpi\n      0x0100\n      dup1\n      dup4\n      sload\n      div\n      mul\n      dup4\n      mstore\n      swap2\n      0x20\n      add\n      swap2\n      jump(tag_63)\n    tag_64:\n      dup3\n      add\n      swap2\n      swap1\n      0x00\n      mstore\n      keccak256(0x00, 0x20)\n      swap1\n    tag_65:\n      dup2\n      sload\n      dup2\n      mstore\n      swap1\n      0x01\n      add\n      swap1\n      0x20\n      add\n      dup1\n      dup4\n      gt\n      tag_65\n      jumpi\n      dup3\n      swap1\n      sub\n      0x1f\n      and\n      dup3\n      add\n      swap2\n    tag_63:\n      pop\n      pop\n      pop\n      pop\n      pop\n      swap1\n      dup1\n      0x01\n      add\n      sload\n      swap1\n      dup1\n      0x02\n      add\n      sload\n      swap1\n      pop\n      dup4\n      jump\t// out\n        /* \"test/UserStorage(Struct).sol\":762:1024  function register(string memory _name, uint256 _age) public notRegistered {... */\n    tag_38:\n        /* \"test/UserStorage(Struct).sol\":693:699  isUser */\n      0x01\n        /* \"test/UserStorage(Struct).sol\":693:711  isUser[msg.sender] */\n      0x00\n        /* \"test/UserStorage(Struct).sol\":700:710  msg.sender */\n      caller\n        /* \"test/UserStorage(Struct).sol\":693:711  isUser[msg.sender] */\n      0xffffffffffffffffffffffffffffffffffffffff\n      and\n      0xffffffffffffffffffffffffffffffffffffffff\n      and\n      dup2\n      mstore\n      0x20\n      add\n      swap1\n      dup2\n      mstore\n      0x20\n      add\n      0x00\n      keccak256\n      0x00\n      swap1\n      sload\n      swap1\n      0x0100\n      exp\n      swap1\n      div\n      0xff\n      and\n        /* \"test/UserStorage(Struct).sol\":692:711  !isUser[msg.sender] */\n      iszero\n        /* \"test/UserStorage(Struct).sol\":684:734  require(!isUser[msg.sender], \"Already registered\") */\n      tag_67\n      jumpi\n      mload(0x40)\n      0x08c379a000000000000000000000000000000000000000000000000000000000\n      dup2\n      mstore\n      0x04\n      add\n      tag_68\n      swap1\n      tag_69\n      jump\t// in\n    tag_68:\n      mload(0x40)\n      dup1\n      swap2\n      sub\n      swap1\n      revert\n    tag_67:\n        /* \"test/UserStorage(Struct).sol\":867:887  User(_name, _age, 0) */\n      mload(0x40)\n      dup1\n      0x60\n      add\n      0x40\n      mstore\n      dup1\n        /* \"test/UserStorage(Struct).sol\":872:877  _name */\n      dup4\n        /* \"test/UserStorage(Struct).sol\":867:887  User(_name, _age, 0) */\n      dup2\n      mstore\n      0x20\n      add\n        /* \"test/UserStorage(Struct).sol\":879:883  _age */\n      dup3\n        /* \"test/UserStorage(Struct).sol\":867:887  User(_name, _age, 0) */\n      dup2\n      mstore\n      0x20\n      add\n        /* \"test/UserStorage(Struct).sol\":885:886  0 */\n      0x00\n        /* \"test/UserStorage(Struct).sol\":867:887  User(_name, _age, 0) */\n      dup2\n      mstore\n      pop\n        /* \"test/UserStorage(Struct).sol\":847:852  users */\n      0x00\n        /* \"test/UserStorage(Struct).sol\":847:864  users[msg.sender] */\n      0x00\n        /* \"test/UserStorage(Struct).sol\":853:863  msg.sender */\n      caller\n        /* \"test/UserStorage(Struct).sol\":847:864  users[msg.sender] */\n      0xffffffffffffffffffffffffffffffffffffffff\n      and\n      0xffffffffffffffffffffffffffffffffffffffff\n      and\n      dup2\n      mstore\n      0x20\n      add\n      swap1\n      dup2\n      mstore\n      0x20\n      add\n      0x00\n      keccak256\n        /* \"test/UserStorage(Struct).sol\":847:887  users[msg.sender] = User(_name, _age, 0) */\n      0x00\n      dup3\n      add\n      mload\n      dup2\n      0x00\n      add\n      swap1\n      dup2\n      tag_71\n      swap2\n      swap1\n      tag_72\n      jump\t// in\n    tag_71:\n      pop\n      0x20\n      dup3\n      add\n      mload\n      dup2\n      0x01\n      add\n      sstore\n      0x40\n      dup3\n      add\n      mload\n      dup2\n      0x02\n      add\n      sstore\n      swap1\n      pop\n      pop\n        /* \"test/UserStorage(Struct).sol\":919:923  true */\n      0x01\n        /* \"test/UserStorage(Struct).sol\":898:904  isUser */\n      dup1\n        /* \"test/UserStorage(Struct).sol\":898:916  isUser[msg.sender] */\n      0x00\n        /* \"test/UserStorage(Struct).sol\":905:915  msg.sender */\n      caller\n        /* \"test/UserStorage(Struct).sol\":898:916  isUser[msg.sender] */\n      0xffffffffffffffffffffffffffffffffffffffff\n      and\n      0xffffffffffffffffffffffffffffffffffffffff\n      and\n      dup2\n      mstore\n      0x20\n      add\n      swap1\n      dup2\n      mstore\n      0x20\n      add\n      0x00\n      keccak256\n      0x00\n        /* \"test/UserStorage(Struct).sol\":898:923  isUser[msg.sender] = true */\n      0x0100\n      exp\n      dup2\n      sload\n      dup2\n      0xff\n      mul\n      not\n      and\n      swap1\n      dup4\n      iszero\n      iszero\n      mul\n      or\n      swap1\n      sstore\n      pop\n        /* \"test/UserStorage(Struct).sol\":934:942  userList */\n      0x02\n        /* \"test/UserStorage(Struct).sol\":948:958  msg.sender */\n      caller\n        /* \"test/UserStorage(Struct).sol\":934:959  userList.push(msg.sender) */\n      swap1\n      dup1\n      0x01\n      dup2\n      sload\n      add\n      dup1\n      dup3\n      sstore\n      dup1\n      swap2\n      pop\n      pop\n      0x01\n      swap1\n      sub\n      swap1\n      0x00\n      mstore\n      keccak256(0x00, 0x20)\n      add\n      0x00\n      swap1\n      swap2\n      swap1\n      swap2\n      swap1\n      swap2\n      0x0100\n      exp\n      dup2\n      sload\n      dup2\n      0xffffffffffffffffffffffffffffffffffffffff\n      mul\n      not\n      and\n      swap1\n      dup4\n      0xffffffffffffffffffffffffffffffffffffffff\n      and\n      mul\n      or\n      swap1\n      sstore\n      pop\n        /* \"test/UserStorage(Struct).sol\":992:1002  msg.sender */\n      caller\n        /* \"test/UserStorage(Struct).sol\":977:1016  UserRegistered(msg.sender, _name, _age) */\n      0xffffffffffffffffffffffffffffffffffffffff\n      and\n      0x89105a1c6a3c2fbd471255c66a31ccab604af5697f67d7e2e9a0028c5e4dbd91\n        /* \"test/UserStorage(Struct).sol\":1004:1009  _name */\n      dup4\n        /* \"test/UserStorage(Struct).sol\":1011:1015  _age */\n      dup4\n        /* \"test/UserStorage(Struct).sol\":977:1016  UserRegistered(msg.sender, _name, _age) */\n      mload(0x40)\n      tag_74\n      swap3\n      swap2\n      swap1\n      tag_75\n      jump\t// in\n    tag_74:\n      mload(0x40)\n      dup1\n      swap2\n      sub\n      swap1\n      log2\n        /* \"test/UserStorage(Struct).sol\":762:1024  function register(string memory _name, uint256 _age) public notRegistered {... */\n      pop\n      pop\n      jump\t// out\n        /* \"test/UserStorage(Struct).sol\":1032:1255  function updateScore(uint256 _score) public onlyRegistered {... */\n    tag_41:\n        /* \"test/UserStorage(Struct).sol\":543:549  isUser */\n      0x01\n        /* \"test/UserStorage(Struct).sol\":543:561  isUser[msg.sender] */\n      0x00\n        /* \"test/UserStorage(Struct).sol\":550:560  msg.sender */\n      caller\n        /* \"test/UserStorage(Struct).sol\":543:561  isUser[msg.sender] */\n      0xffffffffffffffffffffffffffffffffffffffff\n      and\n      0xffffffffffffffffffffffffffffffffffffffff\n      and\n      dup2\n      mstore\n      0x20\n      add\n      swap1\n      dup2\n      mstore\n      0x20\n      add\n      0x00\n      keccak256\n      0x00\n      swap1\n      sload\n      swap1\n      0x0100\n      exp\n      swap1\n      div\n      0xff\n      and\n        /* \"test/UserStorage(Struct).sol\":535:580  require(isUser[msg.sender], \"Not registered\") */\n      tag_77\n      jumpi\n      mload(0x40)\n      0x08c379a000000000000000000000000000000000000000000000000000000000\n      dup2\n      mstore\n      0x04\n      add\n      tag_78\n      swap1\n      tag_52\n      jump\t// in\n    tag_78:\n      mload(0x40)\n      dup1\n      swap2\n      sub\n      swap1\n      revert\n    tag_77:\n        /* \"test/UserStorage(Struct).sol\":1102:1118  uint256 oldScore */\n      0x00\n        /* \"test/UserStorage(Struct).sol\":1121:1126  users */\n      0x00\n        /* \"test/UserStorage(Struct).sol\":1121:1138  users[msg.sender] */\n      0x00\n        /* \"test/UserStorage(Struct).sol\":1127:1137  msg.sender */\n      caller\n        /* \"test/UserStorage(Struct).sol\":1121:1138  users[msg.sender] */\n      0xffffffffffffffffffffffffffffffffffffffff\n      and\n      0xffffffffffffffffffffffffffffffffffffffff\n      and\n      dup2\n      mstore\n      0x20\n      add\n      swap1\n      dup2\n      mstore\n      0x20\n      add\n      0x00\n      keccak256\n        /* \"test/UserStorage(Struct).sol\":1121:1144  users[msg.sender].score */\n      0x02\n      add\n      sload\n        /* \"test/UserStorage(Struct).sol\":1102:1144  uint256 oldScore = users[msg.sender].score */\n      swap1\n      pop\n        /* \"test/UserStorage(Struct).sol\":1181:1187  _score */\n      dup2\n        /* \"test/UserStorage(Struct).sol\":1155:1160  users */\n      0x00\n        /* \"test/UserStorage(Struct).sol\":1155:1172  users[msg.sender] */\n      0x00\n        /* \"test/UserStorage(Struct).sol\":1161:1171  msg.sender */\n      caller\n        /* \"test/UserStorage(Struct).sol\":1155:1172  users[msg.sender] */\n      0xffffffffffffffffffffffffffffffffffffffff\n      and\n      0xffffffffffffffffffffffffffffffffffffffff\n      and\n      dup2\n      mstore\n      0x20\n      add\n      swap1\n      dup2\n      mstore\n      0x20\n      add\n      0x00\n      keccak256\n        /* \"test/UserStorage(Struct).sol\":1155:1178  users[msg.sender].score */\n      0x02\n      add\n        /* \"test/UserStorage(Struct).sol\":1155:1187  users[msg.sender].score = _score */\n      dup2\n      swap1\n      sstore\n      pop\n        /* \"test/UserStorage(Struct).sol\":1218:1228  msg.sender */\n      caller\n        /* \"test/UserStorage(Struct).sol\":1205:1247  ScoreUpdated(msg.sender, oldScore, _score) */\n      0xffffffffffffffffffffffffffffffffffffffff\n      and\n      0x91878448ef87c3db4aeb83e60e7deb1240ecae3fd04975ec93547398514cb4ed\n        /* \"test/UserStorage(Struct).sol\":1230:1238  oldScore */\n      dup3\n        /* \"test/UserStorage(Struct).sol\":1240:1246  _score */\n      dup5\n        /* \"test/UserStorage(Struct).sol\":1205:1247  ScoreUpdated(msg.sender, oldScore, _score) */\n      mload(0x40)\n      tag_80\n      swap3\n      swap2\n      swap1\n      tag_81\n      jump\t// in\n    tag_80:\n      mload(0x40)\n      dup1\n      swap2\n      sub\n      swap1\n      log2\n        /* \"test/UserStorage(Struct).sol\":1091:1255  {... */\n      pop\n        /* \"test/UserStorage(Struct).sol\":1032:1255  function updateScore(uint256 _score) public onlyRegistered {... */\n      pop\n      jump\t// out\n        /* \"#utility.yul\":7:82   */\n    tag_82:\n        /* \"#utility.yul\":40:46   */\n      0x00\n        /* \"#utility.yul\":73:75   */\n      0x40\n        /* \"#utility.yul\":67:76   */\n      mload\n        /* \"#utility.yul\":57:76   */\n      swap1\n      pop\n        /* \"#utility.yul\":7:82   */\n      swap1\n      jump\t// out\n        /* \"#utility.yul\":88:205   */\n    tag_83:\n        /* \"#utility.yul\":197:198   */\n      0x00\n        /* \"#utility.yul\":194:195   */\n      0x00\n        /* \"#utility.yul\":187:199   */\n      revert\n        /* \"#utility.yul\":211:328   */\n    tag_84:\n        /* \"#utility.yul\":320:321   */\n      0x00\n        /* \"#utility.yul\":317:318   */\n      0x00\n        /* \"#utility.yul\":310:322   */\n      revert\n        /* \"#utility.yul\":334:460   */\n    tag_85:\n        /* \"#utility.yul\":371:378   */\n      0x00\n        /* \"#utility.yul\":411:453   */\n      0xffffffffffffffffffffffffffffffffffffffff\n        /* \"#utility.yul\":404:409   */\n      dup3\n        /* \"#utility.yul\":400:454   */\n      and\n        /* \"#utility.yul\":389:454   */\n      swap1\n      pop\n        /* \"#utility.yul\":334:460   */\n      swap2\n      swap1\n      pop\n      jump\t// out\n        /* \"#utility.yul\":466:562   */\n    tag_86:\n        /* \"#utility.yul\":503:510   */\n      0x00\n        /* \"#utility.yul\":532:556   */\n      tag_136\n        /* \"#utility.yul\":550:555   */\n      dup3\n        /* \"#utility.yul\":532:556   */\n      tag_85\n      jump\t// in\n    tag_136:\n        /* \"#utility.yul\":521:556   */\n      swap1\n      pop\n        /* \"#utility.yul\":466:562   */\n      swap2\n      swap1\n      pop\n      jump\t// out\n        /* \"#utility.yul\":568:690   */\n    tag_87:\n        /* \"#utility.yul\":641:665   */\n      tag_138\n        /* \"#utility.yul\":659:664   */\n      dup2\n        /* \"#utility.yul\":641:665   */\n      tag_86\n      jump\t// in\n    tag_138:\n        /* \"#utility.yul\":634:639   */\n      dup2\n        /* \"#utility.yul\":631:666   */\n      eq\n        /* \"#utility.yul\":621:684   */\n      tag_139\n      jumpi\n        /* \"#utility.yul\":680:681   */\n      0x00\n        /* \"#utility.yul\":677:678   */\n      0x00\n        /* \"#utility.yul\":670:682   */\n      revert\n        /* \"#utility.yul\":621:684   */\n    tag_139:\n        /* \"#utility.yul\":568:690   */\n      pop\n      jump\t// out\n        /* \"#utility.yul\":696:835   */\n    tag_88:\n        /* \"#utility.yul\":742:747   */\n      0x00\n        /* \"#utility.yul\":780:786   */\n      dup2\n        /* \"#utility.yul\":767:787   */\n      calldataload\n        /* \"#utility.yul\":758:787   */\n      swap1\n      pop\n        /* \"#utility.yul\":796:829   */\n      tag_141\n        /* \"#utility.yul\":823:828   */\n      dup2\n        /* \"#utility.yul\":796:829   */\n      tag_87\n      jump\t// in\n    tag_141:\n        /* \"#utility.yul\":696:835   */\n      swap3\n      swap2\n      pop\n      pop\n      jump\t// out\n        /* \"#utility.yul\":841:1170   */\n    tag_13:\n        /* \"#utility.yul\":900:906   */\n      0x00\n        /* \"#utility.yul\":949:951   */\n      0x20\n        /* \"#utility.yul\":937:946   */\n      dup3\n        /* \"#utility.yul\":928:935   */\n      dup5\n        /* \"#utility.yul\":924:947   */\n      sub\n        /* \"#utility.yul\":920:952   */\n      slt\n        /* \"#utility.yul\":917:1036   */\n      iszero\n      tag_143\n      jumpi\n        /* \"#utility.yul\":955:1034   */\n      tag_144\n      tag_83\n      jump\t// in\n    tag_144:\n        /* \"#utility.yul\":917:1036   */\n    tag_143:\n        /* \"#utility.yul\":1075:1076   */\n      0x00\n        /* \"#utility.yul\":1100:1153   */\n      tag_145\n        /* \"#utility.yul\":1145:1152   */\n      dup5\n        /* \"#utility.yul\":1136:1142   */\n      dup3\n        /* \"#utility.yul\":1125:1134   */\n      dup6\n        /* \"#utility.yul\":1121:1143   */\n      add\n        /* \"#utility.yul\":1100:1153   */\n      tag_88\n      jump\t// in\n    tag_145:\n        /* \"#utility.yul\":1090:1153   */\n      swap2\n      pop\n        /* \"#utility.yul\":1046:1163   */\n      pop\n        /* \"#utility.yul\":841:1170   */\n      swap3\n      swap2\n      pop\n      pop\n      jump\t// out\n        /* \"#utility.yul\":1176:1266   */\n    tag_89:\n        /* \"#utility.yul\":1210:1217   */\n      0x00\n        /* \"#utility.yul\":1253:1258   */\n      dup2\n        /* \"#utility.yul\":1246:1259   */\n      iszero\n        /* \"#utility.yul\":1239:1260   */\n      iszero\n        /* \"#utility.yul\":1228:1260   */\n      swap1\n      pop\n        /* \"#utility.yul\":1176:1266   */\n      swap2\n      swap1\n      pop\n      jump\t// out\n        /* \"#utility.yul\":1272:1381   */\n    tag_90:\n        /* \"#utility.yul\":1353:1374   */\n      tag_148\n        /* \"#utility.yul\":1368:1373   */\n      dup2\n        /* \"#utility.yul\":1353:1374   */\n      tag_89\n      jump\t// in\n    tag_148:\n        /* \"#utility.yul\":1348:1351   */\n      dup3\n        /* \"#utility.yul\":1341:1375   */\n      mstore\n        /* \"#utility.yul\":1272:1381   */\n      pop\n      pop\n      jump\t// out\n        /* \"#utility.yul\":1387:1597   */\n    tag_16:\n        /* \"#utility.yul\":1474:1478   */\n      0x00\n        /* \"#utility.yul\":1512:1514   */\n      0x20\n        /* \"#utility.yul\":1501:1510   */\n      dup3\n        /* \"#utility.yul\":1497:1515   */\n      add\n        /* \"#utility.yul\":1489:1515   */\n      swap1\n      pop\n        /* \"#utility.yul\":1525:1590   */\n      tag_150\n        /* \"#utility.yul\":1587:1588   */\n      0x00\n        /* \"#utility.yul\":1576:1585   */\n      dup4\n        /* \"#utility.yul\":1572:1589   */\n      add\n        /* \"#utility.yul\":1563:1569   */\n      dup5\n        /* \"#utility.yul\":1525:1590   */\n      tag_90\n      jump\t// in\n    tag_150:\n        /* \"#utility.yul\":1387:1597   */\n      swap3\n      swap2\n      pop\n      pop\n      jump\t// out\n        /* \"#utility.yul\":1603:1702   */\n    tag_91:\n        /* \"#utility.yul\":1655:1661   */\n      0x00\n        /* \"#utility.yul\":1689:1694   */\n      dup2\n        /* \"#utility.yul\":1683:1695   */\n      mload\n        /* \"#utility.yul\":1673:1695   */\n      swap1\n      pop\n        /* \"#utility.yul\":1603:1702   */\n      swap2\n      swap1\n      pop\n      jump\t// out\n        /* \"#utility.yul\":1708:1877   */\n    tag_92:\n        /* \"#utility.yul\":1792:1803   */\n      0x00\n        /* \"#utility.yul\":1826:1832   */\n      dup3\n        /* \"#utility.yul\":1821:1824   */\n      dup3\n        /* \"#utility.yul\":1814:1833   */\n      mstore\n        /* \"#utility.yul\":1866:1870   */\n      0x20\n        /* \"#utility.yul\":1861:1864   */\n      dup3\n        /* \"#utility.yul\":1857:1871   */\n      add\n        /* \"#utility.yul\":1842:1871   */\n      swap1\n      pop\n        /* \"#utility.yul\":1708:1877   */\n      swap3\n      swap2\n      pop\n      pop\n      jump\t// out\n        /* \"#utility.yul\":1883:2022   */\n    tag_93:\n        /* \"#utility.yul\":1972:1978   */\n      dup3\n        /* \"#utility.yul\":1967:1970   */\n      dup2\n        /* \"#utility.yul\":1962:1965   */\n      dup4\n        /* \"#utility.yul\":1956:1979   */\n      mcopy\n        /* \"#utility.yul\":2013:2014   */\n      0x00\n        /* \"#utility.yul\":2004:2010   */\n      dup4\n        /* \"#utility.yul\":1999:2002   */\n      dup4\n        /* \"#utility.yul\":1995:2011   */\n      add\n        /* \"#utility.yul\":1988:2015   */\n      mstore\n        /* \"#utility.yul\":1883:2022   */\n      pop\n      pop\n      pop\n      jump\t// out\n        /* \"#utility.yul\":2028:2130   */\n    tag_94:\n        /* \"#utility.yul\":2069:2075   */\n      0x00\n        /* \"#utility.yul\":2120:2122   */\n      0x1f\n        /* \"#utility.yul\":2116:2123   */\n      not\n        /* \"#utility.yul\":2111:2113   */\n      0x1f\n        /* \"#utility.yul\":2104:2109   */\n      dup4\n        /* \"#utility.yul\":2100:2114   */\n      add\n        /* \"#utility.yul\":2096:2124   */\n      and\n        /* \"#utility.yul\":2086:2124   */\n      swap1\n      pop\n        /* \"#utility.yul\":2028:2130   */\n      swap2\n      swap1\n      pop\n      jump\t// out\n        /* \"#utility.yul\":2136:2513   */\n    tag_95:\n        /* \"#utility.yul\":2224:2227   */\n      0x00\n        /* \"#utility.yul\":2252:2291   */\n      tag_156\n        /* \"#utility.yul\":2285:2290   */\n      dup3\n        /* \"#utility.yul\":2252:2291   */\n      tag_91\n      jump\t// in\n    tag_156:\n        /* \"#utility.yul\":2307:2378   */\n      tag_157\n        /* \"#utility.yul\":2371:2377   */\n      dup2\n        /* \"#utility.yul\":2366:2369   */\n      dup6\n        /* \"#utility.yul\":2307:2378   */\n      tag_92\n      jump\t// in\n    tag_157:\n        /* \"#utility.yul\":2300:2378   */\n      swap4\n      pop\n        /* \"#utility.yul\":2387:2452   */\n      tag_158\n        /* \"#utility.yul\":2445:2451   */\n      dup2\n        /* \"#utility.yul\":2440:2443   */\n      dup6\n        /* \"#utility.yul\":2433:2437   */\n      0x20\n        /* \"#utility.yul\":2426:2431   */\n      dup7\n        /* \"#utility.yul\":2422:2438   */\n      add\n        /* \"#utility.yul\":2387:2452   */\n      tag_93\n      jump\t// in\n    tag_158:\n        /* \"#utility.yul\":2477:2506   */\n      tag_159\n        /* \"#utility.yul\":2499:2505   */\n      dup2\n        /* \"#utility.yul\":2477:2506   */\n      tag_94\n      jump\t// in\n    tag_159:\n        /* \"#utility.yul\":2472:2475   */\n      dup5\n        /* \"#utility.yul\":2468:2507   */\n      add\n        /* \"#utility.yul\":2461:2507   */\n      swap2\n      pop\n        /* \"#utility.yul\":2228:2513   */\n      pop\n        /* \"#utility.yul\":2136:2513   */\n      swap3\n      swap2\n      pop\n      pop\n      jump\t// out\n        /* \"#utility.yul\":2519:2596   */\n    tag_96:\n        /* \"#utility.yul\":2556:2563   */\n      0x00\n        /* \"#utility.yul\":2585:2590   */\n      dup2\n        /* \"#utility.yul\":2574:2590   */\n      swap1\n      pop\n        /* \"#utility.yul\":2519:2596   */\n      swap2\n      swap1\n      pop\n      jump\t// out\n        /* \"#utility.yul\":2602:2720   */\n    tag_97:\n        /* \"#utility.yul\":2689:2713   */\n      tag_162\n        /* \"#utility.yul\":2707:2712   */\n      dup2\n        /* \"#utility.yul\":2689:2713   */\n      tag_96\n      jump\t// in\n    tag_162:\n        /* \"#utility.yul\":2684:2687   */\n      dup3\n        /* \"#utility.yul\":2677:2714   */\n      mstore\n        /* \"#utility.yul\":2602:2720   */\n      pop\n      pop\n      jump\t// out\n        /* \"#utility.yul\":2726:3259   */\n    tag_21:\n        /* \"#utility.yul\":2895:2899   */\n      0x00\n        /* \"#utility.yul\":2933:2935   */\n      0x60\n        /* \"#utility.yul\":2922:2931   */\n      dup3\n        /* \"#utility.yul\":2918:2936   */\n      add\n        /* \"#utility.yul\":2910:2936   */\n      swap1\n      pop\n        /* \"#utility.yul\":2982:2991   */\n      dup2\n        /* \"#utility.yul\":2976:2980   */\n      dup2\n        /* \"#utility.yul\":2972:2992   */\n      sub\n        /* \"#utility.yul\":2968:2969   */\n      0x00\n        /* \"#utility.yul\":2957:2966   */\n      dup4\n        /* \"#utility.yul\":2953:2970   */\n      add\n        /* \"#utility.yul\":2946:2993   */\n      mstore\n        /* \"#utility.yul\":3010:3088   */\n      tag_164\n        /* \"#utility.yul\":3083:3087   */\n      dup2\n        /* \"#utility.yul\":3074:3080   */\n      dup7\n        /* \"#utility.yul\":3010:3088   */\n      tag_95\n      jump\t// in\n    tag_164:\n        /* \"#utility.yul\":3002:3088   */\n      swap1\n      pop\n        /* \"#utility.yul\":3098:3170   */\n      tag_165\n        /* \"#utility.yul\":3166:3168   */\n      0x20\n        /* \"#utility.yul\":3155:3164   */\n      dup4\n        /* \"#utility.yul\":3151:3169   */\n      add\n        /* \"#utility.yul\":3142:3148   */\n      dup6\n        /* \"#utility.yul\":3098:3170   */\n      tag_97\n      jump\t// in\n    tag_165:\n        /* \"#utility.yul\":3180:3252   */\n      tag_166\n        /* \"#utility.yul\":3248:3250   */\n      0x40\n        /* \"#utility.yul\":3237:3246   */\n      dup4\n        /* \"#utility.yul\":3233:3251   */\n      add\n        /* \"#utility.yul\":3224:3230   */\n      dup5\n        /* \"#utility.yul\":3180:3252   */\n      tag_97\n      jump\t// in\n    tag_166:\n        /* \"#utility.yul\":2726:3259   */\n      swap5\n      swap4\n      pop\n      pop\n      pop\n      pop\n      jump\t// out\n        /* \"#utility.yul\":3265:3387   */\n    tag_98:\n        /* \"#utility.yul\":3338:3362   */\n      tag_168\n        /* \"#utility.yul\":3356:3361   */\n      dup2\n        /* \"#utility.yul\":3338:3362   */\n      tag_96\n      jump\t// in\n    tag_168:\n        /* \"#utility.yul\":3331:3336   */\n      dup2\n        /* \"#utility.yul\":3328:3363   */\n      eq\n        /* \"#utility.yul\":3318:3381   */\n      tag_169\n      jumpi\n        /* \"#utility.yul\":3377:3378   */\n      0x00\n        /* \"#utility.yul\":3374:3375   */\n      0x00\n        /* \"#utility.yul\":3367:3379   */\n      revert\n        /* \"#utility.yul\":3318:3381   */\n    tag_169:\n        /* \"#utility.yul\":3265:3387   */\n      pop\n      jump\t// out\n        /* \"#utility.yul\":3393:3532   */\n    tag_99:\n        /* \"#utility.yul\":3439:3444   */\n      0x00\n        /* \"#utility.yul\":3477:3483   */\n      dup2\n        /* \"#utility.yul\":3464:3484   */\n      calldataload\n        /* \"#utility.yul\":3455:3484   */\n      swap1\n      pop\n        /* \"#utility.yul\":3493:3526   */\n      tag_171\n        /* \"#utility.yul\":3520:3525   */\n      dup2\n        /* \"#utility.yul\":3493:3526   */\n      tag_98\n      jump\t// in\n    tag_171:\n        /* \"#utility.yul\":3393:3532   */\n      swap3\n      swap2\n      pop\n      pop\n      jump\t// out\n        /* \"#utility.yul\":3538:3867   */\n    tag_27:\n        /* \"#utility.yul\":3597:3603   */\n      0x00\n        /* \"#utility.yul\":3646:3648   */\n      0x20\n        /* \"#utility.yul\":3634:3643   */\n      dup3\n        /* \"#utility.yul\":3625:3632   */\n      dup5\n        /* \"#utility.yul\":3621:3644   */\n      sub\n        /* \"#utility.yul\":3617:3649   */\n      slt\n        /* \"#utility.yul\":3614:3733   */\n      iszero\n      tag_173\n      jumpi\n        /* \"#utility.yul\":3652:3731   */\n      tag_174\n      tag_83\n      jump\t// in\n    tag_174:\n        /* \"#utility.yul\":3614:3733   */\n    tag_173:\n        /* \"#utility.yul\":3772:3773   */\n      0x00\n        /* \"#utility.yul\":3797:3850   */\n      tag_175\n        /* \"#utility.yul\":3842:3849   */\n      dup5\n        /* \"#utility.yul\":3833:3839   */\n      dup3\n        /* \"#utility.yul\":3822:3831   */\n      dup6\n        /* \"#utility.yul\":3818:3840   */\n      add\n        /* \"#utility.yul\":3797:3850   */\n      tag_99\n      jump\t// in\n    tag_175:\n        /* \"#utility.yul\":3787:3850   */\n      swap2\n      pop\n        /* \"#utility.yul\":3743:3860   */\n      pop\n        /* \"#utility.yul\":3538:3867   */\n      swap3\n      swap2\n      pop\n      pop\n      jump\t// out\n        /* \"#utility.yul\":3873:3991   */\n    tag_100:\n        /* \"#utility.yul\":3960:3984   */\n      tag_177\n        /* \"#utility.yul\":3978:3983   */\n      dup2\n        /* \"#utility.yul\":3960:3984   */\n      tag_86\n      jump\t// in\n    tag_177:\n        /* \"#utility.yul\":3955:3958   */\n      dup3\n        /* \"#utility.yul\":3948:3985   */\n      mstore\n        /* \"#utility.yul\":3873:3991   */\n      pop\n      pop\n      jump\t// out\n        /* \"#utility.yul\":3997:4219   */\n    tag_30:\n        /* \"#utility.yul\":4090:4094   */\n      0x00\n        /* \"#utility.yul\":4128:4130   */\n      0x20\n        /* \"#utility.yul\":4117:4126   */\n      dup3\n        /* \"#utility.yul\":4113:4131   */\n      add\n        /* \"#utility.yul\":4105:4131   */\n      swap1\n      pop\n        /* \"#utility.yul\":4141:4212   */\n      tag_179\n        /* \"#utility.yul\":4209:4210   */\n      0x00\n        /* \"#utility.yul\":4198:4207   */\n      dup4\n        /* \"#utility.yul\":4194:4211   */\n      add\n        /* \"#utility.yul\":4185:4191   */\n      dup5\n        /* \"#utility.yul\":4141:4212   */\n      tag_100\n      jump\t// in\n    tag_179:\n        /* \"#utility.yul\":3997:4219   */\n      swap3\n      swap2\n      pop\n      pop\n      jump\t// out\n        /* \"#utility.yul\":4225:4342   */\n    tag_101:\n        /* \"#utility.yul\":4334:4335   */\n      0x00\n        /* \"#utility.yul\":4331:4332   */\n      0x00\n        /* \"#utility.yul\":4324:4336   */\n      revert\n        /* \"#utility.yul\":4348:4465   */\n    tag_102:\n        /* \"#utility.yul\":4457:4458   */\n      0x00\n        /* \"#utility.yul\":4454:4455   */\n      0x00\n        /* \"#utility.yul\":4447:4459   */\n      revert\n        /* \"#utility.yul\":4471:4651   */\n    tag_103:\n        /* \"#utility.yul\":4519:4596   */\n      0x4e487b7100000000000000000000000000000000000000000000000000000000\n        /* \"#utility.yul\":4516:4517   */\n      0x00\n        /* \"#utility.yul\":4509:4597   */\n      mstore\n        /* \"#utility.yul\":4616:4620   */\n      0x41\n        /* \"#utility.yul\":4613:4614   */\n      0x04\n        /* \"#utility.yul\":4606:4621   */\n      mstore\n        /* \"#utility.yul\":4640:4644   */\n      0x24\n        /* \"#utility.yul\":4637:4638   */\n      0x00\n        /* \"#utility.yul\":4630:4645   */\n      revert\n        /* \"#utility.yul\":4657:4938   */\n    tag_104:\n        /* \"#utility.yul\":4740:4767   */\n      tag_184\n        /* \"#utility.yul\":4762:4766   */\n      dup3\n        /* \"#utility.yul\":4740:4767   */\n      tag_94\n      jump\t// in\n    tag_184:\n        /* \"#utility.yul\":4732:4738   */\n      dup2\n        /* \"#utility.yul\":4728:4768   */\n      add\n        /* \"#utility.yul\":4870:4876   */\n      dup2\n        /* \"#utility.yul\":4858:4868   */\n      dup2\n        /* \"#utility.yul\":4855:4877   */\n      lt\n        /* \"#utility.yul\":4834:4852   */\n      0xffffffffffffffff\n        /* \"#utility.yul\":4822:4832   */\n      dup3\n        /* \"#utility.yul\":4819:4853   */\n      gt\n        /* \"#utility.yul\":4816:4878   */\n      or\n        /* \"#utility.yul\":4813:4901   */\n      iszero\n      tag_185\n      jumpi\n        /* \"#utility.yul\":4881:4899   */\n      tag_186\n      tag_103\n      jump\t// in\n    tag_186:\n        /* \"#utility.yul\":4813:4901   */\n    tag_185:\n        /* \"#utility.yul\":4921:4931   */\n      dup1\n        /* \"#utility.yul\":4917:4919   */\n      0x40\n        /* \"#utility.yul\":4910:4932   */\n      mstore\n        /* \"#utility.yul\":4700:4938   */\n      pop\n        /* \"#utility.yul\":4657:4938   */\n      pop\n      pop\n      jump\t// out\n        /* \"#utility.yul\":4944:5073   */\n    tag_105:\n        /* \"#utility.yul\":4978:4984   */\n      0x00\n        /* \"#utility.yul\":5005:5025   */\n      tag_188\n      tag_82\n      jump\t// in\n    tag_188:\n        /* \"#utility.yul\":4995:5025   */\n      swap1\n      pop\n        /* \"#utility.yul\":5034:5067   */\n      tag_189\n        /* \"#utility.yul\":5062:5066   */\n      dup3\n        /* \"#utility.yul\":5054:5060   */\n      dup3\n        /* \"#utility.yul\":5034:5067   */\n      tag_104\n      jump\t// in\n    tag_189:\n        /* \"#utility.yul\":4944:5073   */\n      swap2\n      swap1\n      pop\n      jump\t// out\n        /* \"#utility.yul\":5079:5387   */\n    tag_106:\n        /* \"#utility.yul\":5141:5145   */\n      0x00\n        /* \"#utility.yul\":5231:5249   */\n      0xffffffffffffffff\n        /* \"#utility.yul\":5223:5229   */\n      dup3\n        /* \"#utility.yul\":5220:5250   */\n      gt\n        /* \"#utility.yul\":5217:5273   */\n      iszero\n      tag_191\n      jumpi\n        /* \"#utility.yul\":5253:5271   */\n      tag_192\n      tag_103\n      jump\t// in\n    tag_192:\n        /* \"#utility.yul\":5217:5273   */\n    tag_191:\n        /* \"#utility.yul\":5291:5320   */\n      tag_193\n        /* \"#utility.yul\":5313:5319   */\n      dup3\n        /* \"#utility.yul\":5291:5320   */\n      tag_94\n      jump\t// in\n    tag_193:\n        /* \"#utility.yul\":5283:5320   */\n      swap1\n      pop\n        /* \"#utility.yul\":5375:5379   */\n      0x20\n        /* \"#utility.yul\":5369:5373   */\n      dup2\n        /* \"#utility.yul\":5365:5380   */\n      add\n        /* \"#utility.yul\":5357:5380   */\n      swap1\n      pop\n        /* \"#utility.yul\":5079:5387   */\n      swap2\n      swap1\n      pop\n      jump\t// out\n        /* \"#utility.yul\":5393:5541   */\n    tag_107:\n        /* \"#utility.yul\":5491:5497   */\n      dup3\n        /* \"#utility.yul\":5486:5489   */\n      dup2\n        /* \"#utility.yul\":5481:5484   */\n      dup4\n        /* \"#utility.yul\":5468:5498   */\n      calldatacopy\n        /* \"#utility.yul\":5532:5533   */\n      0x00\n        /* \"#utility.yul\":5523:5529   */\n      dup4\n        /* \"#utility.yul\":5518:5521   */\n      dup4\n        /* \"#utility.yul\":5514:5530   */\n      add\n        /* \"#utility.yul\":5507:5534   */\n      mstore\n        /* \"#utility.yul\":5393:5541   */\n      pop\n      pop\n      pop\n      jump\t// out\n        /* \"#utility.yul\":5547:5972   */\n    tag_108:\n        /* \"#utility.yul\":5625:5630   */\n      0x00\n        /* \"#utility.yul\":5650:5716   */\n      tag_196\n        /* \"#utility.yul\":5666:5715   */\n      tag_197\n        /* \"#utility.yul\":5708:5714   */\n      dup5\n        /* \"#utility.yul\":5666:5715   */\n      tag_106\n      jump\t// in\n    tag_197:\n        /* \"#utility.yul\":5650:5716   */\n      tag_105\n      jump\t// in\n    tag_196:\n        /* \"#utility.yul\":5641:5716   */\n      swap1\n      pop\n        /* \"#utility.yul\":5739:5745   */\n      dup3\n        /* \"#utility.yul\":5732:5737   */\n      dup2\n        /* \"#utility.yul\":5725:5746   */\n      mstore\n        /* \"#utility.yul\":5777:5781   */\n      0x20\n        /* \"#utility.yul\":5770:5775   */\n      dup2\n        /* \"#utility.yul\":5766:5782   */\n      add\n        /* \"#utility.yul\":5815:5818   */\n      dup5\n        /* \"#utility.yul\":5806:5812   */\n      dup5\n        /* \"#utility.yul\":5801:5804   */\n      dup5\n        /* \"#utility.yul\":5797:5813   */\n      add\n        /* \"#utility.yul\":5794:5819   */\n      gt\n        /* \"#utility.yul\":5791:5903   */\n      iszero\n      tag_198\n      jumpi\n        /* \"#utility.yul\":5822:5901   */\n      tag_199\n      tag_102\n      jump\t// in\n    tag_199:\n        /* \"#utility.yul\":5791:5903   */\n    tag_198:\n        /* \"#utility.yul\":5912:5966   */\n      tag_200\n        /* \"#utility.yul\":5959:5965   */\n      dup5\n        /* \"#utility.yul\":5954:5957   */\n      dup3\n        /* \"#utility.yul\":5949:5952   */\n      dup6\n        /* \"#utility.yul\":5912:5966   */\n      tag_107\n      jump\t// in\n    tag_200:\n        /* \"#utility.yul\":5631:5972   */\n      pop\n        /* \"#utility.yul\":5547:5972   */\n      swap4\n      swap3\n      pop\n      pop\n      pop\n      jump\t// out\n        /* \"#utility.yul\":5992:6332   */\n    tag_109:\n        /* \"#utility.yul\":6048:6053   */\n      0x00\n        /* \"#utility.yul\":6097:6100   */\n      dup3\n        /* \"#utility.yul\":6090:6094   */\n      0x1f\n        /* \"#utility.yul\":6082:6088   */\n      dup4\n        /* \"#utility.yul\":6078:6095   */\n      add\n        /* \"#utility.yul\":6074:6101   */\n      slt\n        /* \"#utility.yul\":6064:6186   */\n      tag_202\n      jumpi\n        /* \"#utility.yul\":6105:6184   */\n      tag_203\n      tag_101\n      jump\t// in\n    tag_203:\n        /* \"#utility.yul\":6064:6186   */\n    tag_202:\n        /* \"#utility.yul\":6222:6228   */\n      dup2\n        /* \"#utility.yul\":6209:6229   */\n      calldataload\n        /* \"#utility.yul\":6247:6326   */\n      tag_204\n        /* \"#utility.yul\":6322:6325   */\n      dup5\n        /* \"#utility.yul\":6314:6320   */\n      dup3\n        /* \"#utility.yul\":6307:6311   */\n      0x20\n        /* \"#utility.yul\":6299:6305   */\n      dup7\n        /* \"#utility.yul\":6295:6312   */\n      add\n        /* \"#utility.yul\":6247:6326   */\n      tag_108\n      jump\t// in\n    tag_204:\n        /* \"#utility.yul\":6238:6326   */\n      swap2\n      pop\n        /* \"#utility.yul\":6054:6332   */\n      pop\n        /* \"#utility.yul\":5992:6332   */\n      swap3\n      swap2\n      pop\n      pop\n      jump\t// out\n        /* \"#utility.yul\":6338:6992   */\n    tag_37:\n        /* \"#utility.yul\":6416:6422   */\n      0x00\n        /* \"#utility.yul\":6424:6430   */\n      0x00\n        /* \"#utility.yul\":6473:6475   */\n      0x40\n        /* \"#utility.yul\":6461:6470   */\n      dup4\n        /* \"#utility.yul\":6452:6459   */\n      dup6\n        /* \"#utility.yul\":6448:6471   */\n      sub\n        /* \"#utility.yul\":6444:6476   */\n      slt\n        /* \"#utility.yul\":6441:6560   */\n      iszero\n      tag_206\n      jumpi\n        /* \"#utility.yul\":6479:6558   */\n      tag_207\n      tag_83\n      jump\t// in\n    tag_207:\n        /* \"#utility.yul\":6441:6560   */\n    tag_206:\n        /* \"#utility.yul\":6627:6628   */\n      0x00\n        /* \"#utility.yul\":6616:6625   */\n      dup4\n        /* \"#utility.yul\":6612:6629   */\n      add\n        /* \"#utility.yul\":6599:6630   */\n      calldataload\n        /* \"#utility.yul\":6657:6675   */\n      0xffffffffffffffff\n        /* \"#utility.yul\":6649:6655   */\n      dup2\n        /* \"#utility.yul\":6646:6676   */\n      gt\n        /* \"#utility.yul\":6643:6760   */\n      iszero\n      tag_208\n      jumpi\n        /* \"#utility.yul\":6679:6758   */\n      tag_209\n      tag_84\n      jump\t// in\n    tag_209:\n        /* \"#utility.yul\":6643:6760   */\n    tag_208:\n        /* \"#utility.yul\":6784:6847   */\n      tag_210\n        /* \"#utility.yul\":6839:6846   */\n      dup6\n        /* \"#utility.yul\":6830:6836   */\n      dup3\n        /* \"#utility.yul\":6819:6828   */\n      dup7\n        /* \"#utility.yul\":6815:6837   */\n      add\n        /* \"#utility.yul\":6784:6847   */\n      tag_109\n      jump\t// in\n    tag_210:\n        /* \"#utility.yul\":6774:6847   */\n      swap3\n      pop\n        /* \"#utility.yul\":6570:6857   */\n      pop\n        /* \"#utility.yul\":6896:6898   */\n      0x20\n        /* \"#utility.yul\":6922:6975   */\n      tag_211\n        /* \"#utility.yul\":6967:6974   */\n      dup6\n        /* \"#utility.yul\":6958:6964   */\n      dup3\n        /* \"#utility.yul\":6947:6956   */\n      dup7\n        /* \"#utility.yul\":6943:6965   */\n      add\n        /* \"#utility.yul\":6922:6975   */\n      tag_99\n      jump\t// in\n    tag_211:\n        /* \"#utility.yul\":6912:6975   */\n      swap2\n      pop\n        /* \"#utility.yul\":6867:6985   */\n      pop\n        /* \"#utility.yul\":6338:6992   */\n      swap3\n      pop\n      swap3\n      swap1\n      pop\n      jump\t// out\n        /* \"#utility.yul\":6998:7178   */\n    tag_110:\n        /* \"#utility.yul\":7046:7123   */\n      0x4e487b7100000000000000000000000000000000000000000000000000000000\n        /* \"#utility.yul\":7043:7044   */\n      0x00\n        /* \"#utility.yul\":7036:7124   */\n      mstore\n        /* \"#utility.yul\":7143:7147   */\n      0x22\n        /* \"#utility.yul\":7140:7141   */\n      0x04\n        /* \"#utility.yul\":7133:7148   */\n      mstore\n        /* \"#utility.yul\":7167:7171   */\n      0x24\n        /* \"#utility.yul\":7164:7165   */\n      0x00\n        /* \"#utility.yul\":7157:7172   */\n      revert\n        /* \"#utility.yul\":7184:7504   */\n    tag_44:\n        /* \"#utility.yul\":7228:7234   */\n      0x00\n        /* \"#utility.yul\":7265:7266   */\n      0x02\n        /* \"#utility.yul\":7259:7263   */\n      dup3\n        /* \"#utility.yul\":7255:7267   */\n      div\n        /* \"#utility.yul\":7245:7267   */\n      swap1\n      pop\n        /* \"#utility.yul\":7312:7313   */\n      0x01\n        /* \"#utility.yul\":7306:7310   */\n      dup3\n        /* \"#utility.yul\":7302:7314   */\n      and\n        /* \"#utility.yul\":7333:7351   */\n      dup1\n        /* \"#utility.yul\":7323:7404   */\n      tag_214\n      jumpi\n        /* \"#utility.yul\":7389:7393   */\n      0x7f\n        /* \"#utility.yul\":7381:7387   */\n      dup3\n        /* \"#utility.yul\":7377:7394   */\n      and\n        /* \"#utility.yul\":7367:7394   */\n      swap2\n      pop\n        /* \"#utility.yul\":7323:7404   */\n    tag_214:\n        /* \"#utility.yul\":7451:7453   */\n      0x20\n        /* \"#utility.yul\":7443:7449   */\n      dup3\n        /* \"#utility.yul\":7440:7454   */\n      lt\n        /* \"#utility.yul\":7420:7438   */\n      dup2\n        /* \"#utility.yul\":7417:7455   */\n      sub\n        /* \"#utility.yul\":7414:7498   */\n      tag_215\n      jumpi\n        /* \"#utility.yul\":7470:7488   */\n      tag_216\n      tag_110\n      jump\t// in\n    tag_216:\n        /* \"#utility.yul\":7414:7498   */\n    tag_215:\n        /* \"#utility.yul\":7235:7504   */\n      pop\n        /* \"#utility.yul\":7184:7504   */\n      swap2\n      swap1\n      pop\n      jump\t// out\n        /* \"#utility.yul\":7510:7674   */\n    tag_111:\n        /* \"#utility.yul\":7650:7666   */\n      0x4e6f742072656769737465726564000000000000000000000000000000000000\n        /* \"#utility.yul\":7646:7647   */\n      0x00\n        /* \"#utility.yul\":7638:7644   */\n      dup3\n        /* \"#utility.yul\":7634:7648   */\n      add\n        /* \"#utility.yul\":7627:7667   */\n      mstore\n        /* \"#utility.yul\":7510:7674   */\n      pop\n      jump\t// out\n        /* \"#utility.yul\":7680:8046   */\n    tag_112:\n        /* \"#utility.yul\":7822:7825   */\n      0x00\n        /* \"#utility.yul\":7843:7910   */\n      tag_219\n        /* \"#utility.yul\":7907:7909   */\n      0x0e\n        /* \"#utility.yul\":7902:7905   */\n      dup4\n        /* \"#utility.yul\":7843:7910   */\n      tag_92\n      jump\t// in\n    tag_219:\n        /* \"#utility.yul\":7836:7910   */\n      swap2\n      pop\n        /* \"#utility.yul\":7919:8012   */\n      tag_220\n        /* \"#utility.yul\":8008:8011   */\n      dup3\n        /* \"#utility.yul\":7919:8012   */\n      tag_111\n      jump\t// in\n    tag_220:\n        /* \"#utility.yul\":8037:8039   */\n      0x20\n        /* \"#utility.yul\":8032:8035   */\n      dup3\n        /* \"#utility.yul\":8028:8040   */\n      add\n        /* \"#utility.yul\":8021:8040   */\n      swap1\n      pop\n        /* \"#utility.yul\":7680:8046   */\n      swap2\n      swap1\n      pop\n      jump\t// out\n        /* \"#utility.yul\":8052:8471   */\n    tag_52:\n        /* \"#utility.yul\":8218:8222   */\n      0x00\n        /* \"#utility.yul\":8256:8258   */\n      0x20\n        /* \"#utility.yul\":8245:8254   */\n      dup3\n        /* \"#utility.yul\":8241:8259   */\n      add\n        /* \"#utility.yul\":8233:8259   */\n      swap1\n      pop\n        /* \"#utility.yul\":8305:8314   */\n      dup2\n        /* \"#utility.yul\":8299:8303   */\n      dup2\n        /* \"#utility.yul\":8295:8315   */\n      sub\n        /* \"#utility.yul\":8291:8292   */\n      0x00\n        /* \"#utility.yul\":8280:8289   */\n      dup4\n        /* \"#utility.yul\":8276:8293   */\n      add\n        /* \"#utility.yul\":8269:8316   */\n      mstore\n        /* \"#utility.yul\":8333:8464   */\n      tag_222\n        /* \"#utility.yul\":8459:8463   */\n      dup2\n        /* \"#utility.yul\":8333:8464   */\n      tag_112\n      jump\t// in\n    tag_222:\n        /* \"#utility.yul\":8325:8464   */\n      swap1\n      pop\n        /* \"#utility.yul\":8052:8471   */\n      swap2\n      swap1\n      pop\n      jump\t// out\n        /* \"#utility.yul\":8477:8645   */\n    tag_113:\n        /* \"#utility.yul\":8617:8637   */\n      0x416c726561647920726567697374657265640000000000000000000000000000\n        /* \"#utility.yul\":8613:8614   */\n      0x00\n        /* \"#utility.yul\":8605:8611   */\n      dup3\n        /* \"#utility.yul\":8601:8615   */\n      add\n        /* \"#utility.yul\":8594:8638   */\n      mstore\n        /* \"#utility.yul\":8477:8645   */\n      pop\n      jump\t// out\n        /* \"#utility.yul\":8651:9017   */\n    tag_114:\n        /* \"#utility.yul\":8793:8796   */\n      0x00\n        /* \"#utility.yul\":8814:8881   */\n      tag_225\n        /* \"#utility.yul\":8878:8880   */\n      0x12\n        /* \"#utility.yul\":8873:8876   */\n      dup4\n        /* \"#utility.yul\":8814:8881   */\n      tag_92\n      jump\t// in\n    tag_225:\n        /* \"#utility.yul\":8807:8881   */\n      swap2\n      pop\n        /* \"#utility.yul\":8890:8983   */\n      tag_226\n        /* \"#utility.yul\":8979:8982   */\n      dup3\n        /* \"#utility.yul\":8890:8983   */\n      tag_113\n      jump\t// in\n    tag_226:\n        /* \"#utility.yul\":9008:9010   */\n      0x20\n        /* \"#utility.yul\":9003:9006   */\n      dup3\n        /* \"#utility.yul\":8999:9011   */\n      add\n        /* \"#utility.yul\":8992:9011   */\n      swap1\n      pop\n        /* \"#utility.yul\":8651:9017   */\n      swap2\n      swap1\n      pop\n      jump\t// out\n        /* \"#utility.yul\":9023:9442   */\n    tag_69:\n        /* \"#utility.yul\":9189:9193   */\n      0x00\n        /* \"#utility.yul\":9227:9229   */\n      0x20\n        /* \"#utility.yul\":9216:9225   */\n      dup3\n        /* \"#utility.yul\":9212:9230   */\n      add\n        /* \"#utility.yul\":9204:9230   */\n      swap1\n      pop\n        /* \"#utility.yul\":9276:9285   */\n      dup2\n        /* \"#utility.yul\":9270:9274   */\n      dup2\n        /* \"#utility.yul\":9266:9286   */\n      sub\n        /* \"#utility.yul\":9262:9263   */\n      0x00\n        /* \"#utility.yul\":9251:9260   */\n      dup4\n        /* \"#utility.yul\":9247:9264   */\n      add\n        /* \"#utility.yul\":9240:9287   */\n      mstore\n        /* \"#utility.yul\":9304:9435   */\n      tag_228\n        /* \"#utility.yul\":9430:9434   */\n      dup2\n        /* \"#utility.yul\":9304:9435   */\n      tag_114\n      jump\t// in\n    tag_228:\n        /* \"#utility.yul\":9296:9435   */\n      swap1\n      pop\n        /* \"#utility.yul\":9023:9442   */\n      swap2\n      swap1\n      pop\n      jump\t// out\n        /* \"#utility.yul\":9448:9589   */\n    tag_115:\n        /* \"#utility.yul\":9497:9501   */\n      0x00\n        /* \"#utility.yul\":9520:9523   */\n      dup2\n        /* \"#utility.yul\":9512:9523   */\n      swap1\n      pop\n        /* \"#utility.yul\":9543:9546   */\n      dup2\n        /* \"#utility.yul\":9540:9541   */\n      0x00\n        /* \"#utility.yul\":9533:9547   */\n      mstore\n        /* \"#utility.yul\":9577:9581   */\n      0x20\n        /* \"#utility.yul\":9574:9575   */\n      0x00\n        /* \"#utility.yul\":9564:9582   */\n      keccak256\n        /* \"#utility.yul\":9556:9582   */\n      swap1\n      pop\n        /* \"#utility.yul\":9448:9589   */\n      swap2\n      swap1\n      pop\n      jump\t// out\n        /* \"#utility.yul\":9595:9688   */\n    tag_116:\n        /* \"#utility.yul\":9632:9638   */\n      0x00\n        /* \"#utility.yul\":9679:9681   */\n      0x20\n        /* \"#utility.yul\":9674:9676   */\n      0x1f\n        /* \"#utility.yul\":9667:9672   */\n      dup4\n        /* \"#utility.yul\":9663:9677   */\n      add\n        /* \"#utility.yul\":9659:9682   */\n      div\n        /* \"#utility.yul\":9649:9682   */\n      swap1\n      pop\n        /* \"#utility.yul\":9595:9688   */\n      swap2\n      swap1\n      pop\n      jump\t// out\n        /* \"#utility.yul\":9694:9801   */\n    tag_117:\n        /* \"#utility.yul\":9738:9746   */\n      0x00\n        /* \"#utility.yul\":9788:9793   */\n      dup3\n        /* \"#utility.yul\":9782:9786   */\n      dup3\n        /* \"#utility.yul\":9778:9794   */\n      shl\n        /* \"#utility.yul\":9757:9794   */\n      swap1\n      pop\n        /* \"#utility.yul\":9694:9801   */\n      swap3\n      swap2\n      pop\n      pop\n      jump\t// out\n        /* \"#utility.yul\":9807:10200   */\n    tag_118:\n        /* \"#utility.yul\":9876:9882   */\n      0x00\n        /* \"#utility.yul\":9926:9927   */\n      0x08\n        /* \"#utility.yul\":9914:9924   */\n      dup4\n        /* \"#utility.yul\":9910:9928   */\n      mul\n        /* \"#utility.yul\":9949:10046   */\n      tag_233\n        /* \"#utility.yul\":9979:10045   */\n      0xffffffffffffffffffffffffffffffffffffffffffffffffffffffffffffffff\n        /* \"#utility.yul\":9968:9977   */\n      dup3\n        /* \"#utility.yul\":9949:10046   */\n      tag_117\n      jump\t// in\n    tag_233:\n        /* \"#utility.yul\":10067:10106   */\n      tag_234\n        /* \"#utility.yul\":10097:10105   */\n      dup7\n        /* \"#utility.yul\":10086:10095   */\n      dup4\n        /* \"#utility.yul\":10067:10106   */\n      tag_117\n      jump\t// in\n    tag_234:\n        /* \"#utility.yul\":10055:10106   */\n      swap6\n      pop\n        /* \"#utility.yul\":10139:10143   */\n      dup1\n        /* \"#utility.yul\":10135:10144   */\n      not\n        /* \"#utility.yul\":10128:10133   */\n      dup5\n        /* \"#utility.yul\":10124:10145   */\n      and\n        /* \"#utility.yul\":10115:10145   */\n      swap4\n      pop\n        /* \"#utility.yul\":10188:10192   */\n      dup1\n        /* \"#utility.yul\":10178:10186   */\n      dup7\n        /* \"#utility.yul\":10174:10193   */\n      and\n        /* \"#utility.yul\":10167:10172   */\n      dup5\n        /* \"#utility.yul\":10164:10194   */\n      or\n        /* \"#utility.yul\":10154:10194   */\n      swap3\n      pop\n        /* \"#utility.yul\":9883:10200   */\n      pop\n      pop\n        /* \"#utility.yul\":9807:10200   */\n      swap4\n      swap3\n      pop\n      pop\n      pop\n      jump\t// out\n        /* \"#utility.yul\":10206:10266   */\n    tag_119:\n        /* \"#utility.yul\":10234:10237   */\n      0x00\n        /* \"#utility.yul\":10255:10260   */\n      dup2\n        /* \"#utility.yul\":10248:10260   */\n      swap1\n      pop\n        /* \"#utility.yul\":10206:10266   */\n      swap2\n      swap1\n      pop\n      jump\t// out\n        /* \"#utility.yul\":10272:10414   */\n    tag_120:\n        /* \"#utility.yul\":10322:10331   */\n      0x00\n        /* \"#utility.yul\":10355:10408   */\n      tag_237\n        /* \"#utility.yul\":10373:10407   */\n      tag_238\n        /* \"#utility.yul\":10382:10406   */\n      tag_239\n        /* \"#utility.yul\":10400:10405   */\n      dup5\n        /* \"#utility.yul\":10382:10406   */\n      tag_96\n      jump\t// in\n    tag_239:\n        /* \"#utility.yul\":10373:10407   */\n      tag_119\n      jump\t// in\n    tag_238:\n        /* \"#utility.yul\":10355:10408   */\n      tag_96\n      jump\t// in\n    tag_237:\n        /* \"#utility.yul\":10342:10408   */\n      swap1\n      pop\n        /* \"#utility.yul\":10272:10414   */\n      swap2\n      swap1\n      pop\n      jump\t// out\n        /* \"#utility.yul\":10420:10495   */\n    tag_121:\n        /* \"#utility.yul\":10463:10466   */\n      0x00\n        /* \"#utility.yul\":10484:10489   */\n      dup2\n        /* \"#utility.yul\":10477:10489   */\n      swap1\n      pop\n        /* \"#utility.yul\":10420:10495   */\n      swap2\n      swap1\n      pop\n      jump\t// out\n        /* \"#utility.yul\":10501:10770   */\n    tag_122:\n        /* \"#utility.yul\":10611:10650   */\n      tag_242\n        /* \"#utility.yul\":10642:10649   */\n      dup4\n        /* \"#utility.yul\":10611:10650   */\n      tag_120\n      jump\t// in\n    tag_242:\n        /* \"#utility.yul\":10672:10763   */\n      tag_243\n        /* \"#utility.yul\":10721:10762   */\n      tag_244\n        /* \"#utility.yul\":10745:10761   */\n      dup3\n        /* \"#utility.yul\":10721:10762   */\n      tag_121\n      jump\t// in\n    tag_244:\n        /* \"#utility.yul\":10713:10719   */\n      dup5\n        /* \"#utility.yul\":10706:10710   */\n      dup5\n        /* \"#utility.yul\":10700:10711   */\n      sload\n        /* \"#utility.yul\":10672:10763   */\n      tag_118\n      jump\t// in\n    tag_243:\n        /* \"#utility.yul\":10666:10670   */\n      dup3\n        /* \"#utility.yul\":10659:10764   */\n      sstore\n        /* \"#utility.yul\":10577:10770   */\n      pop\n        /* \"#utility.yul\":10501:10770   */\n      pop\n      pop\n      pop\n      jump\t// out\n        /* \"#utility.yul\":10776:10849   */\n    tag_123:\n        /* \"#utility.yul\":10821:10824   */\n      0x00\n        /* \"#utility.yul\":10842:10843   */\n      0x00\n        /* \"#utility.yul\":10835:10843   */\n      swap1\n      pop\n        /* \"#utility.yul\":10776:10849   */\n      swap1\n      jump\t// out\n        /* \"#utility.yul\":10855:11044   */\n    tag_124:\n        /* \"#utility.yul\":10932:10964   */\n      tag_247\n      tag_123\n      jump\t// in\n    tag_247:\n        /* \"#utility.yul\":10973:11038   */\n      tag_248\n        /* \"#utility.yul\":11031:11037   */\n      dup2\n        /* \"#utility.yul\":11023:11029   */\n      dup5\n        /* \"#utility.yul\":11017:11021   */\n      dup5\n        /* \"#utility.yul\":10973:11038   */\n      tag_122\n      jump\t// in\n    tag_248:\n        /* \"#utility.yul\":10908:11044   */\n      pop\n        /* \"#utility.yul\":10855:11044   */\n      pop\n      pop\n      jump\t// out\n        /* \"#utility.yul\":11050:11264   */\n    tag_125:\n        /* \"#utility.yul\":11135:11136   */\n      0x00\n        /* \"#utility.yul\":11120:11258   */\n    tag_250:\n        /* \"#utility.yul\":11145:11154   */\n      dup3\n        /* \"#utility.yul\":11142:11143   */\n      dup2\n        /* \"#utility.yul\":11139:11155   */\n      lt\n        /* \"#utility.yul\":11120:11258   */\n      iszero\n      tag_252\n      jumpi\n        /* \"#utility.yul\":11197:11248   */\n      tag_253\n        /* \"#utility.yul\":11246:11247   */\n      0x00\n        /* \"#utility.yul\":11242:11243   */\n      dup3\n        /* \"#utility.yul\":11231:11240   */\n      dup5\n        /* \"#utility.yul\":11227:11244   */\n      add\n        /* \"#utility.yul\":11197:11248   */\n      tag_124\n      jump\t// in\n    tag_253:\n        /* \"#utility.yul\":11170:11171   */\n      0x01\n        /* \"#utility.yul\":11167:11168   */\n      dup2\n        /* \"#utility.yul\":11163:11172   */\n      add\n        /* \"#utility.yul\":11158:11172   */\n      swap1\n      pop\n        /* \"#utility.yul\":11120:11258   */\n      jump(tag_250)\n    tag_252:\n        /* \"#utility.yul\":11124:11138   */\n      pop\n        /* \"#utility.yul\":11050:11264   */\n      pop\n      pop\n      jump\t// out\n        /* \"#utility.yul\":11270:12016   */\n    tag_126:\n        /* \"#utility.yul\":11371:11373   */\n      0x1f\n        /* \"#utility.yul\":11366:11369   */\n      dup3\n        /* \"#utility.yul\":11363:11374   */\n      gt\n        /* \"#utility.yul\":11360:12009   */\n      iszero\n      tag_255\n      jumpi\n        /* \"#utility.yul\":11400:11410   */\n      dup3\n        /* \"#utility.yul\":11395:11398   */\n      dup3\n        /* \"#utility.yul\":11392:11411   */\n      gt\n        /* \"#utility.yul\":11389:11999   */\n      iszero\n      tag_256\n      jumpi\n        /* \"#utility.yul\":11446:11484   */\n      tag_257\n        /* \"#utility.yul\":11478:11483   */\n      dup2\n        /* \"#utility.yul\":11446:11484   */\n      tag_115\n      jump\t// in\n    tag_257:\n        /* \"#utility.yul\":11521:11543   */\n      tag_258\n        /* \"#utility.yul\":11539:11542   */\n      dup4\n        /* \"#utility.yul\":11521:11543   */\n      tag_116\n      jump\t// in\n    tag_258:\n        /* \"#utility.yul\":11580:11609   */\n      tag_259\n        /* \"#utility.yul\":11598:11608   */\n      dup6\n        /* \"#utility.yul\":11580:11609   */\n      tag_116\n      jump\t// in\n    tag_259:\n        /* \"#utility.yul\":11770:11772   */\n      0x20\n        /* \"#utility.yul\":11758:11768   */\n      dup7\n        /* \"#utility.yul\":11755:11773   */\n      lt\n        /* \"#utility.yul\":11752:11831   */\n      iszero\n      tag_260\n      jumpi\n        /* \"#utility.yul\":11812:11813   */\n      0x00\n        /* \"#utility.yul\":11796:11813   */\n      swap1\n      pop\n        /* \"#utility.yul\":11752:11831   */\n    tag_260:\n        /* \"#utility.yul\":11881:11893   */\n      dup1\n        /* \"#utility.yul\":11871:11879   */\n      dup4\n        /* \"#utility.yul\":11867:11894   */\n      add\n        /* \"#utility.yul\":11911:11985   */\n      tag_261\n        /* \"#utility.yul\":11971:11983   */\n      dup3\n        /* \"#utility.yul\":11957:11969   */\n      dup5\n        /* \"#utility.yul\":11953:11984   */\n      sub\n        /* \"#utility.yul\":11940:11951   */\n      dup3\n        /* \"#utility.yul\":11911:11985   */\n      tag_125\n      jump\t// in\n    tag_261:\n        /* \"#utility.yul\":11412:11999   */\n      pop\n      pop\n      pop\n      pop\n        /* \"#utility.yul\":11389:11999   */\n    tag_256:\n        /* \"#utility.yul\":11360:12009   */\n    tag_255:\n        /* \"#utility.yul\":11270:12016   */\n      pop\n      pop\n      pop\n      jump\t// out\n        /* \"#utility.yul\":12022:12139   */\n    tag_127:\n        /* \"#utility.yul\":12076:12084   */\n      0x00\n        /* \"#utility.yul\":12126:12131   */\n      dup3\n        /* \"#utility.yul\":12120:12124   */\n      dup3\n        /* \"#utility.yul\":12116:12132   */\n      shr\n        /* \"#utility.yul\":12095:12132   */\n      swap1\n      pop\n        /* \"#utility.yul\":12022:12139   */\n      swap3\n      swap2\n      pop\n      pop\n      jump\t// out\n        /* \"#utility.yul\":12145:12314   */\n    tag_128:\n        /* \"#utility.yul\":12189:12195   */\n      0x00\n        /* \"#utility.yul\":12222:12273   */\n      tag_264\n        /* \"#utility.yul\":12270:12271   */\n      0x00\n        /* \"#utility.yul\":12266:12272   */\n      not\n        /* \"#utility.yul\":12258:12263   */\n      dup5\n        /* \"#utility.yul\":12255:12256   */\n      0x08\n        /* \"#utility.yul\":12251:12264   */\n      mul\n        /* \"#utility.yul\":12222:12273   */\n      tag_127\n      jump\t// in\n    tag_264:\n        /* \"#utility.yul\":12218:12274   */\n      not\n        /* \"#utility.yul\":12303:12307   */\n      dup1\n        /* \"#utility.yul\":12297:12301   */\n      dup4\n        /* \"#utility.yul\":12293:12308   */\n      and\n        /* \"#utility.yul\":12283:12308   */\n      swap2\n      pop\n        /* \"#utility.yul\":12196:12314   */\n      pop\n        /* \"#utility.yul\":12145:12314   */\n      swap3\n      swap2\n      pop\n      pop\n      jump\t// out\n        /* \"#utility.yul\":12319:12614   */\n    tag_129:\n        /* \"#utility.yul\":12395:12399   */\n      0x00\n        /* \"#utility.yul\":12541:12570   */\n      tag_266\n        /* \"#utility.yul\":12566:12569   */\n      dup4\n        /* \"#utility.yul\":12560:12564   */\n      dup4\n        /* \"#utility.yul\":12541:12570   */\n      tag_128\n      jump\t// in\n    tag_266:\n        /* \"#utility.yul\":12533:12570   */\n      swap2\n      pop\n        /* \"#utility.yul\":12603:12606   */\n      dup3\n        /* \"#utility.yul\":12600:12601   */\n      0x02\n        /* \"#utility.yul\":12596:12607   */\n      mul\n        /* \"#utility.yul\":12590:12594   */\n      dup3\n        /* \"#utility.yul\":12587:12608   */\n      or\n        /* \"#utility.yul\":12579:12608   */\n      swap1\n      pop\n        /* \"#utility.yul\":12319:12614   */\n      swap3\n      swap2\n      pop\n      pop\n      jump\t// out\n        /* \"#utility.yul\":12619:14014   */\n    tag_72:\n        /* \"#utility.yul\":12736:12773   */\n      tag_268\n        /* \"#utility.yul\":12769:12772   */\n      dup3\n        /* \"#utility.yul\":12736:12773   */\n      tag_91\n      jump\t// in\n    tag_268:\n        /* \"#utility.yul\":12838:12856   */\n      0xffffffffffffffff\n        /* \"#utility.yul\":12830:12836   */\n      dup2\n        /* \"#utility.yul\":12827:12857   */\n      gt\n        /* \"#utility.yul\":12824:12880   */\n      iszero\n      tag_269\n      jumpi\n        /* \"#utility.yul\":12860:12878   */\n      tag_270\n      tag_103\n      jump\t// in\n    tag_270:\n        /* \"#utility.yul\":12824:12880   */\n    tag_269:\n        /* \"#utility.yul\":12904:12942   */\n      tag_271\n        /* \"#utility.yul\":12936:12940   */\n      dup3\n        /* \"#utility.yul\":12930:12941   */\n      sload\n        /* \"#utility.yul\":12904:12942   */\n      tag_44\n      jump\t// in\n    tag_271:\n        /* \"#utility.yul\":12989:13056   */\n      tag_272\n        /* \"#utility.yul\":13049:13055   */\n      dup3\n        /* \"#utility.yul\":13041:13047   */\n      dup3\n        /* \"#utility.yul\":13035:13039   */\n      dup6\n        /* \"#utility.yul\":12989:13056   */\n      tag_126\n      jump\t// in\n    tag_272:\n        /* \"#utility.yul\":13083:13084   */\n      0x00\n        /* \"#utility.yul\":13107:13111   */\n      0x20\n        /* \"#utility.yul\":13094:13111   */\n      swap1\n      pop\n        /* \"#utility.yul\":13139:13141   */\n      0x1f\n        /* \"#utility.yul\":13131:13137   */\n      dup4\n        /* \"#utility.yul\":13128:13142   */\n      gt\n        /* \"#utility.yul\":13156:13157   */\n      0x01\n        /* \"#utility.yul\":13151:13769   */\n      dup2\n      eq\n      tag_274\n      jumpi\n        /* \"#utility.yul\":13813:13814   */\n      0x00\n        /* \"#utility.yul\":13830:13836   */\n      dup5\n        /* \"#utility.yul\":13827:13904   */\n      iszero\n      tag_275\n      jumpi\n        /* \"#utility.yul\":13879:13888   */\n      dup3\n        /* \"#utility.yul\":13874:13877   */\n      dup8\n        /* \"#utility.yul\":13870:13889   */\n      add\n        /* \"#utility.yul\":13864:13890   */\n      mload\n        /* \"#utility.yul\":13855:13890   */\n      swap1\n      pop\n        /* \"#utility.yul\":13827:13904   */\n    tag_275:\n        /* \"#utility.yul\":13930:13997   */\n      tag_276\n        /* \"#utility.yul\":13990:13996   */\n      dup6\n        /* \"#utility.yul\":13983:13988   */\n      dup3\n        /* \"#utility.yul\":13930:13997   */\n      tag_129\n      jump\t// in\n    tag_276:\n        /* \"#utility.yul\":13924:13928   */\n      dup7\n        /* \"#utility.yul\":13917:13998   */\n      sstore\n        /* \"#utility.yul\":13786:14008   */\n      pop\n        /* \"#utility.yul\":13121:14008   */\n      jump(tag_273)\n        /* \"#utility.yul\":13151:13769   */\n    tag_274:\n        /* \"#utility.yul\":13203:13207   */\n      0x1f\n        /* \"#utility.yul\":13199:13208   */\n      not\n        /* \"#utility.yul\":13191:13197   */\n      dup5\n        /* \"#utility.yul\":13187:13209   */\n      and\n        /* \"#utility.yul\":13237:13274   */\n      tag_277\n        /* \"#utility.yul\":13269:13273   */\n      dup7\n        /* \"#utility.yul\":13237:13274   */\n      tag_115\n      jump\t// in\n    tag_277:\n        /* \"#utility.yul\":13296:13297   */\n      0x00\n        /* \"#utility.yul\":13310:13518   */\n    tag_278:\n        /* \"#utility.yul\":13324:13331   */\n      dup3\n        /* \"#utility.yul\":13321:13322   */\n      dup2\n        /* \"#utility.yul\":13318:13332   */\n      lt\n        /* \"#utility.yul\":13310:13518   */\n      iszero\n      tag_280\n      jumpi\n        /* \"#utility.yul\":13403:13412   */\n      dup5\n        /* \"#utility.yul\":13398:13401   */\n      dup10\n        /* \"#utility.yul\":13394:13413   */\n      add\n        /* \"#utility.yul\":13388:13414   */\n      mload\n        /* \"#utility.yul\":13380:13386   */\n      dup3\n        /* \"#utility.yul\":13373:13415   */\n      sstore\n        /* \"#utility.yul\":13454:13455   */\n      0x01\n        /* \"#utility.yul\":13446:13452   */\n      dup3\n        /* \"#utility.yul\":13442:13456   */\n      add\n        /* \"#utility.yul\":13432:13456   */\n      swap2\n      pop\n        /* \"#utility.yul\":13501:13503   */\n      0x20\n        /* \"#utility.yul\":13490:13499   */\n      dup6\n        /* \"#utility.yul\":13486:13504   */\n      add\n        /* \"#utility.yul\":13473:13504   */\n      swap5\n      pop\n        /* \"#utility.yul\":13347:13351   */\n      0x20\n        /* \"#utility.yul\":13344:13345   */\n      dup2\n        /* \"#utility.yul\":13340:13352   */\n      add\n        /* \"#utility.yul\":13335:13352   */\n      swap1\n      pop\n        /* \"#utility.yul\":13310:13518   */\n      jump(tag_278)\n    tag_280:\n        /* \"#utility.yul\":13546:13552   */\n      dup7\n        /* \"#utility.yul\":13537:13544   */\n      dup4\n        /* \"#utility.yul\":13534:13553   */\n      lt\n        /* \"#utility.yul\":13531:13710   */\n      iszero\n      tag_281\n      jumpi\n        /* \"#utility.yul\":13604:13613   */\n      dup5\n        /* \"#utility.yul\":13599:13602   */\n      dup10\n        /* \"#utility.yul\":13595:13614   */\n      add\n        /* \"#utility.yul\":13589:13615   */\n      mload\n        /* \"#utility.yul\":13647:13695   */\n      tag_282\n        /* \"#utility.yul\":13689:13693   */\n      0x1f\n        /* \"#utility.yul\":13681:13687   */\n      dup10\n        /* \"#utility.yul\":13677:13694   */\n      and\n        /* \"#utility.yul\":13666:13675   */\n      dup3\n        /* \"#utility.yul\":13647:13695   */\n      tag_128\n      jump\t// in\n    tag_282:\n        /* \"#utility.yul\":13639:13645   */\n      dup4\n        /* \"#utility.yul\":13632:13696   */\n      sstore\n        /* \"#utility.yul\":13554:13710   */\n      pop\n        /* \"#utility.yul\":13531:13710   */\n    tag_281:\n        /* \"#utility.yul\":13756:13757   */\n      0x01\n        /* \"#utility.yul\":13752:13753   */\n      0x02\n        /* \"#utility.yul\":13744:13750   */\n      dup9\n        /* \"#utility.yul\":13740:13754   */\n      mul\n        /* \"#utility.yul\":13736:13758   */\n      add\n        /* \"#utility.yul\":13730:13734   */\n      dup9\n        /* \"#utility.yul\":13723:13759   */\n      sstore\n        /* \"#utility.yul\":13158:13769   */\n      pop\n      pop\n      pop\n        /* \"#utility.yul\":13121:14008   */\n    tag_273:\n      pop\n        /* \"#utility.yul\":12711:14014   */\n      pop\n      pop\n      pop\n        /* \"#utility.yul\":12619:14014   */\n      pop\n      pop\n      jump\t// out\n        /* \"#utility.yul\":14020:14443   */\n    tag_75:\n        /* \"#utility.yul\":14161:14165   */\n      0x00\n        /* \"#utility.yul\":14199:14201   */\n      0x40\n        /* \"#utility.yul\":14188:14197   */\n      dup3\n        /* \"#utility.yul\":14184:14202   */\n      add\n        /* \"#utility.yul\":14176:14202   */\n      swap1\n      pop\n        /* \"#utility.yul\":14248:14257   */\n      dup2\n        /* \"#utility.yul\":14242:14246   */\n      dup2\n        /* \"#utility.yul\":14238:14258   */\n      sub\n        /* \"#utility.yul\":14234:14235   */\n      0x00\n        /* \"#utility.yul\":14223:14232   */\n      dup4\n        /* \"#utility.yul\":14219:14236   */\n      add\n        /* \"#utility.yul\":14212:14259   */\n      mstore\n        /* \"#utility.yul\":14276:14354   */\n      tag_284\n        /* \"#utility.yul\":14349:14353   */\n      dup2\n        /* \"#utility.yul\":14340:14346   */\n      dup6\n        /* \"#utility.yul\":14276:14354   */\n      tag_95\n      jump\t// in\n    tag_284:\n        /* \"#utility.yul\":14268:14354   */\n      swap1\n      pop\n        /* \"#utility.yul\":14364:14436   */\n      tag_285\n        /* \"#utility.yul\":14432:14434   */\n      0x20\n        /* \"#utility.yul\":14421:14430   */\n      dup4\n        /* \"#utility.yul\":14417:14435   */\n      add\n        /* \"#utility.yul\":14408:14414   */\n      dup5\n        /* \"#utility.yul\":14364:14436   */\n      tag_97\n      jump\t// in\n    tag_285:\n        /* \"#utility.yul\":14020:14443   */\n      swap4\n      swap3\n      pop\n      pop\n      pop\n      jump\t// out\n        /* \"#utility.yul\":14449:14781   */\n    tag_81:\n        /* \"#utility.yul\":14570:14574   */\n      0x00\n        /* \"#utility.yul\":14608:14610   */\n      0x40\n        /* \"#utility.yul\":14597:14606   */\n      dup3\n        /* \"#utility.yul\":14593:14611   */\n      add\n        /* \"#utility.yul\":14585:14611   */\n      swap1\n      pop\n        /* \"#utility.yul\":14621:14692   */\n      tag_287\n        /* \"#utility.yul\":14689:14690   */\n      0x00\n        /* \"#utility.yul\":14678:14687   */\n      dup4\n        /* \"#utility.yul\":14674:14691   */\n      add\n        /* \"#utility.yul\":14665:14671   */\n      dup6\n        /* \"#utility.yul\":14621:14692   */\n      tag_97\n      jump\t// in\n    tag_287:\n        /* \"#utility.yul\":14702:14774   */\n      tag_288\n        /* \"#utility.yul\":14770:14772   */\n      0x20\n        /* \"#utility.yul\":14759:14768   */\n      dup4\n        /* \"#utility.yul\":14755:14773   */\n      add\n        /* \"#utility.yul\":14746:14752   */\n      dup5\n        /* \"#utility.yul\":14702:14774   */\n      tag_97\n      jump\t// in\n    tag_288:\n        /* \"#utility.yul\":14449:14781   */\n      swap4\n      swap3\n      pop\n      pop\n      pop\n      jump\t// out\n\n    auxdata: 0xa26469706673582212206925c44ec09f8ea332936e4e23a571f5aba7c9c664e8da8eed523ee5c14a677664736f6c63430008220033\n}\n",
				"bytecode": {
					"linkReferences": {},
					"object": "6080604052348015600e575f5ffd5b5061107f8061001c5f395ff3fe608060405234801561000f575f5ffd5b506004361061007b575f3560e01c80639f4216e8116100595780639f4216e814610101578063a87430ba14610131578063ea87152b14610163578063f853e34d1461017f5761007b565b80634209fff11461007f5780636f77926b146100af5780637daa10ce146100e1575b5f5ffd5b61009960048036038101906100949190610922565b61019b565b6040516100a69190610967565b60405180910390f35b6100c960048036038101906100c49190610922565b6101b8565b6040516100d893929190610a08565b60405180910390f35b6100e96102c5565b6040516100f893929190610a08565b60405180910390f35b61011b60048036038101906101169190610a6e565b610459565b6040516101289190610aa8565b60405180910390f35b61014b60048036038101906101469190610922565b610494565b60405161015a93929190610a08565b60405180910390f35b61017d60048036038101906101789190610bed565b61053f565b005b61019960048036038101906101949190610a6e565b610753565b005b6001602052805f5260405f205f915054906101000a900460ff1681565b60605f5f5f5f5f8673ffffffffffffffffffffffffffffffffffffffff1673ffffffffffffffffffffffffffffffffffffffff1681526020019081526020015f206040518060600160405290815f8201805461021390610c74565b80601f016020809104026020016040519081016040528092919081815260200182805461023f90610c74565b801561028a5780601f106102615761010080835404028352916020019161028a565b820191905f5260205f20905b81548152906001019060200180831161026d57829003601f168201915b50505050508152602001600182015481526020016002820154815250509050805f015181602001518260400151935093509350509193909250565b60605f5f60015f3373ffffffffffffffffffffffffffffffffffffffff1673ffffffffffffffffffffffffffffffffffffffff1681526020019081526020015f205f9054906101000a900460ff16610352576040517f08c379a000000000000000000000000000000000000000000000000000000000815260040161034990610cee565b60405180910390fd5b5f5f5f3373ffffffffffffffffffffffffffffffffffffffff1673ffffffffffffffffffffffffffffffffffffffff1681526020019081526020015f206040518060600160405290815f820180546103a990610c74565b80601f01602080910402602001604051908101604052809291908181526020018280546103d590610c74565b80156104205780601f106103f757610100808354040283529160200191610420565b820191905f5260205f20905b81548152906001019060200180831161040357829003601f168201915b50505050508152602001600182015481526020016002820154815250509050805f01518160200151826040015193509350935050909192565b60028181548110610468575f80fd5b905f5260205f20015f915054906101000a900473ffffffffffffffffffffffffffffffffffffffff1681565b5f602052805f5260405f205f91509050805f0180546104b290610c74565b80601f01602080910402602001604051908101604052809291908181526020018280546104de90610c74565b80156105295780601f1061050057610100808354040283529160200191610529565b820191905f5260205f20905b81548152906001019060200180831161050c57829003601f168201915b5050505050908060010154908060020154905083565b60015f3373ffffffffffffffffffffffffffffffffffffffff1673ffffffffffffffffffffffffffffffffffffffff1681526020019081526020015f205f9054906101000a900460ff16156105c9576040517f08c379a00000000000000000000000000000000000000000000000000000000081526004016105c090610d56565b60405180910390fd5b60405180606001604052808381526020018281526020015f8152505f5f3373ffffffffffffffffffffffffffffffffffffffff1673ffffffffffffffffffffffffffffffffffffffff1681526020019081526020015f205f820151815f0190816106339190610f25565b5060208201518160010155604082015181600201559050506001805f3373ffffffffffffffffffffffffffffffffffffffff1673ffffffffffffffffffffffffffffffffffffffff1681526020019081526020015f205f6101000a81548160ff021916908315150217905550600233908060018154018082558091505060019003905f5260205f20015f9091909190916101000a81548173ffffffffffffffffffffffffffffffffffffffff021916908373ffffffffffffffffffffffffffffffffffffffff1602179055503373ffffffffffffffffffffffffffffffffffffffff167f89105a1c6a3c2fbd471255c66a31ccab604af5697f67d7e2e9a0028c5e4dbd918383604051610747929190610ff4565b60405180910390a25050565b60015f3373ffffffffffffffffffffffffffffffffffffffff1673ffffffffffffffffffffffffffffffffffffffff1681526020019081526020015f205f9054906101000a900460ff166107dc576040517f08c379a00000000000000000000000000000000000000000000000000000000081526004016107d390610cee565b60405180910390fd5b5f5f5f3373ffffffffffffffffffffffffffffffffffffffff1673ffffffffffffffffffffffffffffffffffffffff1681526020019081526020015f20600201549050815f5f3373ffffffffffffffffffffffffffffffffffffffff1673ffffffffffffffffffffffffffffffffffffffff1681526020019081526020015f20600201819055503373ffffffffffffffffffffffffffffffffffffffff167f91878448ef87c3db4aeb83e60e7deb1240ecae3fd04975ec93547398514cb4ed82846040516108ab929190611022565b60405180910390a25050565b5f604051905090565b5f5ffd5b5f5ffd5b5f73ffffffffffffffffffffffffffffffffffffffff82169050919050565b5f6108f1826108c8565b9050919050565b610901816108e7565b811461090b575f5ffd5b50565b5f8135905061091c816108f8565b92915050565b5f60208284031215610937576109366108c0565b5b5f6109448482850161090e565b91505092915050565b5f8115159050919050565b6109618161094d565b82525050565b5f60208201905061097a5f830184610958565b92915050565b5f81519050919050565b5f82825260208201905092915050565b8281835e5f83830152505050565b5f601f19601f8301169050919050565b5f6109c282610980565b6109cc818561098a565b93506109dc81856020860161099a565b6109e5816109a8565b840191505092915050565b5f819050919050565b610a02816109f0565b82525050565b5f6060820190508181035f830152610a2081866109b8565b9050610a2f60208301856109f9565b610a3c60408301846109f9565b949350505050565b610a4d816109f0565b8114610a57575f5ffd5b50565b5f81359050610a6881610a44565b92915050565b5f60208284031215610a8357610a826108c0565b5b5f610a9084828501610a5a565b91505092915050565b610aa2816108e7565b82525050565b5f602082019050610abb5f830184610a99565b92915050565b5f5ffd5b5f5ffd5b7f4e487b71000000000000000000000000000000000000000000000000000000005f52604160045260245ffd5b610aff826109a8565b810181811067ffffffffffffffff82111715610b1e57610b1d610ac9565b5b80604052505050565b5f610b306108b7565b9050610b3c8282610af6565b919050565b5f67ffffffffffffffff821115610b5b57610b5a610ac9565b5b610b64826109a8565b9050602081019050919050565b828183375f83830152505050565b5f610b91610b8c84610b41565b610b27565b905082815260208101848484011115610bad57610bac610ac5565b5b610bb8848285610b71565b509392505050565b5f82601f830112610bd457610bd3610ac1565b5b8135610be4848260208601610b7f565b91505092915050565b5f5f60408385031215610c0357610c026108c0565b5b5f83013567ffffffffffffffff811115610c2057610c1f6108c4565b5b610c2c85828601610bc0565b9250506020610c3d85828601610a5a565b9150509250929050565b7f4e487b71000000000000000000000000000000000000000000000000000000005f52602260045260245ffd5b5f6002820490506001821680610c8b57607f821691505b602082108103610c9e57610c9d610c47565b5b50919050565b7f4e6f7420726567697374657265640000000000000000000000000000000000005f82015250565b5f610cd8600e8361098a565b9150610ce382610ca4565b602082019050919050565b5f6020820190508181035f830152610d0581610ccc565b9050919050565b7f416c7265616479207265676973746572656400000000000000000000000000005f82015250565b5f610d4060128361098a565b9150610d4b82610d0c565b602082019050919050565b5f6020820190508181035f830152610d6d81610d34565b9050919050565b5f819050815f5260205f209050919050565b5f6020601f8301049050919050565b5f82821b905092915050565b5f60088302610dd07fffffffffffffffffffffffffffffffffffffffffffffffffffffffffffffffff82610d95565b610dda8683610d95565b95508019841693508086168417925050509392505050565b5f819050919050565b5f610e15610e10610e0b846109f0565b610df2565b6109f0565b9050919050565b5f819050919050565b610e2e83610dfb565b610e42610e3a82610e1c565b848454610da1565b825550505050565b5f5f905090565b610e59610e4a565b610e64818484610e25565b505050565b5f5b82811015610e8a57610e7f5f828401610e51565b600181019050610e6b565b505050565b601f821115610edd5782821115610edc57610ea981610d74565b610eb283610d86565b610ebb85610d86565b6020861015610ec8575f90505b808301610ed782840382610e69565b505050505b5b505050565b5f82821c905092915050565b5f610efd5f1984600802610ee2565b1980831691505092915050565b5f610f158383610eee565b9150826002028217905092915050565b610f2e82610980565b67ffffffffffffffff811115610f4757610f46610ac9565b5b610f518254610c74565b610f5c828285610e8f565b5f60209050601f831160018114610f8d575f8415610f7b578287015190505b610f858582610f0a565b865550610fec565b601f198416610f9b86610d74565b5f5b82811015610fc257848901518255600182019150602085019450602081019050610f9d565b86831015610fdf5784890151610fdb601f891682610eee565b8355505b6001600288020188555050505b505050505050565b5f6040820190508181035f83015261100c81856109b8565b905061101b60208301846109f9565b9392505050565b5f6040820190506110355f8301856109f9565b61104260208301846109f9565b939250505056fea26469706673582212206925c44ec09f8ea332936e4e23a571f5aba7c9c664e8da8eed523ee5c14a677664736f6c63430008220033",
					"opcodes": "PUSH1 0x80 PUSH1 0x40 MSTORE CALLVALUE DUP1 ISZERO PUSH1 0xE JUMPI PUSH0 PUSH0 REVERT JUMPDEST POP PUSH2 0x107F DUP1 PUSH2 0x1C PUSH0 CODECOPY PUSH0 RETURN INVALID PUSH1 0x80 PUSH1 0x40 MSTORE CALLVALUE DUP1 ISZERO PUSH2 0xF JUMPI PUSH0 PUSH0 REVERT JUMPDEST POP PUSH1 0x4 CALLDATASIZE LT PUSH2 0x7B JUMPI PUSH0 CALLDATALOAD PUSH1 0xE0 SHR DUP1 PUSH4 0x9F4216E8 GT PUSH2 0x59 JUMPI DUP1 PUSH4 0x9F4216E8 EQ PUSH2 0x101 JUMPI DUP1 PUSH4 0xA87430BA EQ PUSH2 0x131 JUMPI DUP1 PUSH4 0xEA87152B EQ PUSH2 0x163 JUMPI DUP1 PUSH4 0xF853E34D EQ PUSH2 0x17F JUMPI PUSH2 0x7B JUMP JUMPDEST DUP1 PUSH4 0x4209FFF1 EQ PUSH2 0x7F JUMPI DUP1 PUSH4 0x6F77926B EQ PUSH2 0xAF JUMPI DUP1 PUSH4 0x7DAA10CE EQ PUSH2 0xE1 JUMPI JUMPDEST PUSH0 PUSH0 REVERT JUMPDEST PUSH2 0x99 PUSH1 0x4 DUP1 CALLDATASIZE SUB DUP2 ADD SWAP1 PUSH2 0x94 SWAP2 SWAP1 PUSH2 0x922 JUMP JUMPDEST PUSH2 0x19B JUMP JUMPDEST PUSH1 0x40 MLOAD PUSH2 0xA6 SWAP2 SWAP1 PUSH2 0x967 JUMP JUMPDEST PUSH1 0x40 MLOAD DUP1 SWAP2 SUB SWAP1 RETURN JUMPDEST PUSH2 0xC9 PUSH1 0x4 DUP1 CALLDATASIZE SUB DUP2 ADD SWAP1 PUSH2 0xC4 SWAP2 SWAP1 PUSH2 0x922 JUMP JUMPDEST PUSH2 0x1B8 JUMP JUMPDEST PUSH1 0x40 MLOAD PUSH2 0xD8 SWAP4 SWAP3 SWAP2 SWAP1 PUSH2 0xA08 JUMP JUMPDEST PUSH1 0x40 MLOAD DUP1 SWAP2 SUB SWAP1 RETURN JUMPDEST PUSH2 0xE9 PUSH2 0x2C5 JUMP JUMPDEST PUSH1 0x40 MLOAD PUSH2 0xF8 SWAP4 SWAP3 SWAP2 SWAP1 PUSH2 0xA08 JUMP JUMPDEST PUSH1 0x40 MLOAD DUP1 SWAP2 SUB SWAP1 RETURN JUMPDEST PUSH2 0x11B PUSH1 0x4 DUP1 CALLDATASIZE SUB DUP2 ADD SWAP1 PUSH2 0x116 SWAP2 SWAP1 PUSH2 0xA6E JUMP JUMPDEST PUSH2 0x459 JUMP JUMPDEST PUSH1 0x40 MLOAD PUSH2 0x128 SWAP2 SWAP1 PUSH2 0xAA8 JUMP JUMPDEST PUSH1 0x40 MLOAD DUP1 SWAP2 SUB SWAP1 RETURN JUMPDEST PUSH2 0x14B PUSH1 0x4 DUP1 CALLDATASIZE SUB DUP2 ADD SWAP1 PUSH2 0x146 SWAP2 SWAP1 PUSH2 0x922 JUMP JUMPDEST PUSH2 0x494 JUMP JUMPDEST PUSH1 0x40 MLOAD PUSH2 0x15A SWAP4 SWAP3 SWAP2 SWAP1 PUSH2 0xA08 JUMP JUMPDEST PUSH1 0x40 MLOAD DUP1 SWAP2 SUB SWAP1 RETURN JUMPDEST PUSH2 0x17D PUSH1 0x4 DUP1 CALLDATASIZE SUB DUP2 ADD SWAP1 PUSH2 0x178 SWAP2 SWAP1 PUSH2 0xBED JUMP JUMPDEST PUSH2 0x53F JUMP JUMPDEST STOP JUMPDEST PUSH2 0x199 PUSH1 0x4 DUP1 CALLDATASIZE SUB DUP2 ADD SWAP1 PUSH2 0x194 SWAP2 SWAP1 PUSH2 0xA6E JUMP JUMPDEST PUSH2 0x753 JUMP JUMPDEST STOP JUMPDEST PUSH1 0x1 PUSH1 0x20 MSTORE DUP1 PUSH0 MSTORE PUSH1 0x40 PUSH0 KECCAK256 PUSH0 SWAP2 POP SLOAD SWAP1 PUSH2 0x100 EXP SWAP1 DIV PUSH1 0xFF AND DUP2 JUMP JUMPDEST PUSH1 0x60 PUSH0 PUSH0 PUSH0 PUSH0 PUSH0 DUP7 PUSH20 0xFFFFFFFFFFFFFFFFFFFFFFFFFFFFFFFFFFFFFFFF AND PUSH20 0xFFFFFFFFFFFFFFFFFFFFFFFFFFFFFFFFFFFFFFFF AND DUP2 MSTORE PUSH1 0x20 ADD SWAP1 DUP2 MSTORE PUSH1 0x20 ADD PUSH0 KECCAK256 PUSH1 0x40 MLOAD DUP1 PUSH1 0x60 ADD PUSH1 0x40 MSTORE SWAP1 DUP2 PUSH0 DUP3 ADD DUP1 SLOAD PUSH2 0x213 SWAP1 PUSH2 0xC74 JUMP JUMPDEST DUP1 PUSH1 0x1F ADD PUSH1 0x20 DUP1 SWAP2 DIV MUL PUSH1 0x20 ADD PUSH1 0x40 MLOAD SWAP1 DUP2 ADD PUSH1 0x40 MSTORE DUP1 SWAP3 SWAP2 SWAP1 DUP2 DUP2 MSTORE PUSH1 0x20 ADD DUP3 DUP1 SLOAD PUSH2 0x23F SWAP1 PUSH2 0xC74 JUMP JUMPDEST DUP1 ISZERO PUSH2 0x28A JUMPI DUP1 PUSH1 0x1F LT PUSH2 0x261 JUMPI PUSH2 0x100 DUP1 DUP4 SLOAD DIV MUL DUP4 MSTORE SWAP2 PUSH1 0x20 ADD SWAP2 PUSH2 0x28A JUMP JUMPDEST DUP3 ADD SWAP2 SWAP1 PUSH0 MSTORE PUSH1 0x20 PUSH0 KECCAK256 SWAP1 JUMPDEST DUP2 SLOAD DUP2 MSTORE SWAP1 PUSH1 0x1 ADD SWAP1 PUSH1 0x20 ADD DUP1 DUP4 GT PUSH2 0x26D JUMPI DUP3 SWAP1 SUB PUSH1 0x1F AND DUP3 ADD SWAP2 JUMPDEST POP POP POP POP POP DUP2 MSTORE PUSH1 0x20 ADD PUSH1 0x1 DUP3 ADD SLOAD DUP2 MSTORE PUSH1 0x20 ADD PUSH1 0x2 DUP3 ADD SLOAD DUP2 MSTORE POP POP SWAP1 POP DUP1 PUSH0 ADD MLOAD DUP2 PUSH1 0x20 ADD MLOAD DUP3 PUSH1 0x40 ADD MLOAD SWAP4 POP SWAP4 POP SWAP4 POP POP SWAP2 SWAP4 SWAP1 SWAP3 POP JUMP JUMPDEST PUSH1 0x60 PUSH0 PUSH0 PUSH1 0x1 PUSH0 CALLER PUSH20 0xFFFFFFFFFFFFFFFFFFFFFFFFFFFFFFFFFFFFFFFF AND PUSH20 0xFFFFFFFFFFFFFFFFFFFFFFFFFFFFFFFFFFFFFFFF AND DUP2 MSTORE PUSH1 0x20 ADD SWAP1 DUP2 MSTORE PUSH1 0x20 ADD PUSH0 KECCAK256 PUSH0 SWAP1 SLOAD SWAP1 PUSH2 0x100 EXP SWAP1 DIV PUSH1 0xFF AND PUSH2 0x352 JUMPI PUSH1 0x40 MLOAD PUSH32 0x8C379A000000000000000000000000000000000000000000000000000000000 DUP2 MSTORE PUSH1 0x4 ADD PUSH2 0x349 SWAP1 PUSH2 0xCEE JUMP JUMPDEST PUSH1 0x40 MLOAD DUP1 SWAP2 SUB SWAP1 REVERT JUMPDEST PUSH0 PUSH0 PUSH0 CALLER PUSH20 0xFFFFFFFFFFFFFFFFFFFFFFFFFFFFFFFFFFFFFFFF AND PUSH20 0xFFFFFFFFFFFFFFFFFFFFFFFFFFFFFFFFFFFFFFFF AND DUP2 MSTORE PUSH1 0x20 ADD SWAP1 DUP2 MSTORE PUSH1 0x20 ADD PUSH0 KECCAK256 PUSH1 0x40 MLOAD DUP1 PUSH1 0x60 ADD PUSH1 0x40 MSTORE SWAP1 DUP2 PUSH0 DUP3 ADD DUP1 SLOAD PUSH2 0x3A9 SWAP1 PUSH2 0xC74 JUMP JUMPDEST DUP1 PUSH1 0x1F ADD PUSH1 0x20 DUP1 SWAP2 DIV MUL PUSH1 0x20 ADD PUSH1 0x40 MLOAD SWAP1 DUP2 ADD PUSH1 0x40 MSTORE DUP1 SWAP3 SWAP2 SWAP1 DUP2 DUP2 MSTORE PUSH1 0x20 ADD DUP3 DUP1 SLOAD PUSH2 0x3D5 SWAP1 PUSH2 0xC74 JUMP JUMPDEST DUP1 ISZERO PUSH2 0x420 JUMPI DUP1 PUSH1 0x1F LT PUSH2 0x3F7 JUMPI PUSH2 0x100 DUP1 DUP4 SLOAD DIV MUL DUP4 MSTORE SWAP2 PUSH1 0x20 ADD SWAP2 PUSH2 0x420 JUMP JUMPDEST DUP3 ADD SWAP2 SWAP1 PUSH0 MSTORE PUSH1 0x20 PUSH0 KECCAK256 SWAP1 JUMPDEST DUP2 SLOAD DUP2 MSTORE SWAP1 PUSH1 0x1 ADD SWAP1 PUSH1 0x20 ADD DUP1 DUP4 GT PUSH2 0x403 JUMPI DUP3 SWAP1 SUB PUSH1 0x1F AND DUP3 ADD SWAP2 JUMPDEST POP POP POP POP POP DUP2 MSTORE PUSH1 0x20 ADD PUSH1 0x1 DUP3 ADD SLOAD DUP2 MSTORE PUSH1 0x20 ADD PUSH1 0x2 DUP3 ADD SLOAD DUP2 MSTORE POP POP SWAP1 POP DUP1 PUSH0 ADD MLOAD DUP2 PUSH1 0x20 ADD MLOAD DUP3 PUSH1 0x40 ADD MLOAD SWAP4 POP SWAP4 POP SWAP4 POP POP SWAP1 SWAP2 SWAP3 JUMP JUMPDEST PUSH1 0x2 DUP2 DUP2 SLOAD DUP2 LT PUSH2 0x468 JUMPI PUSH0 DUP1 REVERT JUMPDEST SWAP1 PUSH0 MSTORE PUSH1 0x20 PUSH0 KECCAK256 ADD PUSH0 SWAP2 POP SLOAD SWAP1 PUSH2 0x100 EXP SWAP1 DIV PUSH20 0xFFFFFFFFFFFFFFFFFFFFFFFFFFFFFFFFFFFFFFFF AND DUP2 JUMP JUMPDEST PUSH0 PUSH1 0x20 MSTORE DUP1 PUSH0 MSTORE PUSH1 0x40 PUSH0 KECCAK256 PUSH0 SWAP2 POP SWAP1 POP DUP1 PUSH0 ADD DUP1 SLOAD PUSH2 0x4B2 SWAP1 PUSH2 0xC74 JUMP JUMPDEST DUP1 PUSH1 0x1F ADD PUSH1 0x20 DUP1 SWAP2 DIV MUL PUSH1 0x20 ADD PUSH1 0x40 MLOAD SWAP1 DUP2 ADD PUSH1 0x40 MSTORE DUP1 SWAP3 SWAP2 SWAP1 DUP2 DUP2 MSTORE PUSH1 0x20 ADD DUP3 DUP1 SLOAD PUSH2 0x4DE SWAP1 PUSH2 0xC74 JUMP JUMPDEST DUP1 ISZERO PUSH2 0x529 JUMPI DUP1 PUSH1 0x1F LT PUSH2 0x500 JUMPI PUSH2 0x100 DUP1 DUP4 SLOAD DIV MUL DUP4 MSTORE SWAP2 PUSH1 0x20 ADD SWAP2 PUSH2 0x529 JUMP JUMPDEST DUP3 ADD SWAP2 SWAP1 PUSH0 MSTORE PUSH1 0x20 PUSH0 KECCAK256 SWAP1 JUMPDEST DUP2 SLOAD DUP2 MSTORE SWAP1 PUSH1 0x1 ADD SWAP1 PUSH1 0x20 ADD DUP1 DUP4 GT PUSH2 0x50C JUMPI DUP3 SWAP1 SUB PUSH1 0x1F AND DUP3 ADD SWAP2 JUMPDEST POP POP POP POP POP SWAP1 DUP1 PUSH1 0x1 ADD SLOAD SWAP1 DUP1 PUSH1 0x2 ADD SLOAD SWAP1 POP DUP4 JUMP JUMPDEST PUSH1 0x1 PUSH0 CALLER PUSH20 0xFFFFFFFFFFFFFFFFFFFFFFFFFFFFFFFFFFFFFFFF AND PUSH20 0xFFFFFFFFFFFFFFFFFFFFFFFFFFFFFFFFFFFFFFFF AND DUP2 MSTORE PUSH1 0x20 ADD SWAP1 DUP2 MSTORE PUSH1 0x20 ADD PUSH0 KECCAK256 PUSH0 SWAP1 SLOAD SWAP1 PUSH2 0x100 EXP SWAP1 DIV PUSH1 0xFF AND ISZERO PUSH2 0x5C9 JUMPI PUSH1 0x40 MLOAD PUSH32 0x8C379A000000000000000000000000000000000000000000000000000000000 DUP2 MSTORE PUSH1 0x4 ADD PUSH2 0x5C0 SWAP1 PUSH2 0xD56 JUMP JUMPDEST PUSH1 0x40 MLOAD DUP1 SWAP2 SUB SWAP1 REVERT JUMPDEST PUSH1 0x40 MLOAD DUP1 PUSH1 0x60 ADD PUSH1 0x40 MSTORE DUP1 DUP4 DUP2 MSTORE PUSH1 0x20 ADD DUP3 DUP2 MSTORE PUSH1 0x20 ADD PUSH0 DUP2 MSTORE POP PUSH0 PUSH0 CALLER PUSH20 0xFFFFFFFFFFFFFFFFFFFFFFFFFFFFFFFFFFFFFFFF AND PUSH20 0xFFFFFFFFFFFFFFFFFFFFFFFFFFFFFFFFFFFFFFFF AND DUP2 MSTORE PUSH1 0x20 ADD SWAP1 DUP2 MSTORE PUSH1 0x20 ADD PUSH0 KECCAK256 PUSH0 DUP3 ADD MLOAD DUP2 PUSH0 ADD SWAP1 DUP2 PUSH2 0x633 SWAP2 SWAP1 PUSH2 0xF25 JUMP JUMPDEST POP PUSH1 0x20 DUP3 ADD MLOAD DUP2 PUSH1 0x1 ADD SSTORE PUSH1 0x40 DUP3 ADD MLOAD DUP2 PUSH1 0x2 ADD SSTORE SWAP1 POP POP PUSH1 0x1 DUP1 PUSH0 CALLER PUSH20 0xFFFFFFFFFFFFFFFFFFFFFFFFFFFFFFFFFFFFFFFF AND PUSH20 0xFFFFFFFFFFFFFFFFFFFFFFFFFFFFFFFFFFFFFFFF AND DUP2 MSTORE PUSH1 0x20 ADD SWAP1 DUP2 MSTORE PUSH1 0x20 ADD PUSH0 KECCAK256 PUSH0 PUSH2 0x100 EXP DUP2 SLOAD DUP2 PUSH1 0xFF MUL NOT AND SWAP1 DUP4 ISZERO ISZERO MUL OR SWAP1 SSTORE POP PUSH1 0x2 CALLER SWAP1 DUP1 PUSH1 0x1 DUP2 SLOAD ADD DUP1 DUP3 SSTORE DUP1 SWAP2 POP POP PUSH1 0x1 SWAP1 SUB SWAP1 PUSH0 MSTORE PUSH1 0x20 PUSH0 KECCAK256 ADD PUSH0 SWAP1 SWAP2 SWAP1 SWAP2 SWAP1 SWAP2 PUSH2 0x100 EXP DUP2 SLOAD DUP2 PUSH20 0xFFFFFFFFFFFFFFFFFFFFFFFFFFFFFFFFFFFFFFFF MUL NOT AND SWAP1 DUP4 PUSH20 0xFFFFFFFFFFFFFFFFFFFFFFFFFFFFFFFFFFFFFFFF AND MUL OR SWAP1 SSTORE POP CALLER PUSH20 0xFFFFFFFFFFFFFFFFFFFFFFFFFFFFFFFFFFFFFFFF AND PUSH32 0x89105A1C6A3C2FBD471255C66A31CCAB604AF5697F67D7E2E9A0028C5E4DBD91 DUP4 DUP4 PUSH1 0x40 MLOAD PUSH2 0x747 SWAP3 SWAP2 SWAP1 PUSH2 0xFF4 JUMP JUMPDEST PUSH1 0x40 MLOAD DUP1 SWAP2 SUB SWAP1 LOG2 POP POP JUMP JUMPDEST PUSH1 0x1 PUSH0 CALLER PUSH20 0xFFFFFFFFFFFFFFFFFFFFFFFFFFFFFFFFFFFFFFFF AND PUSH20 0xFFFFFFFFFFFFFFFFFFFFFFFFFFFFFFFFFFFFFFFF AND DUP2 MSTORE PUSH1 0x20 ADD SWAP1 DUP2 MSTORE PUSH1 0x20 ADD PUSH0 KECCAK256 PUSH0 SWAP1 SLOAD SWAP1 PUSH2 0x100 EXP SWAP1 DIV PUSH1 0xFF AND PUSH2 0x7DC JUMPI PUSH1 0x40 MLOAD PUSH32 0x8C379A000000000000000000000000000000000000000000000000000000000 DUP2 MSTORE PUSH1 0x4 ADD PUSH2 0x7D3 SWAP1 PUSH2 0xCEE JUMP JUMPDEST PUSH1 0x40 MLOAD DUP1 SWAP2 SUB SWAP1 REVERT JUMPDEST PUSH0 PUSH0 PUSH0 CALLER PUSH20 0xFFFFFFFFFFFFFFFFFFFFFFFFFFFFFFFFFFFFFFFF AND PUSH20 0xFFFFFFFFFFFFFFFFFFFFFFFFFFFFFFFFFFFFFFFF AND DUP2 MSTORE PUSH1 0x20 ADD SWAP1 DUP2 MSTORE PUSH1 0x20 ADD PUSH0 KECCAK256 PUSH1 0x2 ADD SLOAD SWAP1 POP DUP2 PUSH0 PUSH0 CALLER PUSH20 0xFFFFFFFFFFFFFFFFFFFFFFFFFFFFFFFFFFFFFFFF AND PUSH20 0xFFFFFFFFFFFFFFFFFFFFFFFFFFFFFFFFFFFFFFFF AND DUP2 MSTORE PUSH1 0x20 ADD SWAP1 DUP2 MSTORE PUSH1 0x20 ADD PUSH0 KECCAK256 PUSH1 0x2 ADD DUP2 SWAP1 SSTORE POP CALLER PUSH20 0xFFFFFFFFFFFFFFFFFFFFFFFFFFFFFFFFFFFFFFFF AND PUSH32 0x91878448EF87C3DB4AEB83E60E7DEB1240ECAE3FD04975EC93547398514CB4ED DUP3 DUP5 PUSH1 0x40 MLOAD PUSH2 0x8AB SWAP3 SWAP2 SWAP1 PUSH2 0x1022 JUMP JUMPDEST PUSH1 0x40 MLOAD DUP1 SWAP2 SUB SWAP1 LOG2 POP POP JUMP JUMPDEST PUSH0 PUSH1 0x40 MLOAD SWAP1 POP SWAP1 JUMP JUMPDEST PUSH0 PUSH0 REVERT JUMPDEST PUSH0 PUSH0 REVERT JUMPDEST PUSH0 PUSH20 0xFFFFFFFFFFFFFFFFFFFFFFFFFFFFFFFFFFFFFFFF DUP3 AND SWAP1 POP SWAP2 SWAP1 POP JUMP JUMPDEST PUSH0 PUSH2 0x8F1 DUP3 PUSH2 0x8C8 JUMP JUMPDEST SWAP1 POP SWAP2 SWAP1 POP JUMP JUMPDEST PUSH2 0x901 DUP2 PUSH2 0x8E7 JUMP JUMPDEST DUP2 EQ PUSH2 0x90B JUMPI PUSH0 PUSH0 REVERT JUMPDEST POP JUMP JUMPDEST PUSH0 DUP2 CALLDATALOAD SWAP1 POP PUSH2 0x91C DUP2 PUSH2 0x8F8 JUMP JUMPDEST SWAP3 SWAP2 POP POP JUMP JUMPDEST PUSH0 PUSH1 0x20 DUP3 DUP5 SUB SLT ISZERO PUSH2 0x937 JUMPI PUSH2 0x936 PUSH2 0x8C0 JUMP JUMPDEST JUMPDEST PUSH0 PUSH2 0x944 DUP5 DUP3 DUP6 ADD PUSH2 0x90E JUMP JUMPDEST SWAP2 POP POP SWAP3 SWAP2 POP POP JUMP JUMPDEST PUSH0 DUP2 ISZERO ISZERO SWAP1 POP SWAP2 SWAP1 POP JUMP JUMPDEST PUSH2 0x961 DUP2 PUSH2 0x94D JUMP JUMPDEST DUP3 MSTORE POP POP JUMP JUMPDEST PUSH0 PUSH1 0x20 DUP3 ADD SWAP1 POP PUSH2 0x97A PUSH0 DUP4 ADD DUP5 PUSH2 0x958 JUMP JUMPDEST SWAP3 SWAP2 POP POP JUMP JUMPDEST PUSH0 DUP2 MLOAD SWAP1 POP SWAP2 SWAP1 POP JUMP JUMPDEST PUSH0 DUP3 DUP3 MSTORE PUSH1 0x20 DUP3 ADD SWAP1 POP SWAP3 SWAP2 POP POP JUMP JUMPDEST DUP3 DUP2 DUP4 MCOPY PUSH0 DUP4 DUP4 ADD MSTORE POP POP POP JUMP JUMPDEST PUSH0 PUSH1 0x1F NOT PUSH1 0x1F DUP4 ADD AND SWAP1 POP SWAP2 SWAP1 POP JUMP JUMPDEST PUSH0 PUSH2 0x9C2 DUP3 PUSH2 0x980 JUMP JUMPDEST PUSH2 0x9CC DUP2 DUP6 PUSH2 0x98A JUMP JUMPDEST SWAP4 POP PUSH2 0x9DC DUP2 DUP6 PUSH1 0x20 DUP7 ADD PUSH2 0x99A JUMP JUMPDEST PUSH2 0x9E5 DUP2 PUSH2 0x9A8 JUMP JUMPDEST DUP5 ADD SWAP2 POP POP SWAP3 SWAP2 POP POP JUMP JUMPDEST PUSH0 DUP2 SWAP1 POP SWAP2 SWAP1 POP JUMP JUMPDEST PUSH2 0xA02 DUP2 PUSH2 0x9F0 JUMP JUMPDEST DUP3 MSTORE POP POP JUMP JUMPDEST PUSH0 PUSH1 0x60 DUP3 ADD SWAP1 POP DUP2 DUP2 SUB PUSH0 DUP4 ADD MSTORE PUSH2 0xA20 DUP2 DUP7 PUSH2 0x9B8 JUMP JUMPDEST SWAP1 POP PUSH2 0xA2F PUSH1 0x20 DUP4 ADD DUP6 PUSH2 0x9F9 JUMP JUMPDEST PUSH2 0xA3C PUSH1 0x40 DUP4 ADD DUP5 PUSH2 0x9F9 JUMP JUMPDEST SWAP5 SWAP4 POP POP POP POP JUMP JUMPDEST PUSH2 0xA4D DUP2 PUSH2 0x9F0 JUMP JUMPDEST DUP2 EQ PUSH2 0xA57 JUMPI PUSH0 PUSH0 REVERT JUMPDEST POP JUMP JUMPDEST PUSH0 DUP2 CALLDATALOAD SWAP1 POP PUSH2 0xA68 DUP2 PUSH2 0xA44 JUMP JUMPDEST SWAP3 SWAP2 POP POP JUMP JUMPDEST PUSH0 PUSH1 0x20 DUP3 DUP5 SUB SLT ISZERO PUSH2 0xA83 JUMPI PUSH2 0xA82 PUSH2 0x8C0 JUMP JUMPDEST JUMPDEST PUSH0 PUSH2 0xA90 DUP5 DUP3 DUP6 ADD PUSH2 0xA5A JUMP JUMPDEST SWAP2 POP POP SWAP3 SWAP2 POP POP JUMP JUMPDEST PUSH2 0xAA2 DUP2 PUSH2 0x8E7 JUMP JUMPDEST DUP3 MSTORE POP POP JUMP JUMPDEST PUSH0 PUSH1 0x20 DUP3 ADD SWAP1 POP PUSH2 0xABB PUSH0 DUP4 ADD DUP5 PUSH2 0xA99 JUMP JUMPDEST SWAP3 SWAP2 POP POP JUMP JUMPDEST PUSH0 PUSH0 REVERT JUMPDEST PUSH0 PUSH0 REVERT JUMPDEST PUSH32 0x4E487B7100000000000000000000000000000000000000000000000000000000 PUSH0 MSTORE PUSH1 0x41 PUSH1 0x4 MSTORE PUSH1 0x24 PUSH0 REVERT JUMPDEST PUSH2 0xAFF DUP3 PUSH2 0x9A8 JUMP JUMPDEST DUP2 ADD DUP2 DUP2 LT PUSH8 0xFFFFFFFFFFFFFFFF DUP3 GT OR ISZERO PUSH2 0xB1E JUMPI PUSH2 0xB1D PUSH2 0xAC9 JUMP JUMPDEST JUMPDEST DUP1 PUSH1 0x40 MSTORE POP POP POP JUMP JUMPDEST PUSH0 PUSH2 0xB30 PUSH2 0x8B7 JUMP JUMPDEST SWAP1 POP PUSH2 0xB3C DUP3 DUP3 PUSH2 0xAF6 JUMP JUMPDEST SWAP2 SWAP1 POP JUMP JUMPDEST PUSH0 PUSH8 0xFFFFFFFFFFFFFFFF DUP3 GT ISZERO PUSH2 0xB5B JUMPI PUSH2 0xB5A PUSH2 0xAC9 JUMP JUMPDEST JUMPDEST PUSH2 0xB64 DUP3 PUSH2 0x9A8 JUMP JUMPDEST SWAP1 POP PUSH1 0x20 DUP2 ADD SWAP1 POP SWAP2 SWAP1 POP JUMP JUMPDEST DUP3 DUP2 DUP4 CALLDATACOPY PUSH0 DUP4 DUP4 ADD MSTORE POP POP POP JUMP JUMPDEST PUSH0 PUSH2 0xB91 PUSH2 0xB8C DUP5 PUSH2 0xB41 JUMP JUMPDEST PUSH2 0xB27 JUMP JUMPDEST SWAP1 POP DUP3 DUP2 MSTORE PUSH1 0x20 DUP2 ADD DUP5 DUP5 DUP5 ADD GT ISZERO PUSH2 0xBAD JUMPI PUSH2 0xBAC PUSH2 0xAC5 JUMP JUMPDEST JUMPDEST PUSH2 0xBB8 DUP5 DUP3 DUP6 PUSH2 0xB71 JUMP JUMPDEST POP SWAP4 SWAP3 POP POP POP JUMP JUMPDEST PUSH0 DUP3 PUSH1 0x1F DUP4 ADD SLT PUSH2 0xBD4 JUMPI PUSH2 0xBD3 PUSH2 0xAC1 JUMP JUMPDEST JUMPDEST DUP2 CALLDATALOAD PUSH2 0xBE4 DUP5 DUP3 PUSH1 0x20 DUP7 ADD PUSH2 0xB7F JUMP JUMPDEST SWAP2 POP POP SWAP3 SWAP2 POP POP JUMP JUMPDEST PUSH0 PUSH0 PUSH1 0x40 DUP4 DUP6 SUB SLT ISZERO PUSH2 0xC03 JUMPI PUSH2 0xC02 PUSH2 0x8C0 JUMP JUMPDEST JUMPDEST PUSH0 DUP4 ADD CALLDATALOAD PUSH8 0xFFFFFFFFFFFFFFFF DUP2 GT ISZERO PUSH2 0xC20 JUMPI PUSH2 0xC1F PUSH2 0x8C4 JUMP JUMPDEST JUMPDEST PUSH2 0xC2C DUP6 DUP3 DUP7 ADD PUSH2 0xBC0 JUMP JUMPDEST SWAP3 POP POP PUSH1 0x20 PUSH2 0xC3D DUP6 DUP3 DUP7 ADD PUSH2 0xA5A JUMP JUMPDEST SWAP2 POP POP SWAP3 POP SWAP3 SWAP1 POP JUMP JUMPDEST PUSH32 0x4E487B7100000000000000000000000000000000000000000000000000000000 PUSH0 MSTORE PUSH1 0x22 PUSH1 0x4 MSTORE PUSH1 0x24 PUSH0 REVERT JUMPDEST PUSH0 PUSH1 0x2 DUP3 DIV SWAP1 POP PUSH1 0x1 DUP3 AND DUP1 PUSH2 0xC8B JUMPI PUSH1 0x7F DUP3 AND SWAP2 POP JUMPDEST PUSH1 0x20 DUP3 LT DUP2 SUB PUSH2 0xC9E JUMPI PUSH2 0xC9D PUSH2 0xC47 JUMP JUMPDEST JUMPDEST POP SWAP2 SWAP1 POP JUMP JUMPDEST PUSH32 0x4E6F742072656769737465726564000000000000000000000000000000000000 PUSH0 DUP3 ADD MSTORE POP JUMP JUMPDEST PUSH0 PUSH2 0xCD8 PUSH1 0xE DUP4 PUSH2 0x98A JUMP JUMPDEST SWAP2 POP PUSH2 0xCE3 DUP3 PUSH2 0xCA4 JUMP JUMPDEST PUSH1 0x20 DUP3 ADD SWAP1 POP SWAP2 SWAP1 POP JUMP JUMPDEST PUSH0 PUSH1 0x20 DUP3 ADD SWAP1 POP DUP2 DUP2 SUB PUSH0 DUP4 ADD MSTORE PUSH2 0xD05 DUP2 PUSH2 0xCCC JUMP JUMPDEST SWAP1 POP SWAP2 SWAP1 POP JUMP JUMPDEST PUSH32 0x416C726561647920726567697374657265640000000000000000000000000000 PUSH0 DUP3 ADD MSTORE POP JUMP JUMPDEST PUSH0 PUSH2 0xD40 PUSH1 0x12 DUP4 PUSH2 0x98A JUMP JUMPDEST SWAP2 POP PUSH2 0xD4B DUP3 PUSH2 0xD0C JUMP JUMPDEST PUSH1 0x20 DUP3 ADD SWAP1 POP SWAP2 SWAP1 POP JUMP JUMPDEST PUSH0 PUSH1 0x20 DUP3 ADD SWAP1 POP DUP2 DUP2 SUB PUSH0 DUP4 ADD MSTORE PUSH2 0xD6D DUP2 PUSH2 0xD34 JUMP JUMPDEST SWAP1 POP SWAP2 SWAP1 POP JUMP JUMPDEST PUSH0 DUP2 SWAP1 POP DUP2 PUSH0 MSTORE PUSH1 0x20 PUSH0 KECCAK256 SWAP1 POP SWAP2 SWAP1 POP JUMP JUMPDEST PUSH0 PUSH1 0x20 PUSH1 0x1F DUP4 ADD DIV SWAP1 POP SWAP2 SWAP1 POP JUMP JUMPDEST PUSH0 DUP3 DUP3 SHL SWAP1 POP SWAP3 SWAP2 POP POP JUMP JUMPDEST PUSH0 PUSH1 0x8 DUP4 MUL PUSH2 0xDD0 PUSH32 0xFFFFFFFFFFFFFFFFFFFFFFFFFFFFFFFFFFFFFFFFFFFFFFFFFFFFFFFFFFFFFFFF DUP3 PUSH2 0xD95 JUMP JUMPDEST PUSH2 0xDDA DUP7 DUP4 PUSH2 0xD95 JUMP JUMPDEST SWAP6 POP DUP1 NOT DUP5 AND SWAP4 POP DUP1 DUP7 AND DUP5 OR SWAP3 POP POP POP SWAP4 SWAP3 POP POP POP JUMP JUMPDEST PUSH0 DUP2 SWAP1 POP SWAP2 SWAP1 POP JUMP JUMPDEST PUSH0 PUSH2 0xE15 PUSH2 0xE10 PUSH2 0xE0B DUP5 PUSH2 0x9F0 JUMP JUMPDEST PUSH2 0xDF2 JUMP JUMPDEST PUSH2 0x9F0 JUMP JUMPDEST SWAP1 POP SWAP2 SWAP1 POP JUMP JUMPDEST PUSH0 DUP2 SWAP1 POP SWAP2 SWAP1 POP JUMP JUMPDEST PUSH2 0xE2E DUP4 PUSH2 0xDFB JUMP JUMPDEST PUSH2 0xE42 PUSH2 0xE3A DUP3 PUSH2 0xE1C JUMP JUMPDEST DUP5 DUP5 SLOAD PUSH2 0xDA1 JUMP JUMPDEST DUP3 SSTORE POP POP POP POP JUMP JUMPDEST PUSH0 PUSH0 SWAP1 POP SWAP1 JUMP JUMPDEST PUSH2 0xE59 PUSH2 0xE4A JUMP JUMPDEST PUSH2 0xE64 DUP2 DUP5 DUP5 PUSH2 0xE25 JUMP JUMPDEST POP POP POP JUMP JUMPDEST PUSH0 JUMPDEST DUP3 DUP2 LT ISZERO PUSH2 0xE8A JUMPI PUSH2 0xE7F PUSH0 DUP3 DUP5 ADD PUSH2 0xE51 JUMP JUMPDEST PUSH1 0x1 DUP2 ADD SWAP1 POP PUSH2 0xE6B JUMP JUMPDEST POP POP POP JUMP JUMPDEST PUSH1 0x1F DUP3 GT ISZERO PUSH2 0xEDD JUMPI DUP3 DUP3 GT ISZERO PUSH2 0xEDC JUMPI PUSH2 0xEA9 DUP2 PUSH2 0xD74 JUMP JUMPDEST PUSH2 0xEB2 DUP4 PUSH2 0xD86 JUMP JUMPDEST PUSH2 0xEBB DUP6 PUSH2 0xD86 JUMP JUMPDEST PUSH1 0x20 DUP7 LT ISZERO PUSH2 0xEC8 JUMPI PUSH0 SWAP1 POP JUMPDEST DUP1 DUP4 ADD PUSH2 0xED7 DUP3 DUP5 SUB DUP3 PUSH2 0xE69 JUMP JUMPDEST POP POP POP POP JUMPDEST JUMPDEST POP POP POP JUMP JUMPDEST PUSH0 DUP3 DUP3 SHR SWAP1 POP SWAP3 SWAP2 POP POP JUMP JUMPDEST PUSH0 PUSH2 0xEFD PUSH0 NOT DUP5 PUSH1 0x8 MUL PUSH2 0xEE2 JUMP JUMPDEST NOT DUP1 DUP4 AND SWAP2 POP POP SWAP3 SWAP2 POP POP JUMP JUMPDEST PUSH0 PUSH2 0xF15 DUP4 DUP4 PUSH2 0xEEE JUMP JUMPDEST SWAP2 POP DUP3 PUSH1 0x2 MUL DUP3 OR SWAP1 POP SWAP3 SWAP2 POP POP JUMP JUMPDEST PUSH2 0xF2E DUP3 PUSH2 0x980 JUMP JUMPDEST PUSH8 0xFFFFFFFFFFFFFFFF DUP2 GT ISZERO PUSH2 0xF47 JUMPI PUSH2 0xF46 PUSH2 0xAC9 JUMP JUMPDEST JUMPDEST PUSH2 0xF51 DUP3 SLOAD PUSH2 0xC74 JUMP JUMPDEST PUSH2 0xF5C DUP3 DUP3 DUP6 PUSH2 0xE8F JUMP JUMPDEST PUSH0 PUSH1 0x20 SWAP1 POP PUSH1 0x1F DUP4 GT PUSH1 0x1 DUP2 EQ PUSH2 0xF8D JUMPI PUSH0 DUP5 ISZERO PUSH2 0xF7B JUMPI DUP3 DUP8 ADD MLOAD SWAP1 POP JUMPDEST PUSH2 0xF85 DUP6 DUP3 PUSH2 0xF0A JUMP JUMPDEST DUP7 SSTORE POP PUSH2 0xFEC JUMP JUMPDEST PUSH1 0x1F NOT DUP5 AND PUSH2 0xF9B DUP7 PUSH2 0xD74 JUMP JUMPDEST PUSH0 JUMPDEST DUP3 DUP2 LT ISZERO PUSH2 0xFC2 JUMPI DUP5 DUP10 ADD MLOAD DUP3 SSTORE PUSH1 0x1 DUP3 ADD SWAP2 POP PUSH1 0x20 DUP6 ADD SWAP5 POP PUSH1 0x20 DUP2 ADD SWAP1 POP PUSH2 0xF9D JUMP JUMPDEST DUP7 DUP4 LT ISZERO PUSH2 0xFDF JUMPI DUP5 DUP10 ADD MLOAD PUSH2 0xFDB PUSH1 0x1F DUP10 AND DUP3 PUSH2 0xEEE JUMP JUMPDEST DUP4 SSTORE POP JUMPDEST PUSH1 0x1 PUSH1 0x2 DUP9 MUL ADD DUP9 SSTORE POP POP POP JUMPDEST POP POP POP POP POP POP JUMP JUMPDEST PUSH0 PUSH1 0x40 DUP3 ADD SWAP1 POP DUP2 DUP2 SUB PUSH0 DUP4 ADD MSTORE PUSH2 0x100C DUP2 DUP6 PUSH2 0x9B8 JUMP JUMPDEST SWAP1 POP PUSH2 0x101B PUSH1 0x20 DUP4 ADD DUP5 PUSH2 0x9F9 JUMP JUMPDEST SWAP4 SWAP3 POP POP POP JUMP JUMPDEST PUSH0 PUSH1 0x40 DUP3 ADD SWAP1 POP PUSH2 0x1035 PUSH0 DUP4 ADD DUP6 PUSH2 0x9F9 JUMP JUMPDEST PUSH2 0x1042 PUSH1 0x20 DUP4 ADD DUP5 PUSH2 0x9F9 JUMP JUMPDEST SWAP4 SWAP3 POP POP POP JUMP INVALID LOG2 PUSH5 0x6970667358 0x22 SLT KECCAK256 PUSH10 0x25C44EC09F8EA332936E 0x4E 0x23 0xA5 PUSH18 0xF5ABA7C9C664E8DA8EED523EE5C14A677664 PUSH20 0x6F6C634300082200330000000000000000000000 "
				},
				"gasEstimates": {
					"creation": {
						"codeDepositCost": "844600",
						"executionCost": "875",
						"totalCost": "845475"
					},
					"external": {
						"getMyInfo()": "infinite",
						"getUser(address)": "infinite",
						"isUser(address)": "2834",
						"register(string,uint256)": "infinite",
						"updateScore(uint256)": "infinite",
						"userList(uint256)": "4944",
						"users(address)": "infinite"
					}
				},
				"methodIdentifiers": {
					"getMyInfo()": "7daa10ce",
					"getUser(address)": "6f77926b",
					"isUser(address)": "4209fff1",
					"register(string,uint256)": "ea87152b",
					"updateScore(uint256)": "f853e34d",
					"userList(uint256)": "9f4216e8",
					"users(address)": "a87430ba"
				}
			},
			"storageLayout": {
				"storage": [
					{
						"astId": 13,
						"contract": "test/UserStorage(Struct).sol:UserStorage",
						"label": "users",
						"offset": 0,
						"slot": "0",
						"type": "t_mapping(t_address,t_struct(User)8_storage)"
					},
					{
						"astId": 17,
						"contract": "test/UserStorage(Struct).sol:UserStorage",
						"label": "isUser",
						"offset": 0,
						"slot": "1",
						"type": "t_mapping(t_address,t_bool)"
					},
					{
						"astId": 20,
						"contract": "test/UserStorage(Struct).sol:UserStorage",
						"label": "userList",
						"offset": 0,
						"slot": "2",
						"type": "t_array(t_address)dyn_storage"
					}
				],
				"types": {
					"t_address": {
						"encoding": "inplace",
						"label": "address",
						"numberOfBytes": "20"
					},
					"t_array(t_address)dyn_storage": {
						"base": "t_address",
						"encoding": "dynamic_array",
						"label": "address[]",
						"numberOfBytes": "32"
					},
					"t_bool": {
						"encoding": "inplace",
						"label": "bool",
						"numberOfBytes": "1"
					},
					"t_mapping(t_address,t_bool)": {
						"encoding": "mapping",
						"key": "t_address",
						"label": "mapping(address => bool)",
						"numberOfBytes": "32",
						"value": "t_bool"
					},
					"t_mapping(t_address,t_struct(User)8_storage)": {
						"encoding": "mapping",
						"key": "t_address",
						"label": "mapping(address => struct UserStorage.User)",
						"numberOfBytes": "32",
						"value": "t_struct(User)8_storage"
					},
					"t_string_storage": {
						"encoding": "bytes",
						"label": "string",
						"numberOfBytes": "32"
					},
					"t_struct(User)8_storage": {
						"encoding": "inplace",
						"label": "struct UserStorage.User",
						"members": [
							{
								"astId": 3,
								"contract": "test/UserStorage(Struct).sol:UserStorage",
								"label": "name",
								"offset": 0,
								"slot": "0",
								"type": "t_string_storage"
							},
							{
								"astId": 5,
								"contract": "test/UserStorage(Struct).sol:UserStorage",
								"label": "age",
								"offset": 0,
								"slot": "1",
								"type": "t_uint256"
							},
							{
								"astId": 7,
								"contract": "test/UserStorage(Struct).sol:UserStorage",
								"label": "score",
								"offset": 0,
								"slot": "2",
								"type": "t_uint256"
							}
						],
						"numberOfBytes": "96"
					},
					"t_uint256": {
						"encoding": "inplace",
						"label": "uint256",
						"numberOfBytes": "32"
					}
				}
			},
			"userdoc": {
				"kind": "user",
				"methods": {},
				"version": 1
			}
		}
	}
}