{
	"test/SimpleBank(payble).sol": {
		"SimpleBank": {
			"abi": [
				{
					"anonymous": false,
					"inputs": [
						{
							"indexed": true,
							"internalType": "address",
							"name": "user",
							"type": "address"
						},
						{
							"indexed": false,
							"internalType": "uint256",
							"name": "amount",
							"type": "uint256"
						}
					],
					"name": "Received",
					"type": "event"
				},
				{
					"stateMutability": "payable",
					"type": "fallback"
				},
				{
					"inputs": [
						{
							"internalType": "address",
							"name": "",
							"type": "address"
						}
					],
					"name": "balances",
					"outputs": [
						{
							"internalType": "uint256",
							"name": "",
							"type": "uint256"
						}
					],
					"stateMutability": "view",
					"type": "function"
				},
				{
					"inputs": [],
					"name": "depoist",
					"outputs": [],
					"stateMutability": "payable",
					"type": "function"
				},
				{
					"inputs": [],
					"name": "getContractBalance",
					"outputs": [
						{
							"internalType": "uint256",
							"name": "",
							"type": "uint256"
						}
					],
					"stateMutability": "view",
					"type": "function"
				},
				{
					"inputs": [
						{
							"internalType": "uint256",
							"name": "amount",
							"type": "uint256"
						}
					],
					"name": "withdraw",
					"outputs": [],
					"stateMutability": "nonpayable",
					"type": "function"
				},
				{
					"stateMutability": "payable",
					"type": "receive"
				}
			],
			"devdoc": {
				"kind": "dev",
				"methods": {},
				"version": 1
			},
			"evm": {
				"assembly": "    /* \"test/SimpleBank(payble).sol\":61:3079  contract SimpleBank {... */\n  mstore(0x40, 0x80)\n  callvalue\n  dup1\n  iszero\n  tag_1\n  jumpi\n  revert(0x00, 0x00)\ntag_1:\n  pop\n  dataSize(sub_0)\n  dup1\n  dataOffset(sub_0)\n  0x00\n  codecopy\n  0x00\n  return\nstop\n\nsub_0: assembly {\n        /* \"test/SimpleBank(payble).sol\":61:3079  contract SimpleBank {... */\n      mstore(0x40, 0x80)\n      jumpi(tag_1, lt(calldatasize, 0x04))\n      shr(0xe0, calldataload(0x00))\n      dup1\n      0x041bacd2\n      eq\n      tag_3\n      jumpi\n      dup1\n      0x27e235e3\n      eq\n      tag_4\n      jumpi\n      dup1\n      0x2e1a7d4d\n      eq\n      tag_5\n      jumpi\n      dup1\n      0x6f9fb98a\n      eq\n      tag_6\n      jumpi\n      jump(tag_2)\n    tag_1:\n      jumpi(tag_2, calldatasize)\n        /* \"test/SimpleBank(payble).sol\":2831:2841  msg.sender */\n      caller\n        /* \"test/SimpleBank(payble).sol\":2822:2853  Received(msg.sender, msg.value) */\n      0xffffffffffffffffffffffffffffffffffffffff\n      and\n      0x88a5966d370b9919b20f3e2c13ff65706f196a4e32cc2c12bf57088f88525874\n        /* \"test/SimpleBank(payble).sol\":2843:2852  msg.value */\n      callvalue\n        /* \"test/SimpleBank(payble).sol\":2822:2853  Received(msg.sender, msg.value) */\n      mload(0x40)\n      tag_9\n      swap2\n      swap1\n      tag_10\n      jump\t// in\n    tag_9:\n      mload(0x40)\n      dup1\n      swap2\n      sub\n      swap1\n      log2\n        /* \"test/SimpleBank(payble).sol\":2864:2874  _deposit() */\n      tag_11\n        /* \"test/SimpleBank(payble).sol\":2864:2872  _deposit */\n      tag_12\n        /* \"test/SimpleBank(payble).sol\":2864:2874  _deposit() */\n      jump\t// in\n    tag_11:\n        /* \"test/SimpleBank(payble).sol\":61:3079  contract SimpleBank {... */\n      stop\n    tag_2:\n        /* \"test/SimpleBank(payble).sol\":3037:3068  revert(\"Invalid function call\") */\n      mload(0x40)\n      0x08c379a000000000000000000000000000000000000000000000000000000000\n      dup2\n      mstore\n      0x04\n      add\n      tag_15\n      swap1\n      tag_16\n      jump\t// in\n    tag_15:\n      mload(0x40)\n      dup1\n      swap2\n      sub\n      swap1\n      revert\n        /* \"test/SimpleBank(payble).sol\":902:965  function depoist() public payable {... */\n    tag_3:\n      tag_17\n      tag_18\n      jump\t// in\n    tag_17:\n      stop\n        /* \"test/SimpleBank(payble).sol\":145:188  mapping(address => uint256) public balances */\n    tag_4:\n      callvalue\n      dup1\n      iszero\n      tag_19\n      jumpi\n      revert(0x00, 0x00)\n    tag_19:\n      pop\n      tag_20\n      0x04\n      dup1\n      calldatasize\n      sub\n      dup2\n      add\n      swap1\n      tag_21\n      swap2\n      swap1\n      tag_22\n      jump\t// in\n    tag_21:\n      tag_23\n      jump\t// in\n    tag_20:\n      mload(0x40)\n      tag_24\n      swap2\n      swap1\n      tag_10\n      jump\t// in\n    tag_24:\n      mload(0x40)\n      dup1\n      swap2\n      sub\n      swap1\n      return\n        /* \"test/SimpleBank(payble).sol\":1061:2314  function withdraw(uint256 amount) public {... */\n    tag_5:\n      callvalue\n      dup1\n      iszero\n      tag_25\n      jumpi\n      revert(0x00, 0x00)\n    tag_25:\n      pop\n      tag_26\n      0x04\n      dup1\n      calldatasize\n      sub\n      dup2\n      add\n      swap1\n      tag_27\n      swap2\n      swap1\n      tag_28\n      jump\t// in\n    tag_27:\n      tag_29\n      jump\t// in\n    tag_26:\n      stop\n        /* \"test/SimpleBank(payble).sol\":2430:2659  function getContractBalance() public view returns (uint256) {... */\n    tag_6:\n      callvalue\n      dup1\n      iszero\n      tag_30\n      jumpi\n      revert(0x00, 0x00)\n    tag_30:\n      pop\n      tag_31\n      tag_32\n      jump\t// in\n    tag_31:\n      mload(0x40)\n      tag_33\n      swap2\n      swap1\n      tag_10\n      jump\t// in\n    tag_33:\n      mload(0x40)\n      dup1\n      swap2\n      sub\n      swap1\n      return\n        /* \"test/SimpleBank(payble).sol\":579:894  function _deposit() internal {... */\n    tag_12:\n        /* \"test/SimpleBank(payble).sol\":768:769  0 */\n      0x00\n        /* \"test/SimpleBank(payble).sol\":756:765  msg.value */\n      callvalue\n        /* \"test/SimpleBank(payble).sol\":756:769  msg.value > 0 */\n      gt\n        /* \"test/SimpleBank(payble).sol\":748:806  require(msg.value > 0, unicode\"잔액이 부족합니다\") */\n      tag_35\n      jumpi\n      mload(0x40)\n      0x08c379a000000000000000000000000000000000000000000000000000000000\n      dup2\n      mstore\n      0x04\n      add\n      tag_36\n      swap1\n      tag_37\n      jump\t// in\n    tag_36:\n      mload(0x40)\n      dup1\n      swap2\n      sub\n      swap1\n      revert\n    tag_35:\n        /* \"test/SimpleBank(payble).sol\":877:886  msg.value */\n      callvalue\n        /* \"test/SimpleBank(payble).sol\":853:861  balances */\n      0x00\n        /* \"test/SimpleBank(payble).sol\":853:873  balances[msg.sender] */\n      0x00\n        /* \"test/SimpleBank(payble).sol\":862:872  msg.sender */\n      caller\n        /* \"test/SimpleBank(payble).sol\":853:873  balances[msg.sender] */\n      0xffffffffffffffffffffffffffffffffffffffff\n      and\n      0xffffffffffffffffffffffffffffffffffffffff\n      and\n      dup2\n      mstore\n      0x20\n      add\n      swap1\n      dup2\n      mstore\n      0x20\n      add\n      0x00\n      keccak256\n      0x00\n        /* \"test/SimpleBank(payble).sol\":853:886  balances[msg.sender] += msg.value */\n      dup3\n      dup3\n      sload\n      tag_38\n      swap2\n      swap1\n      tag_39\n      jump\t// in\n    tag_38:\n      swap3\n      pop\n      pop\n      dup2\n      swap1\n      sstore\n      pop\n        /* \"test/SimpleBank(payble).sol\":579:894  function _deposit() internal {... */\n      jump\t// out\n        /* \"test/SimpleBank(payble).sol\":902:965  function depoist() public payable {... */\n    tag_18:\n        /* \"test/SimpleBank(payble).sol\":947:957  _deposit() */\n      tag_41\n        /* \"test/SimpleBank(payble).sol\":947:955  _deposit */\n      tag_12\n        /* \"test/SimpleBank(payble).sol\":947:957  _deposit() */\n      jump\t// in\n    tag_41:\n        /* \"test/SimpleBank(payble).sol\":902:965  function depoist() public payable {... */\n      jump\t// out\n        /* \"test/SimpleBank(payble).sol\":145:188  mapping(address => uint256) public balances */\n    tag_23:\n      mstore(0x20, 0x00)\n      dup1\n      0x00\n      mstore\n      keccak256(0x00, 0x40)\n      0x00\n      swap2\n      pop\n      swap1\n      pop\n      sload\n      dup2\n      jump\t// out\n        /* \"test/SimpleBank(payble).sol\":1061:2314  function withdraw(uint256 amount) public {... */\n    tag_29:\n        /* \"test/SimpleBank(payble).sol\":1240:1246  amount */\n      dup1\n        /* \"test/SimpleBank(payble).sol\":1216:1224  balances */\n      0x00\n        /* \"test/SimpleBank(payble).sol\":1216:1236  balances[msg.sender] */\n      0x00\n        /* \"test/SimpleBank(payble).sol\":1225:1235  msg.sender */\n      caller\n        /* \"test/SimpleBank(payble).sol\":1216:1236  balances[msg.sender] */\n      0xffffffffffffffffffffffffffffffffffffffff\n      and\n      0xffffffffffffffffffffffffffffffffffffffff\n      and\n      dup2\n      mstore\n      0x20\n      add\n      swap1\n      dup2\n      mstore\n      0x20\n      add\n      0x00\n      keccak256\n      sload\n        /* \"test/SimpleBank(payble).sol\":1216:1246  balances[msg.sender] >= amount */\n      lt\n      iszero\n        /* \"test/SimpleBank(payble).sol\":1208:1283  require(balances[msg.sender] >= amount, unicode\"잔액이 부족합니다\") */\n      tag_43\n      jumpi\n      mload(0x40)\n      0x08c379a000000000000000000000000000000000000000000000000000000000\n      dup2\n      mstore\n      0x04\n      add\n      tag_44\n      swap1\n      tag_37\n      jump\t// in\n    tag_44:\n      mload(0x40)\n      dup1\n      swap2\n      sub\n      swap1\n      revert\n    tag_43:\n        /* \"test/SimpleBank(payble).sol\":1435:1441  amount */\n      dup1\n        /* \"test/SimpleBank(payble).sol\":1411:1419  balances */\n      0x00\n        /* \"test/SimpleBank(payble).sol\":1411:1431  balances[msg.sender] */\n      0x00\n        /* \"test/SimpleBank(payble).sol\":1420:1430  msg.sender */\n      caller\n        /* \"test/SimpleBank(payble).sol\":1411:1431  balances[msg.sender] */\n      0xffffffffffffffffffffffffffffffffffffffff\n      and\n      0xffffffffffffffffffffffffffffffffffffffff\n      and\n      dup2\n      mstore\n      0x20\n      add\n      swap1\n      dup2\n      mstore\n      0x20\n      add\n      0x00\n      keccak256\n      0x00\n        /* \"test/SimpleBank(payble).sol\":1411:1441  balances[msg.sender] -= amount */\n      dup3\n      dup3\n      sload\n      tag_45\n      swap2\n      swap1\n      tag_46\n      jump\t// in\n    tag_45:\n      swap3\n      pop\n      pop\n      dup2\n      swap1\n      sstore\n      pop\n        /* \"test/SimpleBank(payble).sol\":1714:1726  bool success */\n      0x00\n        /* \"test/SimpleBank(payble).sol\":1732:1742  msg.sender */\n      caller\n        /* \"test/SimpleBank(payble).sol\":1732:1747  msg.sender.call */\n      0xffffffffffffffffffffffffffffffffffffffff\n      and\n        /* \"test/SimpleBank(payble).sol\":1755:1761  amount */\n      dup3\n        /* \"test/SimpleBank(payble).sol\":1732:1766  msg.sender.call{value: amount}(\"\") */\n      mload(0x40)\n      tag_47\n      swap1\n      tag_48\n      jump\t// in\n    tag_47:\n      0x00\n      mload(0x40)\n      dup1\n      dup4\n      sub\n      dup2\n      dup6\n      dup8\n      gas\n      call\n      swap3\n      pop\n      pop\n      pop\n      returndatasize\n      dup1\n      0x00\n      dup2\n      eq\n      tag_51\n      jumpi\n      mload(0x40)\n      swap2\n      pop\n      and(add(returndatasize, 0x3f), not(0x1f))\n      dup3\n      add\n      0x40\n      mstore\n      returndatasize\n      dup3\n      mstore\n      returndatasize\n      0x00\n      0x20\n      dup5\n      add\n      returndatacopy\n      jump(tag_50)\n    tag_51:\n      0x60\n      swap2\n      pop\n    tag_50:\n      pop\n        /* \"test/SimpleBank(payble).sol\":1713:1766  (bool success, ) = msg.sender.call{value: amount}(\"\") */\n      pop\n      swap1\n      pop\n        /* \"test/SimpleBank(payble).sol\":2270:2277  success */\n      dup1\n        /* \"test/SimpleBank(payble).sol\":2262:2306  require(success, unicode\"ETH 전송 실패\") */\n      tag_52\n      jumpi\n      mload(0x40)\n      0x08c379a000000000000000000000000000000000000000000000000000000000\n      dup2\n      mstore\n      0x04\n      add\n      tag_53\n      swap1\n      tag_54\n      jump\t// in\n    tag_53:\n      mload(0x40)\n      dup1\n      swap2\n      sub\n      swap1\n      revert\n    tag_52:\n        /* \"test/SimpleBank(payble).sol\":1102:2314  {... */\n      pop\n        /* \"test/SimpleBank(payble).sol\":1061:2314  function withdraw(uint256 amount) public {... */\n      pop\n      jump\t// out\n        /* \"test/SimpleBank(payble).sol\":2430:2659  function getContractBalance() public view returns (uint256) {... */\n    tag_32:\n        /* \"test/SimpleBank(payble).sol\":2481:2488  uint256 */\n      0x00\n        /* \"test/SimpleBank(payble).sol\":2630:2651  address(this).balance */\n      selfbalance\n        /* \"test/SimpleBank(payble).sol\":2623:2651  return address(this).balance */\n      swap1\n      pop\n        /* \"test/SimpleBank(payble).sol\":2430:2659  function getContractBalance() public view returns (uint256) {... */\n      swap1\n      jump\t// out\n        /* \"#utility.yul\":7:84   */\n    tag_56:\n        /* \"#utility.yul\":44:51   */\n      0x00\n        /* \"#utility.yul\":73:78   */\n      dup2\n        /* \"#utility.yul\":62:78   */\n      swap1\n      pop\n        /* \"#utility.yul\":7:84   */\n      swap2\n      swap1\n      pop\n      jump\t// out\n        /* \"#utility.yul\":90:208   */\n    tag_57:\n        /* \"#utility.yul\":177:201   */\n      tag_81\n        /* \"#utility.yul\":195:200   */\n      dup2\n        /* \"#utility.yul\":177:201   */\n      tag_56\n      jump\t// in\n    tag_81:\n        /* \"#utility.yul\":172:175   */\n      dup3\n        /* \"#utility.yul\":165:202   */\n      mstore\n        /* \"#utility.yul\":90:208   */\n      pop\n      pop\n      jump\t// out\n        /* \"#utility.yul\":214:436   */\n    tag_10:\n        /* \"#utility.yul\":307:311   */\n      0x00\n        /* \"#utility.yul\":345:347   */\n      0x20\n        /* \"#utility.yul\":334:343   */\n      dup3\n        /* \"#utility.yul\":330:348   */\n      add\n        /* \"#utility.yul\":322:348   */\n      swap1\n      pop\n        /* \"#utility.yul\":358:429   */\n      tag_83\n        /* \"#utility.yul\":426:427   */\n      0x00\n        /* \"#utility.yul\":415:424   */\n      dup4\n        /* \"#utility.yul\":411:428   */\n      add\n        /* \"#utility.yul\":402:408   */\n      dup5\n        /* \"#utility.yul\":358:429   */\n      tag_57\n      jump\t// in\n    tag_83:\n        /* \"#utility.yul\":214:436   */\n      swap3\n      swap2\n      pop\n      pop\n      jump\t// out\n        /* \"#utility.yul\":442:611   */\n    tag_58:\n        /* \"#utility.yul\":526:537   */\n      0x00\n        /* \"#utility.yul\":560:566   */\n      dup3\n        /* \"#utility.yul\":555:558   */\n      dup3\n        /* \"#utility.yul\":548:567   */\n      mstore\n        /* \"#utility.yul\":600:604   */\n      0x20\n        /* \"#utility.yul\":595:598   */\n      dup3\n        /* \"#utility.yul\":591:605   */\n      add\n        /* \"#utility.yul\":576:605   */\n      swap1\n      pop\n        /* \"#utility.yul\":442:611   */\n      swap3\n      swap2\n      pop\n      pop\n      jump\t// out\n        /* \"#utility.yul\":617:788   */\n    tag_59:\n        /* \"#utility.yul\":757:780   */\n      0x496e76616c69642066756e6374696f6e2063616c6c0000000000000000000000\n        /* \"#utility.yul\":753:754   */\n      0x00\n        /* \"#utility.yul\":745:751   */\n      dup3\n        /* \"#utility.yul\":741:755   */\n      add\n        /* \"#utility.yul\":734:781   */\n      mstore\n        /* \"#utility.yul\":617:788   */\n      pop\n      jump\t// out\n        /* \"#utility.yul\":794:1160   */\n    tag_60:\n        /* \"#utility.yul\":936:939   */\n      0x00\n        /* \"#utility.yul\":957:1024   */\n      tag_87\n        /* \"#utility.yul\":1021:1023   */\n      0x15\n        /* \"#utility.yul\":1016:1019   */\n      dup4\n        /* \"#utility.yul\":957:1024   */\n      tag_58\n      jump\t// in\n    tag_87:\n        /* \"#utility.yul\":950:1024   */\n      swap2\n      pop\n        /* \"#utility.yul\":1033:1126   */\n      tag_88\n        /* \"#utility.yul\":1122:1125   */\n      dup3\n        /* \"#utility.yul\":1033:1126   */\n      tag_59\n      jump\t// in\n    tag_88:\n        /* \"#utility.yul\":1151:1153   */\n      0x20\n        /* \"#utility.yul\":1146:1149   */\n      dup3\n        /* \"#utility.yul\":1142:1154   */\n      add\n        /* \"#utility.yul\":1135:1154   */\n      swap1\n      pop\n        /* \"#utility.yul\":794:1160   */\n      swap2\n      swap1\n      pop\n      jump\t// out\n        /* \"#utility.yul\":1166:1585   */\n    tag_16:\n        /* \"#utility.yul\":1332:1336   */\n      0x00\n        /* \"#utility.yul\":1370:1372   */\n      0x20\n        /* \"#utility.yul\":1359:1368   */\n      dup3\n        /* \"#utility.yul\":1355:1373   */\n      add\n        /* \"#utility.yul\":1347:1373   */\n      swap1\n      pop\n        /* \"#utility.yul\":1419:1428   */\n      dup2\n        /* \"#utility.yul\":1413:1417   */\n      dup2\n        /* \"#utility.yul\":1409:1429   */\n      sub\n        /* \"#utility.yul\":1405:1406   */\n      0x00\n        /* \"#utility.yul\":1394:1403   */\n      dup4\n        /* \"#utility.yul\":1390:1407   */\n      add\n        /* \"#utility.yul\":1383:1430   */\n      mstore\n        /* \"#utility.yul\":1447:1578   */\n      tag_90\n        /* \"#utility.yul\":1573:1577   */\n      dup2\n        /* \"#utility.yul\":1447:1578   */\n      tag_60\n      jump\t// in\n    tag_90:\n        /* \"#utility.yul\":1439:1578   */\n      swap1\n      pop\n        /* \"#utility.yul\":1166:1585   */\n      swap2\n      swap1\n      pop\n      jump\t// out\n        /* \"#utility.yul\":1672:1789   */\n    tag_62:\n        /* \"#utility.yul\":1781:1782   */\n      0x00\n        /* \"#utility.yul\":1778:1779   */\n      0x00\n        /* \"#utility.yul\":1771:1783   */\n      revert\n        /* \"#utility.yul\":1918:2044   */\n    tag_64:\n        /* \"#utility.yul\":1955:1962   */\n      0x00\n        /* \"#utility.yul\":1995:2037   */\n      0xffffffffffffffffffffffffffffffffffffffff\n        /* \"#utility.yul\":1988:1993   */\n      dup3\n        /* \"#utility.yul\":1984:2038   */\n      and\n        /* \"#utility.yul\":1973:2038   */\n      swap1\n      pop\n        /* \"#utility.yul\":1918:2044   */\n      swap2\n      swap1\n      pop\n      jump\t// out\n        /* \"#utility.yul\":2050:2146   */\n    tag_65:\n        /* \"#utility.yul\":2087:2094   */\n      0x00\n        /* \"#utility.yul\":2116:2140   */\n      tag_96\n        /* \"#utility.yul\":2134:2139   */\n      dup3\n        /* \"#utility.yul\":2116:2140   */\n      tag_64\n      jump\t// in\n    tag_96:\n        /* \"#utility.yul\":2105:2140   */\n      swap1\n      pop\n        /* \"#utility.yul\":2050:2146   */\n      swap2\n      swap1\n      pop\n      jump\t// out\n        /* \"#utility.yul\":2152:2274   */\n    tag_66:\n        /* \"#utility.yul\":2225:2249   */\n      tag_98\n        /* \"#utility.yul\":2243:2248   */\n      dup2\n        /* \"#utility.yul\":2225:2249   */\n      tag_65\n      jump\t// in\n    tag_98:\n        /* \"#utility.yul\":2218:2223   */\n      dup2\n        /* \"#utility.yul\":2215:2250   */\n      eq\n        /* \"#utility.yul\":2205:2268   */\n      tag_99\n      jumpi\n        /* \"#utility.yul\":2264:2265   */\n      0x00\n        /* \"#utility.yul\":2261:2262   */\n      0x00\n        /* \"#utility.yul\":2254:2266   */\n      revert\n        /* \"#utility.yul\":2205:2268   */\n    tag_99:\n        /* \"#utility.yul\":2152:2274   */\n      pop\n      jump\t// out\n        /* \"#utility.yul\":2280:2419   */\n    tag_67:\n        /* \"#utility.yul\":2326:2331   */\n      0x00\n        /* \"#utility.yul\":2364:2370   */\n      dup2\n        /* \"#utility.yul\":2351:2371   */\n      calldataload\n        /* \"#utility.yul\":2342:2371   */\n      swap1\n      pop\n        /* \"#utility.yul\":2380:2413   */\n      tag_101\n        /* \"#utility.yul\":2407:2412   */\n      dup2\n        /* \"#utility.yul\":2380:2413   */\n      tag_66\n      jump\t// in\n    tag_101:\n        /* \"#utility.yul\":2280:2419   */\n      swap3\n      swap2\n      pop\n      pop\n      jump\t// out\n        /* \"#utility.yul\":2425:2754   */\n    tag_22:\n        /* \"#utility.yul\":2484:2490   */\n      0x00\n        /* \"#utility.yul\":2533:2535   */\n      0x20\n        /* \"#utility.yul\":2521:2530   */\n      dup3\n        /* \"#utility.yul\":2512:2519   */\n      dup5\n        /* \"#utility.yul\":2508:2531   */\n      sub\n        /* \"#utility.yul\":2504:2536   */\n      slt\n        /* \"#utility.yul\":2501:2620   */\n      iszero\n      tag_103\n      jumpi\n        /* \"#utility.yul\":2539:2618   */\n      tag_104\n      tag_62\n      jump\t// in\n    tag_104:\n        /* \"#utility.yul\":2501:2620   */\n    tag_103:\n        /* \"#utility.yul\":2659:2660   */\n      0x00\n        /* \"#utility.yul\":2684:2737   */\n      tag_105\n        /* \"#utility.yul\":2729:2736   */\n      dup5\n        /* \"#utility.yul\":2720:2726   */\n      dup3\n        /* \"#utility.yul\":2709:2718   */\n      dup6\n        /* \"#utility.yul\":2705:2727   */\n      add\n        /* \"#utility.yul\":2684:2737   */\n      tag_67\n      jump\t// in\n    tag_105:\n        /* \"#utility.yul\":2674:2737   */\n      swap2\n      pop\n        /* \"#utility.yul\":2630:2747   */\n      pop\n        /* \"#utility.yul\":2425:2754   */\n      swap3\n      swap2\n      pop\n      pop\n      jump\t// out\n        /* \"#utility.yul\":2760:2882   */\n    tag_68:\n        /* \"#utility.yul\":2833:2857   */\n      tag_107\n        /* \"#utility.yul\":2851:2856   */\n      dup2\n        /* \"#utility.yul\":2833:2857   */\n      tag_56\n      jump\t// in\n    tag_107:\n        /* \"#utility.yul\":2826:2831   */\n      dup2\n        /* \"#utility.yul\":2823:2858   */\n      eq\n        /* \"#utility.yul\":2813:2876   */\n      tag_108\n      jumpi\n        /* \"#utility.yul\":2872:2873   */\n      0x00\n        /* \"#utility.yul\":2869:2870   */\n      0x00\n        /* \"#utility.yul\":2862:2874   */\n      revert\n        /* \"#utility.yul\":2813:2876   */\n    tag_108:\n        /* \"#utility.yul\":2760:2882   */\n      pop\n      jump\t// out\n        /* \"#utility.yul\":2888:3027   */\n    tag_69:\n        /* \"#utility.yul\":2934:2939   */\n      0x00\n        /* \"#utility.yul\":2972:2978   */\n      dup2\n        /* \"#utility.yul\":2959:2979   */\n      calldataload\n        /* \"#utility.yul\":2950:2979   */\n      swap1\n      pop\n        /* \"#utility.yul\":2988:3021   */\n      tag_110\n        /* \"#utility.yul\":3015:3020   */\n      dup2\n        /* \"#utility.yul\":2988:3021   */\n      tag_68\n      jump\t// in\n    tag_110:\n        /* \"#utility.yul\":2888:3027   */\n      swap3\n      swap2\n      pop\n      pop\n      jump\t// out\n        /* \"#utility.yul\":3033:3362   */\n    tag_28:\n        /* \"#utility.yul\":3092:3098   */\n      0x00\n        /* \"#utility.yul\":3141:3143   */\n      0x20\n        /* \"#utility.yul\":3129:3138   */\n      dup3\n        /* \"#utility.yul\":3120:3127   */\n      dup5\n        /* \"#utility.yul\":3116:3139   */\n      sub\n        /* \"#utility.yul\":3112:3144   */\n      slt\n        /* \"#utility.yul\":3109:3228   */\n      iszero\n      tag_112\n      jumpi\n        /* \"#utility.yul\":3147:3226   */\n      tag_113\n      tag_62\n      jump\t// in\n    tag_113:\n        /* \"#utility.yul\":3109:3228   */\n    tag_112:\n        /* \"#utility.yul\":3267:3268   */\n      0x00\n        /* \"#utility.yul\":3292:3345   */\n      tag_114\n        /* \"#utility.yul\":3337:3344   */\n      dup5\n        /* \"#utility.yul\":3328:3334   */\n      dup3\n        /* \"#utility.yul\":3317:3326   */\n      dup6\n        /* \"#utility.yul\":3313:3335   */\n      add\n        /* \"#utility.yul\":3292:3345   */\n      tag_69\n      jump\t// in\n    tag_114:\n        /* \"#utility.yul\":3282:3345   */\n      swap2\n      pop\n        /* \"#utility.yul\":3238:3355   */\n      pop\n        /* \"#utility.yul\":3033:3362   */\n      swap3\n      swap2\n      pop\n      pop\n      jump\t// out\n        /* \"#utility.yul\":3368:3582   */\n    tag_70:\n        /* \"#utility.yul\":3508:3574   */\n      0xec9e94ec95a1ec9db420ebb680eca1b1ed95a9eb8b88eb8ba400000000000000\n        /* \"#utility.yul\":3504:3505   */\n      0x00\n        /* \"#utility.yul\":3496:3502   */\n      dup3\n        /* \"#utility.yul\":3492:3506   */\n      add\n        /* \"#utility.yul\":3485:3575   */\n      mstore\n        /* \"#utility.yul\":3368:3582   */\n      pop\n      jump\t// out\n        /* \"#utility.yul\":3588:3954   */\n    tag_71:\n        /* \"#utility.yul\":3730:3733   */\n      0x00\n        /* \"#utility.yul\":3751:3818   */\n      tag_117\n        /* \"#utility.yul\":3815:3817   */\n      0x19\n        /* \"#utility.yul\":3810:3813   */\n      dup4\n        /* \"#utility.yul\":3751:3818   */\n      tag_58\n      jump\t// in\n    tag_117:\n        /* \"#utility.yul\":3744:3818   */\n      swap2\n      pop\n        /* \"#utility.yul\":3827:3920   */\n      tag_118\n        /* \"#utility.yul\":3916:3919   */\n      dup3\n        /* \"#utility.yul\":3827:3920   */\n      tag_70\n      jump\t// in\n    tag_118:\n        /* \"#utility.yul\":3945:3947   */\n      0x20\n        /* \"#utility.yul\":3940:3943   */\n      dup3\n        /* \"#utility.yul\":3936:3948   */\n      add\n        /* \"#utility.yul\":3929:3948   */\n      swap1\n      pop\n        /* \"#utility.yul\":3588:3954   */\n      swap2\n      swap1\n      pop\n      jump\t// out\n        /* \"#utility.yul\":3960:4379   */\n    tag_37:\n        /* \"#utility.yul\":4126:4130   */\n      0x00\n        /* \"#utility.yul\":4164:4166   */\n      0x20\n        /* \"#utility.yul\":4153:4162   */\n      dup3\n        /* \"#utility.yul\":4149:4167   */\n      add\n        /* \"#utility.yul\":4141:4167   */\n      swap1\n      pop\n        /* \"#utility.yul\":4213:4222   */\n      dup2\n        /* \"#utility.yul\":4207:4211   */\n      dup2\n        /* \"#utility.yul\":4203:4223   */\n      sub\n        /* \"#utility.yul\":4199:4200   */\n      0x00\n        /* \"#utility.yul\":4188:4197   */\n      dup4\n        /* \"#utility.yul\":4184:4201   */\n      add\n        /* \"#utility.yul\":4177:4224   */\n      mstore\n        /* \"#utility.yul\":4241:4372   */\n      tag_120\n        /* \"#utility.yul\":4367:4371   */\n      dup2\n        /* \"#utility.yul\":4241:4372   */\n      tag_71\n      jump\t// in\n    tag_120:\n        /* \"#utility.yul\":4233:4372   */\n      swap1\n      pop\n        /* \"#utility.yul\":3960:4379   */\n      swap2\n      swap1\n      pop\n      jump\t// out\n        /* \"#utility.yul\":4385:4565   */\n    tag_72:\n        /* \"#utility.yul\":4433:4510   */\n      0x4e487b7100000000000000000000000000000000000000000000000000000000\n        /* \"#utility.yul\":4430:4431   */\n      0x00\n        /* \"#utility.yul\":4423:4511   */\n      mstore\n        /* \"#utility.yul\":4530:4534   */\n      0x11\n        /* \"#utility.yul\":4527:4528   */\n      0x04\n        /* \"#utility.yul\":4520:4535   */\n      mstore\n        /* \"#utility.yul\":4554:4558   */\n      0x24\n        /* \"#utility.yul\":4551:4552   */\n      0x00\n        /* \"#utility.yul\":4544:4559   */\n      revert\n        /* \"#utility.yul\":4571:4762   */\n    tag_39:\n        /* \"#utility.yul\":4611:4614   */\n      0x00\n        /* \"#utility.yul\":4630:4650   */\n      tag_123\n        /* \"#utility.yul\":4648:4649   */\n      dup3\n        /* \"#utility.yul\":4630:4650   */\n      tag_56\n      jump\t// in\n    tag_123:\n        /* \"#utility.yul\":4625:4650   */\n      swap2\n      pop\n        /* \"#utility.yul\":4664:4684   */\n      tag_124\n        /* \"#utility.yul\":4682:4683   */\n      dup4\n        /* \"#utility.yul\":4664:4684   */\n      tag_56\n      jump\t// in\n    tag_124:\n        /* \"#utility.yul\":4659:4684   */\n      swap3\n      pop\n        /* \"#utility.yul\":4707:4708   */\n      dup3\n        /* \"#utility.yul\":4704:4705   */\n      dup3\n        /* \"#utility.yul\":4700:4709   */\n      add\n        /* \"#utility.yul\":4693:4709   */\n      swap1\n      pop\n        /* \"#utility.yul\":4728:4731   */\n      dup1\n        /* \"#utility.yul\":4725:4726   */\n      dup3\n        /* \"#utility.yul\":4722:4732   */\n      gt\n        /* \"#utility.yul\":4719:4755   */\n      iszero\n      tag_125\n      jumpi\n        /* \"#utility.yul\":4735:4753   */\n      tag_126\n      tag_72\n      jump\t// in\n    tag_126:\n        /* \"#utility.yul\":4719:4755   */\n    tag_125:\n        /* \"#utility.yul\":4571:4762   */\n      swap3\n      swap2\n      pop\n      pop\n      jump\t// out\n        /* \"#utility.yul\":4768:4962   */\n    tag_46:\n        /* \"#utility.yul\":4808:4812   */\n      0x00\n        /* \"#utility.yul\":4828:4848   */\n      tag_128\n        /* \"#utility.yul\":4846:4847   */\n      dup3\n        /* \"#utility.yul\":4828:4848   */\n      tag_56\n      jump\t// in\n    tag_128:\n        /* \"#utility.yul\":4823:4848   */\n      swap2\n      pop\n        /* \"#utility.yul\":4862:4882   */\n      tag_129\n        /* \"#utility.yul\":4880:4881   */\n      dup4\n        /* \"#utility.yul\":4862:4882   */\n      tag_56\n      jump\t// in\n    tag_129:\n        /* \"#utility.yul\":4857:4882   */\n      swap3\n      pop\n        /* \"#utility.yul\":4906:4907   */\n      dup3\n        /* \"#utility.yul\":4903:4904   */\n      dup3\n        /* \"#utility.yul\":4899:4908   */\n      sub\n        /* \"#utility.yul\":4891:4908   */\n      swap1\n      pop\n        /* \"#utility.yul\":4930:4931   */\n      dup2\n        /* \"#utility.yul\":4924:4928   */\n      dup2\n        /* \"#utility.yul\":4921:4932   */\n      gt\n        /* \"#utility.yul\":4918:4955   */\n      iszero\n      tag_130\n      jumpi\n        /* \"#utility.yul\":4935:4953   */\n      tag_131\n      tag_72\n      jump\t// in\n    tag_131:\n        /* \"#utility.yul\":4918:4955   */\n    tag_130:\n        /* \"#utility.yul\":4768:4962   */\n      swap3\n      swap2\n      pop\n      pop\n      jump\t// out\n        /* \"#utility.yul\":4968:5115   */\n    tag_73:\n        /* \"#utility.yul\":5069:5080   */\n      0x00\n        /* \"#utility.yul\":5106:5109   */\n      dup2\n        /* \"#utility.yul\":5091:5109   */\n      swap1\n      pop\n        /* \"#utility.yul\":4968:5115   */\n      swap3\n      swap2\n      pop\n      pop\n      jump\t// out\n        /* \"#utility.yul\":5121:5235   */\n    tag_74:\n      pop\n      jump\t// out\n        /* \"#utility.yul\":5241:5639   */\n    tag_75:\n        /* \"#utility.yul\":5400:5403   */\n      0x00\n        /* \"#utility.yul\":5421:5504   */\n      tag_135\n        /* \"#utility.yul\":5502:5503   */\n      0x00\n        /* \"#utility.yul\":5497:5500   */\n      dup4\n        /* \"#utility.yul\":5421:5504   */\n      tag_73\n      jump\t// in\n    tag_135:\n        /* \"#utility.yul\":5414:5504   */\n      swap2\n      pop\n        /* \"#utility.yul\":5513:5606   */\n      tag_136\n        /* \"#utility.yul\":5602:5605   */\n      dup3\n        /* \"#utility.yul\":5513:5606   */\n      tag_74\n      jump\t// in\n    tag_136:\n        /* \"#utility.yul\":5631:5632   */\n      0x00\n        /* \"#utility.yul\":5626:5629   */\n      dup3\n        /* \"#utility.yul\":5622:5633   */\n      add\n        /* \"#utility.yul\":5615:5633   */\n      swap1\n      pop\n        /* \"#utility.yul\":5241:5639   */\n      swap2\n      swap1\n      pop\n      jump\t// out\n        /* \"#utility.yul\":5645:6024   */\n    tag_48:\n        /* \"#utility.yul\":5829:5832   */\n      0x00\n        /* \"#utility.yul\":5851:5998   */\n      tag_138\n        /* \"#utility.yul\":5994:5997   */\n      dup3\n        /* \"#utility.yul\":5851:5998   */\n      tag_75\n      jump\t// in\n    tag_138:\n        /* \"#utility.yul\":5844:5998   */\n      swap2\n      pop\n        /* \"#utility.yul\":6015:6018   */\n      dup2\n        /* \"#utility.yul\":6008:6018   */\n      swap1\n      pop\n        /* \"#utility.yul\":5645:6024   */\n      swap2\n      swap1\n      pop\n      jump\t// out\n        /* \"#utility.yul\":6030:6244   */\n    tag_76:\n        /* \"#utility.yul\":6170:6236   */\n      0x45544820eca084ec86a120ec8ba4ed8ca8000000000000000000000000000000\n        /* \"#utility.yul\":6166:6167   */\n      0x00\n        /* \"#utility.yul\":6158:6164   */\n      dup3\n        /* \"#utility.yul\":6154:6168   */\n      add\n        /* \"#utility.yul\":6147:6237   */\n      mstore\n        /* \"#utility.yul\":6030:6244   */\n      pop\n      jump\t// out\n        /* \"#utility.yul\":6250:6616   */\n    tag_77:\n        /* \"#utility.yul\":6392:6395   */\n      0x00\n        /* \"#utility.yul\":6413:6480   */\n      tag_141\n        /* \"#utility.yul\":6477:6479   */\n      0x11\n        /* \"#utility.yul\":6472:6475   */\n      dup4\n        /* \"#utility.yul\":6413:6480   */\n      tag_58\n      jump\t// in\n    tag_141:\n        /* \"#utility.yul\":6406:6480   */\n      swap2\n      pop\n        /* \"#utility.yul\":6489:6582   */\n      tag_142\n        /* \"#utility.yul\":6578:6581   */\n      dup3\n        /* \"#utility.yul\":6489:6582   */\n      tag_76\n      jump\t// in\n    tag_142:\n        /* \"#utility.yul\":6607:6609   */\n      0x20\n        /* \"#utility.yul\":6602:6605   */\n      dup3\n        /* \"#utility.yul\":6598:6610   */\n      add\n        /* \"#utility.yul\":6591:6610   */\n      swap1\n      pop\n        /* \"#utility.yul\":6250:6616   */\n      swap2\n      swap1\n      pop\n      jump\t// out\n        /* \"#utility.yul\":6622:7041   */\n    tag_54:\n        /* \"#utility.yul\":6788:6792   */\n      0x00\n        /* \"#utility.yul\":6826:6828   */\n      0x20\n        /* \"#utility.yul\":6815:6824   */\n      dup3\n        /* \"#utility.yul\":6811:6829   */\n      add\n        /* \"#utility.yul\":6803:6829   */\n      swap1\n      pop\n        /* \"#utility.yul\":6875:6884   */\n      dup2\n        /* \"#utility.yul\":6869:6873   */\n      dup2\n        /* \"#utility.yul\":6865:6885   */\n      sub\n        /* \"#utility.yul\":6861:6862   */\n      0x00\n        /* \"#utility.yul\":6850:6859   */\n      dup4\n        /* \"#utility.yul\":6846:6863   */\n      add\n        /* \"#utility.yul\":6839:6886   */\n      mstore\n        /* \"#utility.yul\":6903:7034   */\n      tag_144\n        /* \"#utility.yul\":7029:7033   */\n      dup2\n        /* \"#utility.yul\":6903:7034   */\n      tag_77\n      jump\t// in\n    tag_144:\n        /* \"#utility.yul\":6895:7034   */\n      swap1\n      pop\n        /* \"#utility.yul\":6622:7041   */\n      swap2\n      swap1\n      pop\n      jump\t// out\n\n    auxdata: 0xa26469706673582212208696d2b526cf5bfba736c6e21c775c55c047e8c8c71c5d73bc52cebf53d0fb0164736f6c63430008220033\n}\n",
				"bytecode": {
					"linkReferences": {},
					"object": "6080604052348015600e575f5ffd5b5061070b8061001c5f395ff3fe608060405260043610610042575f3560e01c8063041bacd2146100da57806327e235e3146100e45780632e1a7d4d146101205780636f9fb98a146101485761009f565b3661009f573373ffffffffffffffffffffffffffffffffffffffff167f88a5966d370b9919b20f3e2c13ff65706f196a4e32cc2c12bf57088f885258743460405161008d91906103c2565b60405180910390a261009d610172565b005b6040517f08c379a00000000000000000000000000000000000000000000000000000000081526004016100d190610435565b60405180910390fd5b6100e2610208565b005b3480156100ef575f5ffd5b5061010a600480360381019061010591906104b1565b610212565b60405161011791906103c2565b60405180910390f35b34801561012b575f5ffd5b5061014660048036038101906101419190610506565b610226565b005b348015610153575f5ffd5b5061015c6103a3565b60405161016991906103c2565b60405180910390f35b5f34116101b4576040517f08c379a00000000000000000000000000000000000000000000000000000000081526004016101ab9061057b565b60405180910390fd5b345f5f3373ffffffffffffffffffffffffffffffffffffffff1673ffffffffffffffffffffffffffffffffffffffff1681526020019081526020015f205f8282546101ff91906105c6565b92505081905550565b610210610172565b565b5f602052805f5260405f205f915090505481565b805f5f3373ffffffffffffffffffffffffffffffffffffffff1673ffffffffffffffffffffffffffffffffffffffff1681526020019081526020015f205410156102a5576040517f08c379a000000000000000000000000000000000000000000000000000000000815260040161029c9061057b565b60405180910390fd5b805f5f3373ffffffffffffffffffffffffffffffffffffffff1673ffffffffffffffffffffffffffffffffffffffff1681526020019081526020015f205f8282546102f091906105f9565b925050819055505f3373ffffffffffffffffffffffffffffffffffffffff168260405161031c90610659565b5f6040518083038185875af1925050503d805f8114610356576040519150601f19603f3d011682016040523d82523d5f602084013e61035b565b606091505b505090508061039f576040517f08c379a0000000000000000000000000000000000000000000000000000000008152600401610396906106b7565b60405180910390fd5b5050565b5f47905090565b5f819050919050565b6103bc816103aa565b82525050565b5f6020820190506103d55f8301846103b3565b92915050565b5f82825260208201905092915050565b7f496e76616c69642066756e6374696f6e2063616c6c00000000000000000000005f82015250565b5f61041f6015836103db565b915061042a826103eb565b602082019050919050565b5f6020820190508181035f83015261044c81610413565b9050919050565b5f5ffd5b5f73ffffffffffffffffffffffffffffffffffffffff82169050919050565b5f61048082610457565b9050919050565b61049081610476565b811461049a575f5ffd5b50565b5f813590506104ab81610487565b92915050565b5f602082840312156104c6576104c5610453565b5b5f6104d38482850161049d565b91505092915050565b6104e5816103aa565b81146104ef575f5ffd5b50565b5f81359050610500816104dc565b92915050565b5f6020828403121561051b5761051a610453565b5b5f610528848285016104f2565b91505092915050565b7fec9e94ec95a1ec9db420ebb680eca1b1ed95a9eb8b88eb8ba4000000000000005f82015250565b5f6105656019836103db565b915061057082610531565b602082019050919050565b5f6020820190508181035f83015261059281610559565b9050919050565b7f4e487b71000000000000000000000000000000000000000000000000000000005f52601160045260245ffd5b5f6105d0826103aa565b91506105db836103aa565b92508282019050808211156105f3576105f2610599565b5b92915050565b5f610603826103aa565b915061060e836103aa565b925082820390508181111561062657610625610599565b5b92915050565b5f81905092915050565b50565b5f6106445f8361062c565b915061064f82610636565b5f82019050919050565b5f61066382610639565b9150819050919050565b7f45544820eca084ec86a120ec8ba4ed8ca80000000000000000000000000000005f82015250565b5f6106a16011836103db565b91506106ac8261066d565b602082019050919050565b5f6020820190508181035f8301526106ce81610695565b905091905056fea26469706673582212208696d2b526cf5bfba736c6e21c775c55c047e8c8c71c5d73bc52cebf53d0fb0164736f6c63430008220033",
					"opcodes": "PUSH1 0x80 PUSH1 0x40 MSTORE CALLVALUE DUP1 ISZERO PUSH1 0xE JUMPI PUSH0 PUSH0 REVERT JUMPDEST POP PUSH2 0x70B DUP1 PUSH2 0x1C PUSH0 CODECOPY PUSH0 RETURN INVALID PUSH1 0x80 PUSH1 0x40 MSTORE PUSH1 0x4 CALLDATASIZE LT PUSH2 0x42 JUMPI PUSH0 CALLDATALOAD PUSH1 0xE0 SHR DUP1 PUSH4 0x41BACD2 EQ PUSH2 0xDA JUMPI DUP1 PUSH4 0x27E235E3 EQ PUSH2 0xE4 JUMPI DUP1 PUSH4 0x2E1A7D4D EQ PUSH2 0x120 JUMPI DUP1 PUSH4 0x6F9FB98A EQ PUSH2 0x148 JUMPI PUSH2 0x9F JUMP JUMPDEST CALLDATASIZE PUSH2 0x9F JUMPI CALLER PUSH20 0xFFFFFFFFFFFFFFFFFFFFFFFFFFFFFFFFFFFFFFFF AND PUSH32 0x88A5966D370B9919B20F3E2C13FF65706F196A4E32CC2C12BF57088F88525874 CALLVALUE PUSH1 0x40 MLOAD PUSH2 0x8D SWAP2 SWAP1 PUSH2 0x3C2 JUMP JUMPDEST PUSH1 0x40 MLOAD DUP1 SWAP2 SUB SWAP1 LOG2 PUSH2 0x9D PUSH2 0x172 JUMP JUMPDEST STOP JUMPDEST PUSH1 0x40 MLOAD PUSH32 0x8C379A000000000000000000000000000000000000000000000000000000000 DUP2 MSTORE PUSH1 0x4 ADD PUSH2 0xD1 SWAP1 PUSH2 0x435 JUMP JUMPDEST PUSH1 0x40 MLOAD DUP1 SWAP2 SUB SWAP1 REVERT JUMPDEST PUSH2 0xE2 PUSH2 0x208 JUMP JUMPDEST STOP JUMPDEST CALLVALUE DUP1 ISZERO PUSH2 0xEF JUMPI PUSH0 PUSH0 REVERT JUMPDEST POP PUSH2 0x10A PUSH1 0x4 DUP1 CALLDATASIZE SUB DUP2 ADD SWAP1 PUSH2 0x105 SWAP2 SWAP1 PUSH2 0x4B1 JUMP JUMPDEST PUSH2 0x212 JUMP JUMPDEST PUSH1 0x40 MLOAD PUSH2 0x117 SWAP2 SWAP1 PUSH2 0x3C2 JUMP JUMPDEST PUSH1 0x40 MLOAD DUP1 SWAP2 SUB SWAP1 RETURN JUMPDEST CALLVALUE DUP1 ISZERO PUSH2 0x12B JUMPI PUSH0 PUSH0 REVERT JUMPDEST POP PUSH2 0x146 PUSH1 0x4 DUP1 CALLDATASIZE SUB DUP2 ADD SWAP1 PUSH2 0x141 SWAP2 SWAP1 PUSH2 0x506 JUMP JUMPDEST PUSH2 0x226 JUMP JUMPDEST STOP JUMPDEST CALLVALUE DUP1 ISZERO PUSH2 0x153 JUMPI PUSH0 PUSH0 REVERT JUMPDEST POP PUSH2 0x15C PUSH2 0x3A3 JUMP JUMPDEST PUSH1 0x40 MLOAD PUSH2 0x169 SWAP2 SWAP1 PUSH2 0x3C2 JUMP JUMPDEST PUSH1 0x40 MLOAD DUP1 SWAP2 SUB SWAP1 RETURN JUMPDEST PUSH0 CALLVALUE GT PUSH2 0x1B4 JUMPI PUSH1 0x40 MLOAD PUSH32 0x8C379A000000000000000000000000000000000000000000000000000000000 DUP2 MSTORE PUSH1 0x4 ADD PUSH2 0x1AB SWAP1 PUSH2 0x57B JUMP JUMPDEST PUSH1 0x40 MLOAD DUP1 SWAP2 SUB SWAP1 REVERT JUMPDEST CALLVALUE PUSH0 PUSH0 CALLER PUSH20 0xFFFFFFFFFFFFFFFFFFFFFFFFFFFFFFFFFFFFFFFF AND PUSH20 0xFFFFFFFFFFFFFFFFFFFFFFFFFFFFFFFFFFFFFFFF AND DUP2 MSTORE PUSH1 0x20 ADD SWAP1 DUP2 MSTORE PUSH1 0x20 ADD PUSH0 KECCAK256 PUSH0 DUP3 DUP3 SLOAD PUSH2 0x1FF SWAP2 SWAP1 PUSH2 0x5C6 JUMP JUMPDEST SWAP3 POP POP DUP2 SWAP1 SSTORE POP JUMP JUMPDEST PUSH2 0x210 PUSH2 0x172 JUMP JUMPDEST JUMP JUMPDEST PUSH0 PUSH1 0x20 MSTORE DUP1 PUSH0 MSTORE PUSH1 0x40 PUSH0 KECCAK256 PUSH0 SWAP2 POP SWAP1 POP SLOAD DUP2 JUMP JUMPDEST DUP1 PUSH0 PUSH0 CALLER PUSH20 0xFFFFFFFFFFFFFFFFFFFFFFFFFFFFFFFFFFFFFFFF AND PUSH20 0xFFFFFFFFFFFFFFFFFFFFFFFFFFFFFFFFFFFFFFFF AND DUP2 MSTORE PUSH1 0x20 ADD SWAP1 DUP2 MSTORE PUSH1 0x20 ADD PUSH0 KECCAK256 SLOAD LT ISZERO PUSH2 0x2A5 JUMPI PUSH1 0x40 MLOAD PUSH32 0x8C379A000000000000000000000000000000000000000000000000000000000 DUP2 MSTORE PUSH1 0x4 ADD PUSH2 0x29C SWAP1 PUSH2 0x57B JUMP JUMPDEST PUSH1 0x40 MLOAD DUP1 SWAP2 SUB SWAP1 REVERT JUMPDEST DUP1 PUSH0 PUSH0 CALLER PUSH20 0xFFFFFFFFFFFFFFFFFFFFFFFFFFFFFFFFFFFFFFFF AND PUSH20 0xFFFFFFFFFFFFFFFFFFFFFFFFFFFFFFFFFFFFFFFF AND DUP2 MSTORE PUSH1 0x20 ADD SWAP1 DUP2 MSTORE PUSH1 0x20 ADD PUSH0 KECCAK256 PUSH0 DUP3 DUP3 SLOAD PUSH2 0x2F0 SWAP2 SWAP1 PUSH2 0x5F9 JUMP JUMPDEST SWAP3 POP POP DUP2 SWAP1 SSTORE POP PUSH0 CALLER PUSH20 0xFFFFFFFFFFFFFFFFFFFFFFFFFFFFFFFFFFFFFFFF AND DUP3 PUSH1 0x40 MLOAD PUSH2 0x31C SWAP1 PUSH2 0x659 JUMP JUMPDEST PUSH0 PUSH1 0x40 MLOAD DUP1 DUP4 SUB DUP2 DUP6 DUP8 GAS CALL SWAP3 POP POP POP RETURNDATASIZE DUP1 PUSH0 DUP2 EQ PUSH2 0x356 JUMPI PUSH1 0x40 MLOAD SWAP2 POP PUSH1 0x1F NOT PUSH1 0x3F RETURNDATASIZE ADD AND DUP3 ADD PUSH1 0x40 MSTORE RETURNDATASIZE DUP3 MSTORE RETURNDATASIZE PUSH0 PUSH1 0x20 DUP5 ADD RETURNDATACOPY PUSH2 0x35B JUMP JUMPDEST PUSH1 0x60 SWAP2 POP JUMPDEST POP POP SWAP1 POP DUP1 PUSH2 0x39F JUMPI PUSH1 0x40 MLOAD PUSH32 0x8C379A000000000000000000000000000000000000000000000000000000000 DUP2 MSTORE PUSH1 0x4 ADD PUSH2 0x396 SWAP1 PUSH2 0x6B7 JUMP JUMPDEST PUSH1 0x40 MLOAD DUP1 SWAP2 SUB SWAP1 REVERT JUMPDEST POP POP JUMP JUMPDEST PUSH0 SELFBALANCE SWAP1 POP SWAP1 JUMP JUMPDEST PUSH0 DUP2 SWAP1 POP SWAP2 SWAP1 POP JUMP JUMPDEST PUSH2 0x3BC DUP2 PUSH2 0x3AA JUMP JUMPDEST DUP3 MSTORE POP POP JUMP JUMPDEST PUSH0 PUSH1 0x20 DUP3 ADD SWAP1 POP PUSH2 0x3D5 PUSH0 DUP4 ADD DUP5 PUSH2 0x3B3 JUMP JUMPDEST SWAP3 SWAP2 POP POP JUMP JUMPDEST PUSH0 DUP3 DUP3 MSTORE PUSH1 0x20 DUP3 ADD SWAP1 POP SWAP3 SWAP2 POP POP JUMP JUMPDEST PUSH32 0x496E76616C69642066756E6374696F6E2063616C6C0000000000000000000000 PUSH0 DUP3 ADD MSTORE POP JUMP JUMPDEST PUSH0 PUSH2 0x41F PUSH1 0x15 DUP4 PUSH2 0x3DB JUMP JUMPDEST SWAP2 POP PUSH2 0x42A DUP3 PUSH2 0x3EB JUMP JUMPDEST PUSH1 0x20 DUP3 ADD SWAP1 POP SWAP2 SWAP1 POP JUMP JUMPDEST PUSH0 PUSH1 0x20 DUP3 ADD SWAP1 POP DUP2 DUP2 SUB PUSH0 DUP4 ADD MSTORE PUSH2 0x44C DUP2 PUSH2 0x413 JUMP JUMPDEST SWAP1 POP SWAP2 SWAP1 POP JUMP JUMPDEST PUSH0 PUSH0 REVERT JUMPDEST PUSH0 PUSH20 0xFFFFFFFFFFFFFFFFFFFFFFFFFFFFFFFFFFFFFFFF DUP3 AND SWAP1 POP SWAP2 SWAP1 POP JUMP JUMPDEST PUSH0 PUSH2 0x480 DUP3 PUSH2 0x457 JUMP JUMPDEST SWAP1 POP SWAP2 SWAP1 POP JUMP JUMPDEST PUSH2 0x490 DUP2 PUSH2 0x476 JUMP JUMPDEST DUP2 EQ PUSH2 0x49A JUMPI PUSH0 PUSH0 REVERT JUMPDEST POP JUMP JUMPDEST PUSH0 DUP2 CALLDATALOAD SWAP1 POP PUSH2 0x4AB DUP2 PUSH2 0x487 JUMP JUMPDEST SWAP3 SWAP2 POP POP JUMP JUMPDEST PUSH0 PUSH1 0x20 DUP3 DUP5 SUB SLT ISZERO PUSH2 0x4C6 JUMPI PUSH2 0x4C5 PUSH2 0x453 JUMP JUMPDEST JUMPDEST PUSH0 PUSH2 0x4D3 DUP5 DUP3 DUP6 ADD PUSH2 0x49D JUMP JUMPDEST SWAP2 POP POP SWAP3 SWAP2 POP POP JUMP JUMPDEST PUSH2 0x4E5 DUP2 PUSH2 0x3AA JUMP JUMPDEST DUP2 EQ PUSH2 0x4EF JUMPI PUSH0 PUSH0 REVERT JUMPDEST POP JUMP JUMPDEST PUSH0 DUP2 CALLDATALOAD SWAP1 POP PUSH2 0x500 DUP2 PUSH2 0x4DC JUMP JUMPDEST SWAP3 SWAP2 POP POP JUMP JUMPDEST PUSH0 PUSH1 0x20 DUP3 DUP5 SUB SLT ISZERO PUSH2 0x51B JUMPI PUSH2 0x51A PUSH2 0x453 JUMP JUMPDEST JUMPDEST PUSH0 PUSH2 0x528 DUP5 DUP3 DUP6 ADD PUSH2 0x4F2 JUMP JUMPDEST SWAP2 POP POP SWAP3 SWAP2 POP POP JUMP JUMPDEST PUSH32 0xEC9E94EC95A1EC9DB420EBB680ECA1B1ED95A9EB8B88EB8BA400000000000000 PUSH0 DUP3 ADD MSTORE POP JUMP JUMPDEST PUSH0 PUSH2 0x565 PUSH1 0x19 DUP4 PUSH2 0x3DB JUMP JUMPDEST SWAP2 POP PUSH2 0x570 DUP3 PUSH2 0x531 JUMP JUMPDEST PUSH1 0x20 DUP3 ADD SWAP1 POP SWAP2 SWAP1 POP JUMP JUMPDEST PUSH0 PUSH1 0x20 DUP3 ADD SWAP1 POP DUP2 DUP2 SUB PUSH0 DUP4 ADD MSTORE PUSH2 0x592 DUP2 PUSH2 0x559 JUMP JUMPDEST SWAP1 POP SWAP2 SWAP1 POP JUMP JUMPDEST PUSH32 0x4E487B7100000000000000000000000000000000000000000000000000000000 PUSH0 MSTORE PUSH1 0x11 PUSH1 0x4 MSTORE PUSH1 0x24 PUSH0 REVERT JUMPDEST PUSH0 PUSH2 0x5D0 DUP3 PUSH2 0x3AA JUMP JUMPDEST SWAP2 POP PUSH2 0x5DB DUP4 PUSH2 0x3AA JUMP JUMPDEST SWAP3 POP DUP3 DUP3 ADD SWAP1 POP DUP1 DUP3 GT ISZERO PUSH2 0x5F3 JUMPI PUSH2 0x5F2 PUSH2 0x599 JUMP JUMPDEST JUMPDEST SWAP3 SWAP2 POP POP JUMP JUMPDEST PUSH0 PUSH2 0x603 DUP3 PUSH2 0x3AA JUMP JUMPDEST SWAP2 POP PUSH2 0x60E DUP4 PUSH2 0x3AA JUMP JUMPDEST SWAP3 POP DUP3 DUP3 SUB SWAP1 POP DUP2 DUP2 GT ISZERO PUSH2 0x626 JUMPI PUSH2 0x625 PUSH2 0x599 JUMP JUMPDEST JUMPDEST SWAP3 SWAP2 POP POP JUMP JUMPDEST PUSH0 DUP2 SWAP1 POP SWAP3 SWAP2 POP POP JUMP JUMPDEST POP JUMP JUMPDEST PUSH0 PUSH2 0x644 PUSH0 DUP4 PUSH2 0x62C JUMP JUMPDEST SWAP2 POP PUSH2 0x64F DUP3 PUSH2 0x636 JUMP JUMPDEST PUSH0 DUP3 ADD SWAP1 POP SWAP2 SWAP1 POP JUMP JUMPDEST PUSH0 PUSH2 0x663 DUP3 PUSH2 0x639 JUMP JUMPDEST SWAP2 POP DUP2 SWAP1 POP SWAP2 SWAP1 POP JUMP JUMPDEST PUSH32 0x45544820ECA084EC86A120EC8BA4ED8CA8000000000000000000000000000000 PUSH0 DUP3 ADD MSTORE POP JUMP JUMPDEST PUSH0 PUSH2 0x6A1 PUSH1 0x11 DUP4 PUSH2 0x3DB JUMP JUMPDEST SWAP2 POP PUSH2 0x6AC DUP3 PUSH2 0x66D JUMP JUMPDEST PUSH1 0x20 DUP3 ADD SWAP1 POP SWAP2 SWAP1 POP JUMP JUMPDEST PUSH0 PUSH1 0x20 DUP3 ADD SWAP1 POP DUP2 DUP2 SUB PUSH0 DUP4 ADD MSTORE PUSH2 0x6CE DUP2 PUSH2 0x695 JUMP JUMPDEST SWAP1 POP SWAP2 SWAP1 POP JUMP INVALID LOG2 PUSH5 0x6970667358 0x22 SLT KECCAK256 DUP7 SWAP7 0xD2 0xB5 0x26 0xCF JUMPDEST EXTSTATICCALL 0xA7 CALLDATASIZE 0xC6 0xE2 SHR PUSH24 0x5C55C047E8C8C71C5D73BC52CEBF53D0FB0164736F6C6343 STOP ADDMOD 0x22 STOP CALLER "
				},
				"gasEstimates": {
					"creation": {
						"codeDepositCost": "360600",
						"executionCost": "397",
						"totalCost": "360997"
					},
					"external": {
						"": "444",
						"balances(address)": "2801",
						"depoist()": "infinite",
						"getContractBalance()": "378",
						"withdraw(uint256)": "infinite"
					},
					"internal": {
						"_deposit()": "infinite"
					}
				},
				"methodIdentifiers": {
					"balances(address)": "27e235e3",
					"depoist()": "041bacd2",
					"getContractBalance()": "6f9fb98a",
					"withdraw(uint256)": "2e1a7d4d"
				}
			},
			"storageLayout": {
				"storage": [
					{
						"astId": 5,
						"contract": "test/SimpleBank(payble).sol:SimpleBank",
						"label": "balances",
						"offset": 0,
						"slot": "0",
						"type": "t_mapping(t_address,t_uint256)"
					}
				],
				"types": {
					"t_address": {
						"encoding": "inplace",
						"label": "address",
						"numberOfBytes": "20"
					},
					"t_mapping(t_address,t_uint256)": {
						"encoding": "mapping",
						"key": "t_address",
						"label": "mapping(address => uint256)",
						"numberOfBytes": "32",
						"value": "t_uint256"
					},
					"t_uint256": {
						"encoding": "inplace",
						"label": "uint256",
						"numberOfBytes": "32"
					}
				}
			},
			"userdoc": {
				"kind": "user",
				"methods": {},
				"version": 1
			}
		}
	}
}