{
	"test/Counter.sol": {
		"Counter": {
			"abi": [
				{
					"inputs": [],
					"name": "count",
					"outputs": [
						{
							"internalType": "uint256",
							"name": "",
							"type": "uint256"
						}
					],
					"stateMutability": "view",
					"type": "function"
				},
				{
					"inputs": [],
					"name": "decrement",
					"outputs": [],
					"stateMutability": "nonpayable",
					"type": "function"
				},
				{
					"inputs": [],
					"name": "getCount",
					"outputs": [
						{
							"internalType": "uint256",
							"name": "",
							"type": "uint256"
						}
					],
					"stateMutability": "view",
					"type": "function"
				},
				{
					"inputs": [],
					"name": "increment",
					"outputs": [],
					"stateMutability": "nonpayable",
					"type": "function"
				}
			],
			"devdoc": {
				"kind": "dev",
				"methods": {},
				"version": 1
			},
			"evm": {
				"assembly": "    /* \"test/Counter.sol\":61:382  contract Counter {... */\n  mstore(0x40, 0x80)\n  callvalue\n  dup1\n  iszero\n  tag_1\n  jumpi\n  0x00\n  dup1\n  revert\ntag_1:\n  pop\n  dataSize(sub_0)\n  dup1\n  dataOffset(sub_0)\n  0x00\n  codecopy\n  0x00\n  return\nstop\n\nsub_0: assembly {\n        /* \"test/Counter.sol\":61:382  contract Counter {... */\n      mstore(0x40, 0x80)\n      callvalue\n      dup1\n      iszero\n      tag_1\n      jumpi\n      0x00\n      dup1\n      revert\n    tag_1:\n      pop\n      jumpi(tag_2, lt(calldatasize, 0x04))\n      shr(0xe0, calldataload(0x00))\n      dup1\n      0x06661abd\n      eq\n      tag_3\n      jumpi\n      dup1\n      0x2baeceb7\n      eq\n      tag_4\n      jumpi\n      dup1\n      0xa87d942c\n      eq\n      tag_5\n      jumpi\n      dup1\n      0xd09de08a\n      eq\n      tag_6\n      jumpi\n    tag_2:\n      0x00\n      dup1\n      revert\n        /* \"test/Counter.sol\":85:105  uint256 public count */\n    tag_3:\n      tag_7\n      tag_8\n      jump\t// in\n    tag_7:\n      mload(0x40)\n      tag_9\n      swap2\n      swap1\n      tag_10\n      jump\t// in\n    tag_9:\n      mload(0x40)\n      dup1\n      swap2\n      sub\n      swap1\n      return\n        /* \"test/Counter.sol\":179:290  function decrement() public {... */\n    tag_4:\n      tag_11\n      tag_12\n      jump\t// in\n    tag_11:\n      stop\n        /* \"test/Counter.sol\":298:379  function getCount() public view returns (uint256) {... */\n    tag_5:\n      tag_13\n      tag_14\n      jump\t// in\n    tag_13:\n      mload(0x40)\n      tag_15\n      swap2\n      swap1\n      tag_10\n      jump\t// in\n    tag_15:\n      mload(0x40)\n      dup1\n      swap2\n      sub\n      swap1\n      return\n        /* \"test/Counter.sol\":114:171  function increment() public {... */\n    tag_6:\n      tag_16\n      tag_17\n      jump\t// in\n    tag_16:\n      stop\n        /* \"test/Counter.sol\":85:105  uint256 public count */\n    tag_8:\n      sload(0x00)\n      dup2\n      jump\t// out\n        /* \"test/Counter.sol\":179:290  function decrement() public {... */\n    tag_12:\n        /* \"test/Counter.sol\":234:235  0 */\n      0x00\n        /* \"test/Counter.sol\":226:231  count */\n      dup1\n      sload\n        /* \"test/Counter.sol\":226:235  count > 0 */\n      gt\n        /* \"test/Counter.sol\":218:261  require(count > 0, \"count is already zero\") */\n      tag_19\n      jumpi\n      mload(0x40)\n      0x08c379a000000000000000000000000000000000000000000000000000000000\n      dup2\n      mstore\n      0x04\n      add\n      tag_20\n      swap1\n      tag_21\n      jump\t// in\n    tag_20:\n      mload(0x40)\n      dup1\n      swap2\n      sub\n      swap1\n      revert\n    tag_19:\n        /* \"test/Counter.sol\":281:282  1 */\n      0x01\n        /* \"test/Counter.sol\":272:277  count */\n      0x00\n      dup1\n        /* \"test/Counter.sol\":272:282  count -= 1 */\n      dup3\n      dup3\n      sload\n      tag_22\n      swap2\n      swap1\n      tag_23\n      jump\t// in\n    tag_22:\n      swap3\n      pop\n      pop\n      dup2\n      swap1\n      sstore\n      pop\n        /* \"test/Counter.sol\":179:290  function decrement() public {... */\n      jump\t// out\n        /* \"test/Counter.sol\":298:379  function getCount() public view returns (uint256) {... */\n    tag_14:\n        /* \"test/Counter.sol\":339:346  uint256 */\n      0x00\n        /* \"test/Counter.sol\":366:371  count */\n      dup1\n      sload\n        /* \"test/Counter.sol\":359:371  return count */\n      swap1\n      pop\n        /* \"test/Counter.sol\":298:379  function getCount() public view returns (uint256) {... */\n      swap1\n      jump\t// out\n        /* \"test/Counter.sol\":114:171  function increment() public {... */\n    tag_17:\n        /* \"test/Counter.sol\":162:163  1 */\n      0x01\n        /* \"test/Counter.sol\":153:158  count */\n      0x00\n      dup1\n        /* \"test/Counter.sol\":153:163  count += 1 */\n      dup3\n      dup3\n      sload\n      tag_26\n      swap2\n      swap1\n      tag_27\n      jump\t// in\n    tag_26:\n      swap3\n      pop\n      pop\n      dup2\n      swap1\n      sstore\n      pop\n        /* \"test/Counter.sol\":114:171  function increment() public {... */\n      jump\t// out\n        /* \"#utility.yul\":7:84   */\n    tag_28:\n        /* \"#utility.yul\":44:51   */\n      0x00\n        /* \"#utility.yul\":73:78   */\n      dup2\n        /* \"#utility.yul\":62:78   */\n      swap1\n      pop\n        /* \"#utility.yul\":7:84   */\n      swap2\n      swap1\n      pop\n      jump\t// out\n        /* \"#utility.yul\":90:208   */\n    tag_29:\n        /* \"#utility.yul\":177:201   */\n      tag_37\n        /* \"#utility.yul\":195:200   */\n      dup2\n        /* \"#utility.yul\":177:201   */\n      tag_28\n      jump\t// in\n    tag_37:\n        /* \"#utility.yul\":172:175   */\n      dup3\n        /* \"#utility.yul\":165:202   */\n      mstore\n        /* \"#utility.yul\":90:208   */\n      pop\n      pop\n      jump\t// out\n        /* \"#utility.yul\":214:436   */\n    tag_10:\n        /* \"#utility.yul\":307:311   */\n      0x00\n        /* \"#utility.yul\":345:347   */\n      0x20\n        /* \"#utility.yul\":334:343   */\n      dup3\n        /* \"#utility.yul\":330:348   */\n      add\n        /* \"#utility.yul\":322:348   */\n      swap1\n      pop\n        /* \"#utility.yul\":358:429   */\n      tag_39\n        /* \"#utility.yul\":426:427   */\n      0x00\n        /* \"#utility.yul\":415:424   */\n      dup4\n        /* \"#utility.yul\":411:428   */\n      add\n        /* \"#utility.yul\":402:408   */\n      dup5\n        /* \"#utility.yul\":358:429   */\n      tag_29\n      jump\t// in\n    tag_39:\n        /* \"#utility.yul\":214:436   */\n      swap3\n      swap2\n      pop\n      pop\n      jump\t// out\n        /* \"#utility.yul\":442:611   */\n    tag_30:\n        /* \"#utility.yul\":526:537   */\n      0x00\n        /* \"#utility.yul\":560:566   */\n      dup3\n        /* \"#utility.yul\":555:558   */\n      dup3\n        /* \"#utility.yul\":548:567   */\n      mstore\n        /* \"#utility.yul\":600:604   */\n      0x20\n        /* \"#utility.yul\":595:598   */\n      dup3\n        /* \"#utility.yul\":591:605   */\n      add\n        /* \"#utility.yul\":576:605   */\n      swap1\n      pop\n        /* \"#utility.yul\":442:611   */\n      swap3\n      swap2\n      pop\n      pop\n      jump\t// out\n        /* \"#utility.yul\":617:788   */\n    tag_31:\n        /* \"#utility.yul\":757:780   */\n      0x636f756e7420697320616c7265616479207a65726f0000000000000000000000\n        /* \"#utility.yul\":753:754   */\n      0x00\n        /* \"#utility.yul\":745:751   */\n      dup3\n        /* \"#utility.yul\":741:755   */\n      add\n        /* \"#utility.yul\":734:781   */\n      mstore\n        /* \"#utility.yul\":617:788   */\n      pop\n      jump\t// out\n        /* \"#utility.yul\":794:1160   */\n    tag_32:\n        /* \"#utility.yul\":936:939   */\n      0x00\n        /* \"#utility.yul\":957:1024   */\n      tag_43\n        /* \"#utility.yul\":1021:1023   */\n      0x15\n        /* \"#utility.yul\":1016:1019   */\n      dup4\n        /* \"#utility.yul\":957:1024   */\n      tag_30\n      jump\t// in\n    tag_43:\n        /* \"#utility.yul\":950:1024   */\n      swap2\n      pop\n        /* \"#utility.yul\":1033:1126   */\n      tag_44\n        /* \"#utility.yul\":1122:1125   */\n      dup3\n        /* \"#utility.yul\":1033:1126   */\n      tag_31\n      jump\t// in\n    tag_44:\n        /* \"#utility.yul\":1151:1153   */\n      0x20\n        /* \"#utility.yul\":1146:1149   */\n      dup3\n        /* \"#utility.yul\":1142:1154   */\n      add\n        /* \"#utility.yul\":1135:1154   */\n      swap1\n      pop\n        /* \"#utility.yul\":794:1160   */\n      swap2\n      swap1\n      pop\n      jump\t// out\n        /* \"#utility.yul\":1166:1585   */\n    tag_21:\n        /* \"#utility.yul\":1332:1336   */\n      0x00\n        /* \"#utility.yul\":1370:1372   */\n      0x20\n        /* \"#utility.yul\":1359:1368   */\n      dup3\n        /* \"#utility.yul\":1355:1373   */\n      add\n        /* \"#utility.yul\":1347:1373   */\n      swap1\n      pop\n        /* \"#utility.yul\":1419:1428   */\n      dup2\n        /* \"#utility.yul\":1413:1417   */\n      dup2\n        /* \"#utility.yul\":1409:1429   */\n      sub\n        /* \"#utility.yul\":1405:1406   */\n      0x00\n        /* \"#utility.yul\":1394:1403   */\n      dup4\n        /* \"#utility.yul\":1390:1407   */\n      add\n        /* \"#utility.yul\":1383:1430   */\n      mstore\n        /* \"#utility.yul\":1447:1578   */\n      tag_46\n        /* \"#utility.yul\":1573:1577   */\n      dup2\n        /* \"#utility.yul\":1447:1578   */\n      tag_32\n      jump\t// in\n    tag_46:\n        /* \"#utility.yul\":1439:1578   */\n      swap1\n      pop\n        /* \"#utility.yul\":1166:1585   */\n      swap2\n      swap1\n      pop\n      jump\t// out\n        /* \"#utility.yul\":1591:1771   */\n    tag_33:\n        /* \"#utility.yul\":1639:1716   */\n      0x4e487b7100000000000000000000000000000000000000000000000000000000\n        /* \"#utility.yul\":1636:1637   */\n      0x00\n        /* \"#utility.yul\":1629:1717   */\n      mstore\n        /* \"#utility.yul\":1736:1740   */\n      0x11\n        /* \"#utility.yul\":1733:1734   */\n      0x04\n        /* \"#utility.yul\":1726:1741   */\n      mstore\n        /* \"#utility.yul\":1760:1764   */\n      0x24\n        /* \"#utility.yul\":1757:1758   */\n      0x00\n        /* \"#utility.yul\":1750:1765   */\n      revert\n        /* \"#utility.yul\":1777:1971   */\n    tag_23:\n        /* \"#utility.yul\":1817:1821   */\n      0x00\n        /* \"#utility.yul\":1837:1857   */\n      tag_49\n        /* \"#utility.yul\":1855:1856   */\n      dup3\n        /* \"#utility.yul\":1837:1857   */\n      tag_28\n      jump\t// in\n    tag_49:\n        /* \"#utility.yul\":1832:1857   */\n      swap2\n      pop\n        /* \"#utility.yul\":1871:1891   */\n      tag_50\n        /* \"#utility.yul\":1889:1890   */\n      dup4\n        /* \"#utility.yul\":1871:1891   */\n      tag_28\n      jump\t// in\n    tag_50:\n        /* \"#utility.yul\":1866:1891   */\n      swap3\n      pop\n        /* \"#utility.yul\":1915:1916   */\n      dup3\n        /* \"#utility.yul\":1912:1913   */\n      dup3\n        /* \"#utility.yul\":1908:1917   */\n      sub\n        /* \"#utility.yul\":1900:1917   */\n      swap1\n      pop\n        /* \"#utility.yul\":1939:1940   */\n      dup2\n        /* \"#utility.yul\":1933:1937   */\n      dup2\n        /* \"#utility.yul\":1930:1941   */\n      gt\n        /* \"#utility.yul\":1927:1964   */\n      iszero\n      tag_51\n      jumpi\n        /* \"#utility.yul\":1944:1962   */\n      tag_52\n      tag_33\n      jump\t// in\n    tag_52:\n        /* \"#utility.yul\":1927:1964   */\n    tag_51:\n        /* \"#utility.yul\":1777:1971   */\n      swap3\n      swap2\n      pop\n      pop\n      jump\t// out\n        /* \"#utility.yul\":1977:2168   */\n    tag_27:\n        /* \"#utility.yul\":2017:2020   */\n      0x00\n        /* \"#utility.yul\":2036:2056   */\n      tag_54\n        /* \"#utility.yul\":2054:2055   */\n      dup3\n        /* \"#utility.yul\":2036:2056   */\n      tag_28\n      jump\t// in\n    tag_54:\n        /* \"#utility.yul\":2031:2056   */\n      swap2\n      pop\n        /* \"#utility.yul\":2070:2090   */\n      tag_55\n        /* \"#utility.yul\":2088:2089   */\n      dup4\n        /* \"#utility.yul\":2070:2090   */\n      tag_28\n      jump\t// in\n    tag_55:\n        /* \"#utility.yul\":2065:2090   */\n      swap3\n      pop\n        /* \"#utility.yul\":2113:2114   */\n      dup3\n        /* \"#utility.yul\":2110:2111   */\n      dup3\n        /* \"#utility.yul\":2106:2115   */\n      add\n        /* \"#utility.yul\":2099:2115   */\n      swap1\n      pop\n        /* \"#utility.yul\":2134:2137   */\n      dup1\n        /* \"#utility.yul\":2131:2132   */\n      dup3\n        /* \"#utility.yul\":2128:2138   */\n      gt\n        /* \"#utility.yul\":2125:2161   */\n      iszero\n      tag_56\n      jumpi\n        /* \"#utility.yul\":2141:2159   */\n      tag_57\n      tag_33\n      jump\t// in\n    tag_57:\n        /* \"#utility.yul\":2125:2161   */\n    tag_56:\n        /* \"#utility.yul\":1977:2168   */\n      swap3\n      swap2\n      pop\n      pop\n      jump\t// out\n\n    auxdata: 0xa264697066735822122019ceb35c49699607e2171e0c9d6c648674e37efead91f4f0f02a060e086358f064736f6c63430008120033\n}\n",
				"bytecode": {
					"linkReferences": {},
					"object": "608060405234801561001057600080fd5b506102a8806100206000396000f3fe608060405234801561001057600080fd5b506004361061004c5760003560e01c806306661abd146100515780632baeceb71461006f578063a87d942c14610079578063d09de08a14610097575b600080fd5b6100596100a1565b6040516100669190610143565b60405180910390f35b6100776100a7565b005b610081610106565b60405161008e9190610143565b60405180910390f35b61009f61010f565b005b60005481565b60008054116100eb576040517f08c379a00000000000000000000000000000000000000000000000000000000081526004016100e2906101bb565b60405180910390fd5b60016000808282546100fd919061020a565b92505081905550565b60008054905090565b6001600080828254610121919061023e565b92505081905550565b6000819050919050565b61013d8161012a565b82525050565b60006020820190506101586000830184610134565b92915050565b600082825260208201905092915050565b7f636f756e7420697320616c7265616479207a65726f0000000000000000000000600082015250565b60006101a560158361015e565b91506101b08261016f565b602082019050919050565b600060208201905081810360008301526101d481610198565b9050919050565b7f4e487b7100000000000000000000000000000000000000000000000000000000600052601160045260246000fd5b60006102158261012a565b91506102208361012a565b9250828203905081811115610238576102376101db565b5b92915050565b60006102498261012a565b91506102548361012a565b925082820190508082111561026c5761026b6101db565b5b9291505056fea264697066735822122019ceb35c49699607e2171e0c9d6c648674e37efead91f4f0f02a060e086358f064736f6c63430008120033",
					"opcodes": "PUSH1 0x80 PUSH1 0x40 MSTORE CALLVALUE DUP1 ISZERO PUSH2 0x10 JUMPI PUSH1 0x0 DUP1 REVERT JUMPDEST POP PUSH2 0x2A8 DUP1 PUSH2 0x20 PUSH1 0x0 CODECOPY PUSH1 0x0 RETURN INVALID PUSH1 0x80 PUSH1 0x40 MSTORE CALLVALUE DUP1 ISZERO PUSH2 0x10 JUMPI PUSH1 0x0 DUP1 REVERT JUMPDEST POP PUSH1 0x4 CALLDATASIZE LT PUSH2 0x4C JUMPI PUSH1 0x0 CALLDATALOAD PUSH1 0xE0 SHR DUP1 PUSH4 0x6661ABD EQ PUSH2 0x51 JUMPI DUP1 PUSH4 0x2BAECEB7 EQ PUSH2 0x6F JUMPI DUP1 PUSH4 0xA87D942C EQ PUSH2 0x79 JUMPI DUP1 PUSH4 0xD09DE08A EQ PUSH2 0x97 JUMPI JUMPDEST PUSH1 0x0 DUP1 REVERT JUMPDEST PUSH2 0x59 PUSH2 0xA1 JUMP JUMPDEST PUSH1 0x40 MLOAD PUSH2 0x66 SWAP2 SWAP1 PUSH2 0x143 JUMP JUMPDEST PUSH1 0x40 MLOAD DUP1 SWAP2 SUB SWAP1 RETURN JUMPDEST PUSH2 0x77 PUSH2 0xA7 JUMP JUMPDEST STOP JUMPDEST PUSH2 0x81 PUSH2 0x106 JUMP JUMPDEST PUSH1 0x40 MLOAD PUSH2 0x8E SWAP2 SWAP1 PUSH2 0x143 JUMP JUMPDEST PUSH1 0x40 MLOAD DUP1 SWAP2 SUB SWAP1 RETURN JUMPDEST PUSH2 0x9F PUSH2 0x10F JUMP JUMPDEST STOP JUMPDEST PUSH1 0x0 SLOAD DUP2 JUMP JUMPDEST PUSH1 0x0 DUP1 SLOAD GT PUSH2 0xEB JUMPI PUSH1 0x40 MLOAD PUSH32 0x8C379A000000000000000000000000000000000000000000000000000000000 DUP2 MSTORE PUSH1 0x4 ADD PUSH2 0xE2 SWAP1 PUSH2 0x1BB JUMP JUMPDEST PUSH1 0x40 MLOAD DUP1 SWAP2 SUB SWAP1 REVERT JUMPDEST PUSH1 0x1 PUSH1 0x0 DUP1 DUP3 DUP3 SLOAD PUSH2 0xFD SWAP2 SWAP1 PUSH2 0x20A JUMP JUMPDEST SWAP3 POP POP DUP2 SWAP1 SSTORE POP JUMP JUMPDEST PUSH1 0x0 DUP1 SLOAD SWAP1 POP SWAP1 JUMP JUMPDEST PUSH1 0x1 PUSH1 0x0 DUP1 DUP3 DUP3 SLOAD PUSH2 0x121 SWAP2 SWAP1 PUSH2 0x23E JUMP JUMPDEST SWAP3 POP POP DUP2 SWAP1 SSTORE POP JUMP JUMPDEST PUSH1 0x0 DUP2 SWAP1 POP SWAP2 SWAP1 POP JUMP JUMPDEST PUSH2 0x13D DUP2 PUSH2 0x12A JUMP JUMPDEST DUP3 MSTORE POP POP JUMP JUMPDEST PUSH1 0x0 PUSH1 0x20 DUP3 ADD SWAP1 POP PUSH2 0x158 PUSH1 0x0 DUP4 ADD DUP5 PUSH2 0x134 JUMP JUMPDEST SWAP3 SWAP2 POP POP JUMP JUMPDEST PUSH1 0x0 DUP3 DUP3 MSTORE PUSH1 0x20 DUP3 ADD SWAP1 POP SWAP3 SWAP2 POP POP JUMP JUMPDEST PUSH32 0x636F756E7420697320616C7265616479207A65726F0000000000000000000000 PUSH1 0x0 DUP3 ADD MSTORE POP JUMP JUMPDEST PUSH1 0x0 PUSH2 0x1A5 PUSH1 0x15 DUP4 PUSH2 0x15E JUMP JUMPDEST SWAP2 POP PUSH2 0x1B0 DUP3 PUSH2 0x16F JUMP JUMPDEST PUSH1 0x20 DUP3 ADD SWAP1 POP SWAP2 SWAP1 POP JUMP JUMPDEST PUSH1 0x0 PUSH1 0x20 DUP3 ADD SWAP1 POP DUP2 DUP2 SUB PUSH1 0x0 DUP4 ADD MSTORE PUSH2 0x1D4 DUP2 PUSH2 0x198 JUMP JUMPDEST SWAP1 POP SWAP2 SWAP1 POP JUMP JUMPDEST PUSH32 0x4E487B7100000000000000000000000000000000000000000000000000000000 PUSH1 0x0 MSTORE PUSH1 0x11 PUSH1 0x4 MSTORE PUSH1 0x24 PUSH1 0x0 REVERT JUMPDEST PUSH1 0x0 PUSH2 0x215 DUP3 PUSH2 0x12A JUMP JUMPDEST SWAP2 POP PUSH2 0x220 DUP4 PUSH2 0x12A JUMP JUMPDEST SWAP3 POP DUP3 DUP3 SUB SWAP1 POP DUP2 DUP2 GT ISZERO PUSH2 0x238 JUMPI PUSH2 0x237 PUSH2 0x1DB JUMP JUMPDEST JUMPDEST SWAP3 SWAP2 POP POP JUMP JUMPDEST PUSH1 0x0 PUSH2 0x249 DUP3 PUSH2 0x12A JUMP JUMPDEST SWAP2 POP PUSH2 0x254 DUP4 PUSH2 0x12A JUMP JUMPDEST SWAP3 POP DUP3 DUP3 ADD SWAP1 POP DUP1 DUP3 GT ISZERO PUSH2 0x26C JUMPI PUSH2 0x26B PUSH2 0x1DB JUMP JUMPDEST JUMPDEST SWAP3 SWAP2 POP POP JUMP INVALID LOG2 PUSH5 0x6970667358 0x22 SLT KECCAK256 NOT 0xCE 0xB3 0x5C 0x49 PUSH10 0x9607E2171E0C9D6C6486 PUSH21 0xE37EFEAD91F4F0F02A060E086358F064736F6C6343 STOP ADDMOD SLT STOP CALLER "
				},
				"gasEstimates": {
					"creation": {
						"codeDepositCost": "136000",
						"executionCost": "183",
						"totalCost": "136183"
					},
					"external": {
						"count()": "2407",
						"decrement()": "infinite",
						"getCount()": "2459",
						"increment()": "infinite"
					}
				},
				"methodIdentifiers": {
					"count()": "06661abd",
					"decrement()": "2baeceb7",
					"getCount()": "a87d942c",
					"increment()": "d09de08a"
				}
			},
			"storageLayout": {
				"storage": [
					{
						"astId": 3,
						"contract": "test/Counter.sol:Counter",
						"label": "count",
						"offset": 0,
						"slot": "0",
						"type": "t_uint256"
					}
				],
				"types": {
					"t_uint256": {
						"encoding": "inplace",
						"label": "uint256",
						"numberOfBytes": "32"
					}
				}
			},
			"userdoc": {
				"kind": "user",
				"methods": {},
				"version": 1
			}
		}
	}
}